:020000040800F2
:10000000D82601209D010008195100088D390008EB
:1000100015510008DD060008856E0008000000008C
:10002000000000000000000000000000AD520008C9
:10003000C308000800000000AB520008AF520008DF
:10004000B7010008B7010008B7010008B7010008B0
:10005000B7010008B7010008B7010008B7010008A0
:10006000B7010008B7010008B7010008B701000890
:10007000B7010008B7010008B7010008B701000880
:100080008907000899070008B7010008B7010008B0
:10009000B7010008B7010008B7010008B701000860
:1000A000B7010008B7010008B7010008B701000850
:1000B000B7010008B7010008DD530008D93900086E
:1000C000C9390008B7010008B7010008B7010008E6
:1000D000B7010008B7010008B7010008B701000820
:1000E000B7010008B7010008B7010008B701000810
:1000F000B7010008B7010008B7010008B701000800
:10010000B7010008B7010008B7010008B7010008EF
:10011000B7010008B7010008B7010008B7010008DF
:10012000A9070008B7010008B7010008B7010008D7
:10013000B70100080000000000000000B70100083F
:10014000B7010008B7010008B70100081D510008F9
:10015000B7010008B7010008B7010008B70100089F
:10016000B7010008B7010008B7010008B70100088F
:10017000B7010008B70100080000000000000000FF
:10018000B7010008B7010008DFF80CD000F08EF9C5
:100190000048004751720008D826012006488047D1
:1001A00006480047FEE7FEE7FEE7FEE7FEE7FEE75C
:1001B000FEE7FEE7FEE7FEE7795300088901000845
:1001C0002DE9F05F0546002092469B46884606468C
:1001D000814640241BE0284641464746224600F01F
:1001E000F8F853465A46C01A914110D311461846A2
:1001F000224600F0DFF82D1A67EB01084F46224631
:100200000120002100F0D6F817EB00094E41201E16
:10021000A4F10104DFDC484631462A464346BDE8E6
:10022000F09F40EA01039B0703D009E008C9121FB1
:1002300008C0042AFAD203E011F8013B00F8013BA0
:10024000521EF9D27047D2B201E000F8012B491ECC
:10025000FBD270470022F6E710B513460A46044663
:100260001946FFF7F0FF204610BD30B504460020C8
:10027000034600E05B1C934203D2E05CCD5C401B74
:10028000F8D030BD2DE9FE4F81EA030404F00044AC
:1002900021F0004100944FF0000B23F0004350EA9E
:1002A00001045ED052EA03045BD0C3F30A54C1F3E5
:1002B0000A552C44A4F2F3340194A0FB0254C1F378
:1002C000130141F48011C3F3130343F4801301FBC2
:1002D000024400FB034E840A970A44EA815447EA29
:1002E0008357A4FB076802958D0A05FB07854FEA33
:1002F000932C04FB0C542705029D4FEA065847EA4D
:100300001637B5EB08056EEB070C870E920E47EA21
:10031000811742EA8312A7FB0201B6EB0B0164EBE3
:1003200000042B0D43EA0C335E1844EB1C50DA46F4
:100330005146E7FB0201C5F313044FEA0B3343EACE
:1003400014534FEA0432019C43EA0603A4F10C045F
:100350000294009CCDE900B400F05AF803B0BDE867
:10036000F08F00200146F9E70EB540F233410291CB
:100370000021CDE900110A460B4600F049F803B010
:1003800000BDC1F30A5210B5C1F3130140F2FF33AF
:1003900041F480119A4201DA002010BD40F233434B
:1003A0009A42A2F2334203DC524200F012F810BD2E
:1003B000904010BD202A04DB203A00FA02F1002010
:1003C00070479140C2F1200320FA03F31943904093
:1003D0007047202A04DB203A21FA02F000217047FE
:1003E00021FA02F3D040C2F120029140084319469D
:1003F000704710B5141E73F1000408DA401C41F177
:10040000000192185B411A4301D120F0010010BD98
:100410002DE9F04D92469B4611B1B1FA81F202E00E
:10042000B0FA80F220329046FFF7C4FF04460F4630
:1004300040EA0A0041EA0B0153465A46084313D0EA
:10044000114653EA010019D0C8F140025046FFF7A7
:10045000C0FF05460E46504659464246FFF7AAFFE2
:10046000084305D0012004E020463946BDE8F08D60
:100470000020054346EAE0762C4337430A9863059B
:10048000E40AA0EB08000022FD0A44EA47540A30BF
:1004900002D500200146E9E7010510196941DDE9AF
:1004A000084500196941BDE8F04DA2E7064C074D2B
:1004B00006E0E06840F0010394E807009847103434
:1004C000AC42F6D3FFF764FED4770008F477000857
:1004D00070B58C1810F8015B15F0070301D110F806
:1004E000013B2A1106D110F8012B03E010F8016B33
:1004F00001F8016B5B1EF9D12B0705D40023521EB6
:100500000DD401F8013BFAE710F8013BCB1A921C1D
:1005100003E013F8015B01F8015B521EF9D5A1421B
:10052000D8D3002070BD10B50146806B026C12F06C
:10053000500F05D0026CD20626D500F06DFA10BD22
:10054000016C41F40071016401688A6812F0405F37
:1005500017D1027EAAB9CA6A12F4700F02D08A6853
:1005600052050ED44A6822F020024A60016C21F440
:1005700080710164016CC90403D4016C41F0010174
:10058000016400F047FA10BD806BC26CBDE81040FA
:100590000846104710B5806B40210164416C41F062
:1005A0000401416400F038FA10BD10B5806B00F012
:1005B00032FA10BD464910B54A6822F440324A600A
:1005C0004A6843681A434A6001684A6822F48072A4
:1005D0004A6001684A68036942EA03224A60016886
:1005E0004A6822F040724A6001684A6883681A4388
:1005F0004A6001688A6822F400628A6001688A6839
:10060000C3681A438A60816A6FF07062D1420168E0
:100610008A6822F070628A6001688A680CD0836AF6
:100620001A438A6001688A6822F040528A60016831
:100630008A68C36A1A4301E022F040528A60016866
:100640008A6822F002028A6001688A68037E42EAB0
:1006500043028A6090F82010002901684A680FD090
:1006600042F400624A6001684A6822F460424A60CB
:1006700001684A68174C436A04EB43331A4301E0AC
:1006800022F400624A600168CA6A22F47002CA62F7
:100690000168CA6A838B104C04EB03531A43CA6285
:1006A00001688A6822F400728A6001688A6890F89A
:1006B000303042EA43228A6001688A6822F480620C
:1006C0008A6001688A68406942EA8020886010BDBB
:1006D0000023014000E0FFFF0000F0FF00BFFEE745
:1006E000002070470020704710B5044B044A4FF4B7
:1006F0007A71044806F0F9FF002010BDF0120120C5
:10070000F0110120F083002010B50A68014602486C
:1007100006F0B9FF002010BDF083002070B504463C
:10072000A56B284600F0F8FB0120287170BD10B5BC
:10073000846B204600F0C0FB0120207110BD70B515
:100740000546AC6B206940F004002061204600F0B3
:10075000E5FB0120207170BD10B5846B206940F06D
:1007600004002061204600F0A9FB0120207110BD8B
:1007700070B50446A56B284600F0CFFB70BD10B5E0
:10078000806B00F09AFB10BD10B5024800F06EFDC2
:1007900010BD00001C10012010B5024800F066FDDD
:1007A00010BD00007C10012010B5024800F05EFD75
:1007B00010BD0000580F012001460878103818239A
:1007C000B0FBF3F20848805CC865032A05D90868C5
:1007D0006FF30900001D886503E008686FF30900E6
:1007E0008865886D70470000B477000801460020D6
:1007F0008A6A8B69CBB932B1012A0DD0022A03D0A3
:10080000032A10D10EE000BFCB6A03F08073B3F16E
:10081000807F00D1012007E0CB6AB3F1C07F00D117
:10082000012001E000E000BF34E08B69B3F5005F18
:100830001AD132B1012A07D0022A03D0032A11D1DA
:100840000AE000BF01200EE0CB6A03F08073B3F131
:10085000807F00D1012006E0CB6AB3F1C07F00D1D8
:10086000012000E000BF15E032B1012A05D0022AC4
:1008700004D0032A0CD103E000BF00BF012008E030
:10088000CB6A03F08073B3F1807F00D1012000E0D8
:1008900000BF00BF704730B50468246824F480248A
:1008A00005682C60046863608468402C04D1046887
:1008B000A2600468E16003E00468A1600468E2608B
:1008C00030BD70477047000078B50024009490F860
:1008D0003C20012A19D0012280F83C200A68072315
:1008E0000568092A13D9EE680A3A02EB42029340DE
:1008F0009E43EE600B788A680A3B03EB43039A4001
:100900000368DD682A43DA6010E0022078BD2E69B2
:1009100002EB420293409E432E610B788A6803EB00
:1009200043039A4003681D692A431A614A681F23DA
:10093000072A13D205686E6B521E02EB82029340A7
:100940009E436E630B790A885B1E92B203EB8303AE
:100950009A4003685D6B2A435A6327E005680D2AB5
:1009600012D22E6BD21F02EB820293409E432E6363
:100970000B790A88DB1F92B203EB83039A4003686A
:100980001D6B2A431A6311E0EE6A0D3A02EB8202F4
:1009900093409E43EE620B790A880D3B92B203EBC3
:1009A00083039A400368DD6A2A43DA62164B0568BE
:1009B000144A9D4206D10D68122D03D1556845F4A5
:1009C0008005556005689D4218D10B68102B01D039
:1009D000112B13D1536843F40003536009681029A5
:1009E0000CD10A490A4A0968B1FBF2F101EB810115
:1009F000490000E0491E00910029FBD180F83C40ED
:100A0000002078BD00230140002001407800002034
:100A100040420F0070477047704770B504004FF0B8
:100A2000000503D0206C002610B107E0012070BD46
:100A3000204600F01DF8666484F83C60206CC00617
:100A400010D4206C20F4885040F00200206420462E
:100A5000FFF7B0FD6664206C20F0020040F001005A
:100A6000206400E0012584F83C60284670BD000049
:100A700070B586B0064614216846FFF7EBFB28499F
:100A8000306888424AD127480025016841F48061D6
:100A900001600068234900F48060143905900868FB
:100AA00040F020000860086800F020000590086809
:100AB00040F0010008600868032400F00100059080
:100AC0004FF470708DE831006946174800F0C8FD9A
:100AD0000F208DE831006946144800F0C1FD154C27
:100AE000134820608005C4E901050014C4E90350DF
:100AF000400060618000A0614011E061000220625E
:100B0000042060620120C4E90A052046256300F044
:100B1000CDFC08B1FFF7D6FEB463A66306B070BD86
:100B2000002201404438024000140240000002400C
:100B300010640240580F0120F8B50E46002104460B
:100B4000009190F83C00012807D0012084F83C0077
:100B500020688368DB0702D011E00220F8BD8368BB
:100B600043F0010383603748374B0068B0FBF3F074
:100B700000EB400000E0401E00900028FBD1206800
:100B80008368DB075CD0236C40F20165AB4343F420
:100B9000807323644068400505D5206C20F4005024
:100BA00040F480502064206CC00404D5606C20F0B8
:100BB0000600606400E0616484F83C10A16B244886
:100BC000224DC863A16B23480864A16B2248C86406
:100BD00021686FF0220008602068416841F0806160
:100BE00041602068816841F480718160216813460A
:100BF00032464C31A06B00F0CFFC68681749C00644
:100C0000206806D088421BD1816811F0405F13D064
:100C100016E08842F8D0124A904203D1D1F804235A
:100C2000D206F1D00F4A90420AD1D1F8041301F054
:100C30001F011029E8D303E0816841F08041816001
:100C40000020F8BD7800002040420F000023014042
:100C500027050008AB0500089505000800200140A5
:100C6000002101400022014010B50446002094F804
:100C70003C1001290CD0012184F83C1021688A68BD
:100C800022F001028A6021688A68D20702D013E04C
:100C9000022010BD886820F480708860A06B00F08E
:100CA00078FA21684A6822F080624A60216C21F457
:100CB000885141F001012164002184F83C1010BDED
:100CC00070B5040003D094F8200010B104E00120B6
:100CD00070BD204600F082F82068016821F0020112
:100CE000016000F09BFD0546052604E000F096FD3E
:100CF000401B0A2811D8206840688007F6D4206875
:100D0000016841F00101016000F088FD05460BE03B
:100D100000F084FD401B0A2806D9606A40F40030C8
:100D2000606284F82060D2E720684068C007EFD096
:100D3000207E0128206801683DD021F080010160FB
:100D4000607E01282068016838D021F040010160F0
:100D5000A07E01282068016833D021F020010160C5
:100D6000E07E0128206801682ED041F0100101606A
:100D7000207F01282068016829D021F00801016046
:100D8000607F01282068016824D021F004010160FF
:100D9000D4E902010843D4E904121143084361680D
:100DA000491E08432168C86100206062012084F860
:100DB0002000002070BD41F08001C0E741F04001FB
:100DC000C5E741F02001CAE721F01001CFE741F06B
:100DD0000801D4E741F00401D9E70000F0B587B07D
:100DE000044614216846FFF735FA2E4B2E48DFF8EB
:100DF000B0E01968D4F800C02B4A03250226092761
:100E000010300024491CF4451AD11960012907D17A
:100E1000016841F000710160006800F00070059009
:100E2000106840F0080010601068CDE9005600F02E
:100E30000800CDE9047069461C48CDE902452BE065
:100E4000DFF86CE0F44529D1D0F800C04CF0806C9C
:100E5000C0F800C0D0F800C001290CF0806CCDF8BB
:100E600014C0196007D1016841F000710160006889
:100E700000F000700590106840F0020010601068EB
:100E800002AB00F0020005904FF44050CDE900069F
:100E900083E8B0006946074800F0E2FB07B0F0BD08
:100EA000006400400800002030380240000C02407E
:100EB000006800400004024070477047704770B5FA
:100EC00003460024002500BF5879012801D10220E3
:100ED00070BD0120587100BF0220187118680468A5
:100EE00040F6FE7090408443D1E9000640EA0605D2
:100EF00005FA02F004431868046018680668C02008
:100F000090408643186806600120187100BF0020D9
:100F1000587100BF00BFDBE770477047704710B5DE
:100F200004460CB9012010BD207920B90020607161
:100F3000204600F009F802202071002020610120E5
:100F400020710020EFE700002DE9F04F87B0064642
:100F500014216846FFF77EF92E493068884256D141
:100F60002D480025016841F000510160006800F043
:100F70000050059028481038016841F001010160D7
:100F80000068694600F001000590302000900320C1
:100F9000CDE90105214800F063FB224C20484FF0C9
:100FA00060674FF0400884E881014FF40069001544
:100FB000C4F81490C4E9035004F11801C0004FF4C0
:100FC000807A4FF4803B656281E8010C204600F096
:100FD0006DFA08B1FFF776FCB460A663114C1048B7
:100FE0006034183084E881010015C4F81490C4E915
:100FF000035004F11801C000656281E8010C20462D
:1010000000F054FA08B1FFF75DFCF460A66307B086
:10101000BDE8F08F007400404038024000000240FC
:10102000886002401C1001202DE9F04704460D465F
:1010300016469846089F4FF0000900BF60790128C6
:1010400002D10220BDE8F0870120607100BF0220BC
:10105000207115BB3648A168C8633648A16808648A
:101060003548A168C8642068006840F48050216851
:10107000086027B1042F06D0082F0CD107E02068A4
:1010800000F1080908E0206800F10C0904E020687C
:1010900000F1100900E000BF22E02848E168C863C1
:1010A0002748E16808642748E168C8642068006848
:1010B00040F080502168086027B1042F06D0082F27
:1010C0000CD107E0206800F1140908E0206800F165
:1010D000180904E0206800F11C0900E000BF00BF0F
:1010E00065B92068006840F40050216808604346F4
:1010F0004A463146A06800F04FFA0BE020680068CD
:1011000040F000502168086043464A463146E06896
:1011100000F042FA206800680121A94008432168D4
:10112000086000BF0020607100BF00BF8AE70000B8
:101130001D070008710700083F0700082F07000877
:101140007F0700085907000870B504460D460026C1
:10115000206800684FF48051A940884321680860E6
:10116000206801680120A84081432068016025B9FA
:10117000A06800F00EF8064603E0E06800F009F809
:10118000064616B10420207101E00120207130468E
:1011900070BD70B50446A56D00F040FB064694F89E
:1011A0003500022808D08020606500BF002084F848
:1011B000340000BF012070BD2068006820F01600D8
:1011C000216808602068406920F08000216848613B
:1011D000206C08B9A06C28B12068006820F00800D5
:1011E000216808602068006820F00100216808601C
:1011F0000FE000F013FB801B05280AD92020606552
:1012000000BF002084F8340000BF032084F83500BC
:10121000D1E72068006800F001000028E9D194F8C7
:101220005C103F208840A86000BF002084F8340094
:1012300000BF012084F835000020BCE7014691F88A
:101240003500022803D08020486501207047052022
:1012500081F835000868006820F001000A68106015
:101260000020F3E7014691F835007047F8B50446D1
:10127000002000908C4800684FF41651B0FBF1F745
:10128000A56D2E6894F85C1008208840304098B115
:101290002068006800F0040070B12068006820F049
:1012A00004002168086094F85C1008208840A86059
:1012B000606D40F00100606594F85C10012088408A
:1012C000304068B12068406900F0800040B194F877
:1012D0005C1001208840A860606D40F002006065ED
:1012E00094F85C1004208840304068B120680068A1
:1012F00000F0020040B194F85C1004208840A8601F
:10130000606D40F00400606594F85C101020884027
:10131000304078B32068006800F0080050B394F8BB
:101320005C1010208840A8602068006800F48020CD
:1013300080B12068006800F4002028B9206CC8B192
:101340002046216C884715E0A06C98B12046A16C1E
:1013500088470FE02068006800F4807028B9206892
:10136000006820F0080021680860206C10B1204659
:10137000216C884794F85C10202088403040002879
:1013800065D02068006800F0100000285FD094F855
:101390005C1020208840A86094F83500052828D1EA
:1013A0002068006820F01600216808602068406905
:1013B00020F0800021684861206C08B9A06C28B139
:1013C0002068006820F008002168086094F85C102C
:1013D0003F208840A86000BF002084F8340000BF90
:1013E000012084F83500206D10B12046216D88471A
:1013F000F8BD2068006800F4802080B12068006893
:1014000000F4002028B9606C10B12046616C884758
:101410001DE0E06BD8B12046E16B884717E02068FB
:10142000006800F4807068B92068006820F010003F
:101430002168086000BF002084F8340000BF01204C
:1014400084F83500E06B10B12046E16B8847606D91
:1014500038B3606D00F00100F0B1052084F835006C
:101460002068006820F001002168086000BF009833
:10147000401C0090B84200D905E02068006800F0E8
:1014800001000028F3D100BF00BF002084F8340021
:1014900000BF012084F83500E06C10B12046E16CFB
:1014A000884700BFA4E70000780000202DE9F04144
:1014B0000446002500F0B2F9074614B90120BDE842
:1014C000F081606A00B100BF00BF002084F83400E2
:1014D00000BF022084F835002068006820F0010079
:1014E000216808600AE000F099F9C01B052805D9B9
:1014F00020206065032084F83500E0E7206800685C
:1015000000F001000028EED1206805682148054060
:10151000D4E901010843E16808432169084361698E
:101520000843A1690843E1690843216A0843054368
:10153000606A042803D1D4E90B01084305432068FD
:1015400005602068456925F00705606A0543606A03
:1015500004280DD1A06A0543E06A48B12046FFF790
:1015600045F928B140206065012084F83500A6E7E0
:10157000206845612046FFF71FF9064694F85C1085
:101580003F208840B06000206065012084F835006D
:10159000002094E73F8010F02DE9F04704460D4607
:1015A00016461F464FF00008D4F8589000BF94F834
:1015B0003400012802D10220BDE8F087012084F820
:1015C000340000BF94F8350001282BD1022084F8A4
:1015D0003500002060653B46324629462046FFF72D
:1015E0005AF994F85C103F208840C9F80800206838
:1015F000006840F01600216808602068406940F0EB
:10160000800021684861206C28B12068006840F0A3
:101610000800216808602068006840F00100216827
:10162000086006E000BF002084F8340000BF4FF0DF
:1016300002084046C0E7000070B5044600F0EEF82E
:1016400006462546681C10B104480078054400BFD2
:1016500000F0E4F8801BA842FAD370BD74000020AB
:101660002DE9F84FDFF87CB100224FF001084FF070
:10167000030A4FF00F090BF1040E00BF0B6808FAC4
:1016800002F42340A3426ED14D68022D01D0122DE9
:101690000ED1D50800EB850CDCF820505607F70E6C
:1016A00009FA07F6B5430E69BE402E43CCF8206018
:1016B000066855000F790AFA05FC07F0030726EAC9
:1016C0000C06AF40374307604E68012E05D0022E4E
:1016D00003D0112E01D0122E0ED18668CF6826EAD3
:1016E0000C06AF40374387604668A6430C79C4F3C5
:1016F0000014944034434460C6688C6826EA0C06A3
:10170000AC403443C4604C68E40065D5364C256871
:1017100045F480452560246822F0030504F48044E4
:101720000094324C2E19D6F8084895072F0F09FA65
:1017300007F5AC432E4DA84201D1002524E02D4DE4
:10174000A84201D101251FE02B4DA84201D102255D
:101750001AE02A4DA84201D1032515E0284DA842E0
:1017600002D1042510E037E0264DA84201D105251D
:101770000AE0254DA84201D1062505E0234DA842E7
:1017800001D1072500E00825BD402543C6F80858CB
:10179000DBF800405D464E689C43F60300D51C43D1
:1017A0002C60DEF8004075464E689C43B60300D5B9
:1017B0001C432C600B4D08352C684E689C43F60288
:1017C00000D51C432C60074D0C352C684E689C439B
:1017D000B60200D51C432C60521C102AFFF44EAFF9
:1017E000BDE8F88F003C0140443802400030014021
:1017F000000002400004024000080240000C0240C9
:10180000001002400014024000180240001C024078
:101810000AB1816170470904FBE7000001480068D4
:10182000704700006C000020704770472DE9F05FA2
:101830000446206847692068D0F804800025C7F373
:10184000002040B1C8F3002028B145F001056FF435
:10185000807021684861C7F3402040B1C8F3002080
:1018600028B145F002056FF4007021684861C7F3A4
:10187000802068B3C8F3002050B394F83E90B4F8C9
:101880002AA094F83D60D4F830B0B9F1200F0FD100
:10189000BAF1000F0CD1212E06D0292E04D0282E0B
:1018A00006D1BBF1210F03D1204602F0BDFE0FE0AF
:1018B0006FF480602168486145F0040594F83E00AB
:1018C000102805D12068006840F400702168086085
:1018D000C7F3C02040B1C8F3002028B145F0080587
:1018E0006FF40060216848612DB1206C28432064AA
:1018F000204602F0D3F8BDE8F09F2DE9F0470546F9
:10190000002728684668D5F82C8095F83E9095F811
:101910003DA0B9F1100F02D0B9F1400F78D128687D
:1019200087692868446904F0010060B9B8F52A0F96
:1019300002D0B8F12A4F01D1012000E00020012897
:1019400001D1BDE8F08704F0010048B1C6F34020A2
:1019500030B1284602F048F8284602F082FDACE09B
:10196000C4F3C00030B1C6F3402018B1284602F0DD
:101970002FFCA2E0C4F3400030B1C6F3402018B100
:10198000284602F03AFC98E0C7F38000F8B12868D6
:10199000406800F40060B0F5006FE0D0C4F3C01000
:1019A00048B1C6F3802030B1C4F3800018B928468E
:1019B00002F068FB81E0C4F3800000287DD0C6F30C
:1019C0004020002879D0284602F00CFB75E02868FA
:1019D000406800F40060B0F5006F6ED0C4F3801072
:1019E00048B1C6F3802030B1C4F3800018B928464E
:1019F00002F0C8F961E0C4F3800000285DD0C6F3AE
:101A00004020002859D0284602F029F955E0FFE788
:101A1000286C10B12868446903E028688769286841
:101A20004469C4F3400058B1C6F3402040B1286C6B
:101A300008B1286887693946284602F0C1FD3CE0B4
:101A4000C4F3001030B1C6F3402018B1284602F0AC
:101A50003BFE32E0BAF1210F02D0BAF1290F16D1C4
:101A6000C4F3C01048B1C6F3802030B1C4F3800085
:101A700018B9284602F081FD1FE0C4F38000E0B1F0
:101A8000C6F34020C8B1284602F06AFD15E0C4F351
:101A9000801048B1C6F3802030B1C4F3800018B97B
:101AA000284602F03AFD08E0C4F3800028B1C6F3EE
:101AB000402010B1284602F023FD00BF41E77047E7
:101AC00070B504460CB9012070BD94F83D0028B9EA
:101AD000002084F83C00204600F028FC242084F8F4
:101AE0003D002068006820F001002168086001F0D6
:101AF00067FA05465C496068884206D85B488542BB
:101B000001D2012007E0002005E05948854201D2BA
:101B1000012000E00020012800D1D5E75548B5FBA1
:101B2000F0F62068406820F03F00304321684860AC
:101B30004D496068884201D8701C07E04FF49670E8
:101B400070434FF47A71B0FBF1F0401C2168096AD0
:101B500021F03F01084321680862434960688842D8
:101B600014D8681E61684900B0FBF1F0401CC0F356
:101B70000B00042801D204203DE0681E6168490082
:101B8000B0FBF1F0401CC0F30B0034E0A06838B9A2
:101B9000681E616801EB4101B0FBF1F0401C0AE0F6
:101BA000681E616801EBC10202EB0111B0FBF1F0AC
:101BB000401C40F48040C0F30B0008B901201AE03B
:101BC000A06848B9681E616801EB4101B0FBF1F003
:101BD000401CC0F30B000CE0681E616801EBC10201
:101BE00002EB0111B0FBF1F0401CC0F30B0040F41C
:101BF000804040F400402168C9694CF6FF7291436F
:101C000008432168C861D4E90701084321680968CD
:101C100021F0C001084321680860D4E9031008439B
:101C20002168896848F2FF3291430843216888603F
:101C3000D4E9050108432168C96821F0FF01084380
:101C40002168C8602068006840F0010021680860D1
:101C500000202064202084F83D000020206384F8C8
:101C60003E0000BF30E70000A086010080841E0017
:101C700000093D0040420F007047000010B50446C7
:101C80000648844209D10649098801EB81020449CA
:101C9000091D01EBC20005F043F910BDDC10012065
:101CA0009C03002010B504460648844209D1064929
:101CB000098801EB81020449091D01EBC20005F00E
:101CC0002FF910BDDC1001209C0300202DE9F84302
:101CD0000446894617469846089EFFF79FFD05462D
:101CE00094F83D0020287DD119230122B2492046D5
:101CF000009502F0DDFD10B10220BDE8F88300BFC1
:101D000094F83C00012801D10220F6E7012084F874
:101D10003C0000BF2068006800F0010028B920687E
:101D2000006840F00100216808602068006820F425
:101D3000006021680860222084F83D00102084F8AB
:101D40003E00002020646762A4F82A80608D208510
:101D50009A48E0622B4632464946204602F064F833
:101D600008B10120C9E7208D88B900BF002000908C
:101D700020684069009020688069009000BF00BF23
:101D80002068006840F400702168086047E0208DFA
:101D9000012817D12068006820F48060216808605D
:101DA00000BF002000902068406900902068806992
:101DB000009000BF00BF2068006840F400702168F8
:101DC00008602CE0208D022818D12068006820F4DB
:101DD0008060216808602068006840F40060216825
:101DE000086000E0E6E000BF002000902068406945
:101DF000009020688069009000BF10E020680068B3
:101E000040F480602168086000BF002000902068D6
:101E10004069009020688069009000BF00BFBAE070
:101E2000208D03287ED8208D012815D12A463146E1
:101E3000204602F0E2FD08B101205EE7206800695B
:101E4000616A0870606A401C6062208D401E2085B7
:101E5000608D401E60859EE0208D02282AD1334689
:101E6000002257492046009502F022FD08B10120CA
:101E700043E72068006840F400702168086020682B
:101E80000069616A0870606A401C6062208D401EB3
:101E90002085608D401E608520680069616A087039
:101EA000606A401C6062208D401E2085608D401E4F
:101EB000608570E03346002241492046009502F0DB
:101EC000F7FC08B1012018E72068006820F4806062
:101ED0002168086020680069616A0870606A401CB7
:101EE0006062208D401E2085608D401E60853346D7
:101EF000002233492046009502F0DAFC08B10120A7
:101F0000FBE62068006840F40070216808602068E3
:101F10000069616A0870606A401C6062208D401E22
:101F2000208500E010E0608D401E6085206800691B
:101F3000616A0870606A401C6062208D401E2085C6
:101F4000608D401E608526E02A463146204602F01C
:101F500054FD08B10120D0E620680069616A08706C
:101F6000606A401C6062208D401E2085608D401E8E
:101F7000608520684069C0F3800060B12068006916
:101F8000616A0870606A401C6062208D401E208576
:101F9000608D401E6085208D00287FF441AF202099
:101FA00084F83D00002084F83E0000BF84F83C0027
:101FB00000BFA2E60220A0E6020010000000FFFF22
:101FC0000400010038B504460020009094F83D005C
:101FD000202871D1394800681925B0FBF5F04FF47D
:101FE0007A75B0FBF5F000EBC00505EB0010009032
:101FF00000BF0098401E0090009890B90020206318
:10200000202084F83D00002084F83E00206C40F041
:102010002000206400BF002084F83C0000BF0120A5
:1020200038BD20688069C0F340000028E1D100BFBE
:1020300094F83C00012801D10220F1E7012084F846
:102040003C0000BF2068006800F0010028B920684B
:10205000006840F00100256828602068006820F4CE
:10206000006025682860222084F83D00102084F854
:102070003E000020206462626385608D20851048E8
:10208000E06261642068006840F480602568286030
:102090002068006840F480702568286000BF002038
:1020A00084F83C0000BF2068406840F4E060256888
:1020B00068600020B4E7FFE70220B1E77800002065
:1020C0000000FFFF2DE9F8430446894616461F46E7
:1020D000DDF82080FFF7A2FB054694F83D0020289C
:1020E0007ED11923012251492046009502F0E0FBE0
:1020F00010B10220BDE8F88300BF94F83C0001282D
:1021000001D10220F6E7012084F83C0000BF2068DE
:10211000006800F0010028B92068006840F0010064
:10212000216808602068006820F400602168086069
:10213000212084F83D00102084F83E000020206417
:1021400066626785608D20853948E0622B4642468D
:102150004946204601F0F0FE08B10120CAE700BF61
:1021600000200090206840690090206880690090FD
:1021700000BF00BF44E02A464146204602F07DFCF5
:1021800050B1206C042805D12068006840F400702C
:10219000216808600120ADE7606A00782168086165
:1021A000606A401C6062608D401E6085208D401E0C
:1021B000208520684069C0F3800070B1208D60B137
:1021C000606A007821680861606A401C6062608D06
:1021D000401E6085208D401E20852A46414600E035
:1021E00022E0204602F036FB50B1206C042805D1D5
:1021F0002068006840F4007021680860012079E7D9
:10220000208D0028B7D12068006840F40070216854
:102210000860202084F83D00002084F83E0000BFC4
:1022200084F83C0000BF65E7022063E7020010006D
:102230000000FFFF38B504460020009094F83D00F0
:1022400020286AD1364800681925B0FBF5F04FF414
:102250007A75B0FBF5F000EBC00505EB00100090BF
:1022600000BF0098401E0090009890B900202063A5
:10227000202084F83D00002084F83E00206C40F0CF
:102280002000206400BF002084F83C0000BF012033
:1022900038BD20688069C0F340000028E1D100BF4C
:1022A00094F83C00012801D10220F1E7012084F8D4
:1022B0003C0000BF2068006800F0010028B92068D9
:1022C000006840F00100256828602068006820F45C
:1022D000006025682860212084F83D00102084F8E3
:1022E0003E000020206462626385608D20850D4879
:1022F000E06261642068006840F4807025682860AE
:1023000000BF002084F83C0000BF2068406840F413
:10231000E060256868600020BAE70220B8E70000A6
:10232000780000200000FFFF7047704710B586B0AE
:102330000446142101A8FDF78DFF23492068884237
:102340003FD100BF002000902048006840F40010FA
:102350001E4908600846006800F40010009000BFA5
:1023600000BF00BF0020009018481038006840F0FF
:1023700002001649103908600846006800F00200A3
:10238000009000BF00BFC0200190122002900120E9
:102390000390032004900420059001A90C48FFF746
:1023A0005FF9002211461F2000F08CF81F2000F07A
:1023B0007BF800221146202000F084F8202000F055
:1023C00073F806B010BD00000054004040380240D1
:1023D00000040240704770470348006803490978C9
:1023E00008440149086070476C0000207400002018
:1023F00010B50D48006840F400700B4908600846AD
:10240000006840F4806008600846006840F480700E
:102410000860032000F076F8002000F007F800F0D4
:102420002BF8002010BD0000003C024070B50446AF
:102430000E4800784FF47A71B1FBF0F00C4909684E
:10244000B1FBF0F5284600F0E1FF08B1012070BDB6
:10245000102C07D200222146501E00F033F8054808
:10246000046001E00120F2E70020F0E774000020A2
:1024700078000020700000200A4808B5016841F487
:1024800080410160006800F4804000900548001F12
:10249000016841F080510160006800F080500090B8
:1024A00008BD000044380240002809DB00F01F028C
:1024B000012191404009800000F1E020C0F80011A6
:1024C00070470000F0B40E4B1B680C46C3F30223A8
:1024D000C3F10705042D00D90425191D072901D2D0
:1024E000002300E0DB1E012606FA05F1491E21400B
:1024F00099409E40761E16403143F0BC04F0C4BCA7
:102500000CED00E0064900F0070208684FF6FF03F3
:10251000184040EA0220034A104308607047000058
:102520000CED00E00000FA057047006841620020F1
:102530007047F0B50368586A39B19C6A4FF48276E7
:1025400000EB144400204D1E0AE040EA024098626D
:102550000FE006EB8007DF59401C04EB1744C0B2C4
:10256000A842F6D344EA02404FF4807202EB8101A4
:1025700058500020F0BDD0F8040403F0C0BCC1EBFB
:10258000C10200EB8202D0F80404926C03F013BC89
:10259000C1EBC10200EB8202D0F80404D2F8082299
:1025A00003F06CBCD0F8040403F0ABBC70B5044677
:1025B0000B0601F00F00C0EBC00104EB81014FF0EE
:1025C00001024FF0000503D581F83D203C3103E0C6
:1025D00081F8FD5101F5FE71087094F8BC030128E3
:1025E00008D084F8BC23206804F002F884F8BC53B7
:1025F000002070BD022070BD70B5044601F00F00D0
:102600006268904201D9012070BD0B0601F00F01F4
:10261000C1EBC10104EB81014FF001024FF0000555
:1026200003D581F83D203C3103E081F8FD5101F5EF
:10263000FE718D70087094F8BC03012808D084F8EE
:10264000BC23206804F0B0F984F8BC53002070BDAE
:10265000022070BD01F00F01C1EBC10100EB810050
:10266000D0F8140270472DE9F04104460F0601F03E
:102670000F00C0EBC00104EB81014FF001064FF0E9
:10268000000503D581F83D603C3103E081F8FD5140
:1026900001F5FE7108708A60CB704A7802B1C8807B
:1026A000022B00D10D7194F8BC03012809D084F8E5
:1026B000BC63206803F0ECFE284684F8BC53BDE8F8
:1026C000F0810220FBE770B50C4601F00F05C5EB69
:1026D000C50100EB8101C1F81032C1F808220023C6
:1026E000C1F8143281F8FD3181F8FC51036901F51C
:1026F000FE71012B00D10A612207027C006803D021
:1027000004F0AAF9002070BD04F096F8FAE770B55D
:1027100004460D4601F00F006168884201D901208E
:1027200070BD29064FF000064FF0010207D5C0EB3F
:10273000C00104EB810181F83D203C3107E0C5EB8D
:10274000C50104EB810181F8FD6101F5FE718A701C
:10275000087094F8BC03012807D084F8BC232068D3
:1027600004F04EF9280702D007E0022070BD217C5A
:1027700004F57172206804F0EBF884F8BC63002063
:1027800070BD70B50C4601F00F05C5EBC50100EB3F
:1027900081010B658A6400234B65012381F83D307C
:1027A00001F83C5F0369012B00D10A612207027C1A
:1027B000006803D004F050F9002070BD04F03CF82C
:1027C000FAE700002DE9FC5F05680446284604F09E
:1027D0006CFA00287ED1206804F093FA002879D0A2
:1027E000206804F08EFA800704D52068416901F062
:1027F00002014161206804F084FA010304F571705C
:102800004FF0010A4FF0080B009075D500262068A4
:1028100004F056FA0746DFF808946BE0F80767D033
:10282000F1B2206804F065FA8046C00707D005EBD6
:102830004611C1F808AB3146204602F077FC5FEA4A
:10284000087032D52068016C00EB46100191D0F879
:10285000081B2269012A019A0FD0F24B9A4214D127
:10286000090403D54FF40041C0F8081B204600F0CE
:10287000C9FA206901280FD013E04A4505D9090497
:1028800003D54FF40041C0F8081B204600F0BAFA07
:1028900001984845EDD804E020680121009A04F031
:1028A00057F805EB4611C1F808BB5FEAC86004D5CC
:1028B00005EB46111020C1F8080B5FEA88600ED5C1
:1028C0002069012804D120680121009A04F040F811
:1028D000202100E0A1E105EB4610C0F8081B5FEAEB
:1028E000884005D505EB46104FF40051C0F8081B91
:1028F0007F08761C002F91D1206804F002FA400373
:102900004FF000095FD5206804F0D3F90746002690
:1029100057E0F80753D0F1B2206804F0D8F98046A8
:10292000C00726D006F00F020AFA02F0D5F83428C4
:102930008243C5F8342805EB4610C0F808A9206981
:10294000012807D1C6EBC60004EB8000D0E91121B5
:1029500011448164F1B22046FFF711FE206901287D
:1029600007D136B9206D20B920680121009A03F003
:10297000EFFF5FEA087003D505EB4611C1F808B90F
:102980005FEAC86004D505EB46111020C1F80809BC
:102990005FEA486004D505EB46104021C0F80819ED
:1029A0005FEA887004D505EB46100221C0F80819CB
:1029B0005FEA086003D53146204602F025FC7F0817
:1029C000761C002FA5D1206804F09BF9002811DAAD
:1029D000D5F8040820F00100C5F8040894F8F403C1
:1029E00001282BD0204600F0F1F92068416901F060
:1029F00000414161206804F084F900050BD5D5F849
:102A00000808C00702D0204600F024FA2068416977
:102A100001F400614161206804F073F9C00461D5DC
:102A2000D5F8040820F00101C5F804181021206829
:102A300004F01CF900214FF67F321AE084F8F49379
:102A400000212046FFF770FDCFE700BF05EB4110E6
:102A5000C0F80829D0F8003923F40013C0F8003971
:102A6000C0F8082BD0F8003B23F40013C0F8003B5B
:102A7000491C60688842E9D8D5F81C0840F001116B
:102A8000C5F81C18206B002828460DD0D0F8840803
:102A900040F00B00C5F88408D5F8440840F00B015D
:102AA0002846C5F844180DE0D0F8140842F22B016E
:102AB0000843C5F81408D5F8100840F00B01284663
:102AC000C5F81018D0F8000820F4FE61C5F8001809
:102AD000217C2068009A03F03BFF2068416901F4E3
:102AE00080514161206804F00CF9800415D52068FC
:102AF00003F00EFD206804F0CBF8E06000F05AFA15
:102B00000146227B206804F037F9204600F048F99E
:102B10002068416901F400514161206804F0F1F836
:102B2000C00634D52068816921F0100181612F6AC7
:102B300007F00F00C0EBC00004EB8006C7F3434072
:102B400006F5FE76022802D0062811D01AE047F6D4
:102B5000F070074216D0C7F30A1217462846F168EC
:102B600004F0D3F8F0683844F060B069384408E005
:102B700008222846009904F0C8F8B069C7F30A1182
:102B80000844B0612168886940F0100088612068BD
:102B900004F0B7F8000707D5204600F01BF92168BC
:102BA000486900F008004861206804F0AAF8C002F3
:102BB00008D50021204600F037F82168486900F464
:102BC00080104861206804F09CF8800208D500213C
:102BD000204600F02DF82168486900F40010486193
:102BE000206804F08EF8400007D52046FFF7C3FCAC
:102BF0002068416901F080414161206804F081F85A
:102C000040070AD520684568680702D52046FFF7C7
:102C1000C9FC2068416829434160BDE8FC9F000071
:102C20000A30544F0A31544FD0F8040403F0B8B9B5
:102C3000D0F8040403F0B6B92DE9F0418AB00400DD
:102C400005D094F8BD032668002520B108E00120D6
:102C50000AB0BDE8F08184F8BC53204600F05EF86D
:102C6000032084F8BD03F06BC00500D42561206803
:102C700003F0DCFD04F11001282288466846FDF7C8
:102C8000D0FA94E80F0003F05DFC0226C8BB0021D7
:102C9000206804F048F8002001270EE0C0EBC001D6
:102CA00004EB810181F83D7001F83C0FC880CD70C4
:102CB0008D60CD60401CC0B24D6161688142EDD82D
:102CC000002011E0C0EBC00104EB810181F8FD514F
:102CD00081F8FC0181F8FF51C1F80452C1F8085293
:102CE000401CC0B2C1F8105261688142EAD8282263
:102CF00041466846FDF795FA94E80F0003F0D0FCD2
:102D000010B184F8BD63A2E784F8385084F8BD732D
:102D1000206803F0B9FC00209AE7000010B586B0E7
:102D2000044614216846FDF795FA2068B0F1A04FDB
:102D30002FD119480021026842F0010202600068A8
:102D400000F0010005904FF4C05000900220CDE942
:102D50000101032003900A20049069460F48FEF702
:102D60007FFC0D48001D016841F0800101600A48A8
:102D70001430016841F4804101600068002200F4D1
:102D80008040059011464320FFF79CFB4320FFF74E
:102D90008BFB06B010BD000030380240000002403E
:102DA00070B50446C068012570B1022801D0FDF756
:102DB00089FD2946D4F8040403F045F9D4F8040445
:102DC000BDE8704003F005B90025F2E7D0F804042F
:102DD00003F027B9D0F8040403F029B910B504466C
:102DE00090F8BC0301280BD0012084F8BC0384F8C0
:102DF0003810206803F0AEFF002084F8BC0310BD3B
:102E0000022010BDD0F8042400F57171104603F0C3
:102E100026B910B50446006894F8BC13012906D001
:102E2000012184F8BC13A16A012902D008E0022024
:102E300010BDA169012903D0816B41F48031816308
:102E4000206803F015FC206803F0FAFE002084F8E7
:102E5000BC0310BD10B50446D0F8040403F03EF9DD
:102E60002068D0F8001E41F00101C0F8001E206A61
:102E7000002804D00248016841F00601016010BD3D
:102E800010ED00E02DE9F0470E46050065D0DFF8B3
:102E90001481D8F80000F7B200F00F00B04207D25A
:102EA00088F80070D8F8000000F00F00B04254D14C
:102EB00028683D4C810712D5400703D5206840F4AF
:102EC000E05020602878000703D5206840F4604077
:102ED00020602068A96820F0F0000843206028786E
:102EE000C0072DD0304968680839012812D002285F
:102EF00013D0032811D00968890700292DDA216829
:102F000021F0030101432160FEF788FC814641F274
:102F1000883A0EE009688903EFE709688901ECE760
:102F2000FEF77CFCA0EB0901514502D90320BDE866
:102F3000F0872068696800F00C00B0EB810FEFD1DA
:102F4000D8F80010404601F00F01B14207D90770D0
:102F5000006800F00F00B04201D00120E7E72878B8
:102F6000400705D52068E96820F4E0500843206058
:102F70002878000706D52068296920F4604040EAD7
:102F8000C100206000F03CF82168084AC1F3031139
:102F9000515CC840064908600020FFF747FA00204E
:102FA000C5E70000003C024008380240BC7700083A
:102FB0007800002001480068704700007800002079
:102FC0000448054900680968044AC1F38221515C3C
:102FD000C84070477800002008380240CC770008CD
:102FE0000448054900680968044AC1F34231515C4C
:102FF000C84070477800002008380240CC770008AD
:10300000154810B5006810F00C02144813D014498C
:10301000042A0FD0082A0ED10F4C241F22682368DF
:1030200002F03F025B0207D52068C0F38810A0FBC6
:10303000010106E0084610BD2168C1F38811A1FB1B
:1030400000010023FDF7BCF82168C1F30141491CD0
:103050004900B0FBF1F010BD083802400024F40034
:1030600080969800F0B51F4C16460D461D4B00216A
:1030700002220327283C0028186887B019D040F0A6
:1030800004001860186800F0040005901002009019
:10309000CDE90121CDE9037169461348FEF7E0FA55
:1030A000206845EAC60120F078400843206007B058
:1030B000F0BD40F001001860186800F001000590B4
:1030C0004FF480700090CDE90121CDE9037169468C
:1030D0000648FEF7C5FA2068354320F0EC60284327
:1030E000E4E70000303802400008024000000240DF
:1030F0002DE9F84F050076D02878DFF8F8B2BE4CFD
:10310000C00749D0DBF800105846C1F381010129FE
:1031100008D00068C0F3810002280AD1201D006891
:10312000400206D52068800336D568680028E2D0C2
:1031300032E06868B0F5803F10D0B0F5A02F20686D
:1031400010D020F480302060206820F4802020609F
:103150006868A0B1FEF762FB06460CE0206840F408
:103160008030F4E740F480202060F7E7FEF756FB5C
:10317000801B642873D820688003F7D50CE0FEF725
:103180004DFB064605E000BFFEF748FB801B6428A8
:10319000F0D820688003F7D42878DFF860828007B1
:1031A0004FF000093ED5DBF80010584611F00C0F27
:1031B00009D00068C0F3810002280BD18D48001FA0
:1031C0000068400206D42068800715D5E868012809
:1031D00009D111E0E868B8B10120C8F80000FEF795
:1031E0001DFB064605E002E1FEF718FB801B0228E6
:1031F000C0D820688007F7D52068296920F0F8003A
:1032000040EAC10020600DE0C8F80090FEF706FB20
:10321000064604E0FEF702FB801B02281FD8206848
:103220008007F7D42878000722D5724E7448696960
:103230006C3671B101210160FEF7F0FA074604E037
:10324000FEF7ECFAC01B022809D830688007F7D5D2
:103250000EE0C0F80090FEF7E1FA074605E083E0D3
:10326000FEF7DCFAC01B02287ED830688007F7D44E
:103270002878400768D5DFF87CA100270AF1380AD2
:10328000DAF80000C0000BD4DAF8001041F08051E9
:10329000CAF80010DAF80000012700F08050009012
:1032A000584E3068C00510D4306840F480703060EB
:1032B000FEF7B4FA009005E0FEF7B0FA0099401A64
:1032C000022851D83068C005F6D54A4EA86868363D
:1032D00001280FD00528306810D020F001003060A0
:1032E000306820F004003060A868B8B1FEF796FAA4
:1032F00000900FE0306840F00100F4E740F0040077
:103300003060F7E7FEF78AFA0099411A41F28830F7
:10331000814264D830688007F4D50EE0FEF77EFA6B
:10332000009007E0FEF77AFA0099411A41F28830DE
:10333000814254D830688007F4D42FB1DAF80010F5
:1033400021F08051CAF80010A869C0B3DBF8001062
:10335000C1F3810102294AD00228484607D0C8F8A3
:103360006000FEF75BFA00E039E005463AE04746C8
:10337000C8F86000FEF752FA064604E0FEF74EFA7F
:10338000801B02282BD820688001F7D4D5E90701DB
:103390000843A96A1C4A490802EB01416A6A41EAEA
:1033A0008211084395F82C1040EA01611148001F72
:1033B000016001203866FEF731FA054605E014E0A9
:1033C000FEF72CFA401B022809D820688001F7D5A7
:1033D0000BE000BFFEF722FA401B022802D90320AF
:1033E000BDE8F88F20688001F4D40020F8E70120C0
:1033F000F6E700000838024000380240000047426B
:10340000800E4742007000400000FFFF10B5401ED4
:10341000B0F1807F01D3012010BD4FF0E024606146
:103420000F21601703F030FD0020A061072020610C
:10343000002010BD7047704770B590F83C20012AFD
:1034400019D0012400F83C4F0222427050F83C3C55
:103450005A689D6822F070060A684968324325F070
:10346000800529435A6050F83C2C9160447000213B
:103470000170084670BD022070BD10B5040003D075
:1034800094F83D0010B107E0012010BD002084F841
:103490003C00204600F00CF8022084F83D00211D7D
:1034A000206801F0A3FF012084F83D00002010BD3A
:1034B00038B504463A49206888420FD100BF002041
:1034C00000903848006840F001003649086008461E
:1034D000006800F00100009000BF60E03249206801
:1034E000884211D100BF002000902E48001F0068C4
:1034F00040F002002B49091F08600846006800F0F0
:103500000200009000BF4AE02849206888421AD192
:1035100000BF002000902348001F006840F0040016
:103520002049091F08600846006800F00400009068
:1035300000BF00BF002211461E20FEF7C3FF1E2061
:10354000FEF7B2FF2BE01A492068884211D100BF74
:10355000002000901348001F006840F00800114947
:10356000091F08600846006800F00800009000BFCE
:1035700015E010492068884211D100BF002000905A
:103580000848001F006840F010000649091F086045
:103590000846006800F01000009000BF00BF38BD72
:1035A0000000014044380240000400400008004090
:1035B000000C004000100040022180F83D1001681E
:1035C0008A6802F00702062A03D00A6842F0010264
:1035D0000A60012180F83D10002070470168CA6828
:1035E00042F00102CA600068816801F00701062903
:1035F00003D0016841F001010160002070470168BB
:10360000CA6822F00102CA600068016A41F2111220
:10361000114207D1016A9210114203D1016821F0D1
:10362000010101600020704770B5044690F83C002D
:10363000012817D0012584F83C50022084F83D0071
:103640002068826822F0770222F47F428260086854
:10365000502830D00DDC20284DD005DC98B3102840
:103660003BD148E0022070BD302844D0402834D1FE
:1036700039E0602828D0702806D0B0F5805F2CD0C3
:10368000B0F5005F29D10AE0CB68D1E901212068BB
:1036900001F010FF2068816841F0770109E0CB68F4
:1036A000D1E90121206801F005FF2068816841F41B
:1036B0008041816011E0CA684968206801F00CFF10
:1036C0005021206807E016E0CA684968206801F0C8
:1036D00014FF6021206801F0F7FE84F83D500020BF
:1036E00084F83C0070BDCA684968206801F0F4FEA7
:1036F00040212068EFE7226801461046EBE770475B
:1037000070B50446006801694FF00005C943890798
:1037100015D4C168C943890711D4E91E016101208C
:103720002077206880698007204602D0FFF7E7FFF6
:1037300004E000F098F8204600F096F8257720681D
:103740000169C943490717D4C168C943490713D45C
:103750006FF004010161022020772068806910F475
:10376000407F204602D0FFF7CAFF04E000F07BF85C
:10377000204600F079F8257720680169C9430907D8
:1037800016D4C168C943090712D46FF0080101615A
:10379000042020772068C0698007204602D0FFF708
:1037A000AEFF04E000F05FF8204600F05DF82577FA
:1037B00020680169C943C90617D4C168C943C9064D
:1037C00013D46FF010010161082020772068C069D0
:1037D00010F4407F204602D0FFF791FF04E000F094
:1037E00042F8204600F040F8257720680169C94377
:1037F000C90708D1C168C943C90704D1891E01613D
:10380000204600F032F820680169C943090609D44E
:10381000C168C943090605D46FF0800101612046E3
:10382000FFF708FE20680169C943490609D4C16849
:10383000C943490605D46FF040010161204600F0FC
:1038400015F820680169C94389060BD4C168C943CA
:10385000890607D46FF0200101612046BDE8704061
:10386000FFF7E9BD70BD704770477047704770B58E
:10387000040004D094F83900002510B106E00120BE
:1038800070BD84F83850204600F022F8242084F8D7
:1038900039002068C16821F40051C160204601F060
:1038A0003FFE2068016921F490410161206841696F
:1038B00021F02A0141612068C16841F40051C160D2
:1038C000E563202084F8390084F83A00002070BDB8
:1038D0002DE9F04186B0044614216846FCF7BAFC95
:1038E0002649254B22682548103902240125032644
:1038F0000727DFF88C809A4211D1026842F4003227
:103900000260006800F400300590086840F008008C
:103910000860086800F008000590602023E0194B5B
:103920009A4226D1026842F480220260006800F4C4
:1039300080200590086840F002000860086800F0E8
:1039400002000590086840F00800086008686946B1
:1039500000F008000590D8148DE8F1000A48FDF742
:103960007FFE4FF480708DE8F10069464046FDF718
:1039700077FE06B0BDE8F0810044004040380240C8
:10398000000C0240004800400004024000BFFEE777
:1039900000B585B04FF480500090012001900220C6
:1039A0000290039069460748FDF75AFE00224FF443
:1039B00080510448FDF72CFF4FF47A70FDF73CFE70
:1039C00005B000BD0000024010B50248FDF72EFF13
:1039D00010BD0000DC10012010B50248FDF78DFF7E
:1039E00010BD0000DC100120C16AB1F52A0F02D120
:1039F0000121C16205E0C16AB1F12A4F01D108215C
:103A0000C162704770B50546AC6B94F83D6000200C
:103A1000616BC863A16BC8632068006820F4806094
:103A20002168086000206085616B0865A16B0865EE
:103A30002068006820F001002168086094F83D00CB
:103A400060280AD1202084F83D00002084F83E0040
:103A500020642046FDF7E8FE1EE006F02800282836
:103A600011D12068006840F00100216808602068DA
:103A7000006840F4806021680860002020632820EE
:103A800084F83D0005E0202084F83D00002084F803
:103A90003E002046FEF713F870BD000070B50446E6
:103AA00094F83D5094F83E00102807D1222D05D1FE
:103AB0002068006820F400602168086005F0280094
:103AC000282805D100202063282084F83D000FE03D
:103AD0002068406800F40060B0F5006F04D0602DED
:103AE00002D0202084F83D000020206384F83E00AE
:103AF0002068406800F40060B0F5006F40D1206895
:103B0000406820F4006021684860606B90F83500E0
:103B1000012814D04048616B0865606BFDF78EFB8F
:103B200000285BD02068006820F001002168086050
:103B3000202084F83D00606B016D88474EE03648D8
:103B4000A16B0865A06BFDF779FB002846D02068C3
:103B50004069C0F3801030B120680069616A087064
:103B6000606A401C60622068006820F001002168E3
:103B70000860202084F83D00A06B016D88472DE08F
:103B800094F83D0060281AD1202084F83D000020E0
:103B9000206420684069C0F3801030B1206800695B
:103BA000616A0870606A401C60622068006820F0EA
:103BB0000100216808602046FDF736FE0EE020680F
:103BC0004069C0F3801030B120680069616A0870F4
:103BD000606A401C60622046FDF771FF94F83D501A
:103BE000206C00F00400042814D1282D12D1206884
:103BF000406820F4E060216848600848E0620020E6
:103C00002063202084F83D00002084F83E002046F8
:103C1000FEF732F870BD0000053A00080000FFFF13
:103C2000014608684069C0F38020B0B16FF480603D
:103C30000A68506100200863202081F83D000020C0
:103C400081F83E00086C40F00400086400BF0020CA
:103C500081F83C0000BF012070470020FCE770B5F0
:103C60000446E56A608D042810D12068406820F47D
:103C700080602168486020680069616A0870606A35
:103C8000401C6062608D401E60857AE0608D032874
:103C90001AD12068406820F4806021684860042DB3
:103CA00007D0022D05D02068006820F480602168CC
:103CB000086020680069616A0870606A401C606280
:103CC000608D401E60855CE0608D02284FD1012D23
:103CD00001D0102D06D12068006820F48060216892
:103CE000086012E0042D01D0022D06D12068006882
:103CF00040F480602168086007E0102D05D020683E
:103D0000006840F400702168086020680069616AFA
:103D10000870606A401C6062608D401E608520688B
:103D20000069616A0870606A401C6062608D401EB4
:103D300060852068406820F4407021684860202039
:103D400084F83D0094F83E00402807D1002084F814
:103D50003E0020632046FEF7E7FA12E0002084F8D8
:103D60003E00122020632046FDF788FF09E020680E
:103D70000069616A0870606A401C6062608D401E64
:103D8000608570BD70B5044694F83D0022284AD184
:103D9000658D032D13D920680069616A0870606A17
:103DA000401C6062608D401E6085608D032839D1A3
:103DB0002068406820F480602168486032E0E06A52
:103DC00002282FD0012D00D01DBB2068006820F4F0
:103DD0008060216808602068406820F4E060216805
:103DE000486020680069616A0870606A401C60620F
:103DF000608D401E6085202084F83D0094F83E00D0
:103E0000402807D1002084F83E0020632046FEF7BA
:103E10008BFA07E0002084F83E0012202063204641
:103E2000FDF72CFF00BF70BD2DE9F84304460D4699
:103E300090461E46E76A2068006840F4806021686A
:103E40000860082F04D0012F02D017F5803F06D15B
:103E50002068006840F480702168086008E0206BEA
:103E6000112805D12068006840F48070216808603E
:103E7000434600224FF001112046009600F018FD45
:103E800010B10120BDE8F8832069B0F5804F05D15D
:103E9000E8B240F00100216808613FE005F440709D
:103EA000F02141EAE0102168086133464246214989
:103EB000204600F040FD08B10120E3E7E8B22168A8
:103EC0000861334642461B49891F204600F033FDF6
:103ED00008B10120D6E700BF0020009020684069AB
:103EE000009020688069009000BF00BF20680068D3
:103EF00040F4807021680860434600224FF00111B1
:103F00002046009600F0D4FC08B10120BAE705F481
:103F10004070F12141EAE0102168086133464246D1
:103F20000449891F204600F006FD08B10120A9E7D9
:103F30000020A7E7080001002DE9F84304460D46DC
:103F400017469846E66A082E04D0012E02D016F5D0
:103F5000803F06D12068006840F4807021680860C6
:103F600008E0206B122805D12068006840F48070BA
:103F7000216808603B4600224FF001112046CDF831
:103F8000008000F095FC10B10120BDE8F8832069A5
:103F9000B0F5804F04D105F0FE002168086112E001
:103FA00005F44070F02141EAE010216808614346C1
:103FB0003A460B49204600F0BEFC08B10120E4E778
:103FC000E8B22168086143463A460549891F204600
:103FD00000F0B1FC08B10120D7E70020D5E70000D0
:103FE0000800010070B50446E56A94F83D002128F8
:103FF00047D1608D50B1606A007821680861606ABD
:10400000401C6062608D401E60853AE0082D16D02D
:10401000202D14D015F5803F11D02068406820F481
:10402000E0602168486011202063002084F83E0091
:10403000202084F83D002046FDF734FE21E0206872
:10404000406820F4E060216848602068006840F41F
:1040500000702168086000202063202084F83D0063
:1040600094F83E00402806D1002084F83E00204607
:10407000FEF75BF905E0002084F83E002046FDF7DE
:1040800011FE70BD2DE9F041044694F83D5094F8BE
:104090003E70E66A208DB0BB212D3CD1082E16D093
:1040A000202E14D016F5803F11D02068406820F4EF
:1040B000E0602168486011202063002084F83E0001
:1040C000202084F83D002046FDF7ECFD7EE02068CE
:1040D000406820F4E060216848602068006840F48F
:1040E00000702168086000202063202084F83D00D3
:1040F00094F83E00402807D1002084F83E00204676
:10410000FEF713F962E006E0002084F83E00204646
:10411000FDF7C8FD5AE0212D03D0402F56D1222DA6
:1041200054D1608D30B92068406820F480602168E7
:1041300048604BE094F83E0040283DD1206D98B98E
:10414000E06C012807D1A06CC0B221680861206D25
:10415000801C20653AE0A06CC0F30720216808614C
:10416000206D401C206531E0206D012807D1A06C36
:10417000C0B221680861206D401C206526E0206DDA
:10418000022823D194F83D00222806D12068006837
:1041900040F480702168086018E094F83D00212800
:1041A00014D1606A007821680861606A401C60620E
:1041B000608D401E608509E0606A007821680861B2
:1041C000606A401C6062608D401E6085BDE8F081C1
:1041D000416CC9B202681161416B09B9816B59B177
:1041E000416BC96B11B9816BC96B29B10168496811
:1041F00041F4006102685160704738B590F83E2084
:10420000C16A036B90F83D40222C73D1046D64B9F0
:10421000402A0AD100BF0024009404686469009415
:104220000468A469009400BF1AE1046DC4B904696C
:10423000B4F5404F14D100BF0024009404686469B1
:1042400000940468A469009400BF00BF0468246857
:1042500044F4807405682C60046D641C0465FFE000
:10426000448D8CB900BF00240094046864690094F4
:104270000468A469009400BF00BF0468246844F483
:10428000007405682C60DDE0448D012C72D111F5BD
:10429000803F30D10468246824F4806405682C6071
:1042A0000468646804F40064B4F5006F10D1046815
:1042B000246824F4806405682C6000BF0024009406
:1042C0000468646900940468A469009400BFB9E0BC
:1042D00000BF002400940468646900940468A46921
:1042E000009400BF00BF0468246844F400740568AB
:1042F0002C60A7E0A9E0082923D0202921D0122B87
:1043000001D101291DD104290AD0022908D0102980
:1043100006D00468246824F4806405682C6005E0F5
:104320000468246844F4806405682C6000BF00249D
:1043300000940468646900940468A469009400BF50
:1043400080E00468246824F4806405682C6000BF61
:10435000002400940468646900940468A4690094CB
:1043600000BF00BF0468246844F4007405682C6032
:1043700068E0FFE7448D022C3BD1042910D00229CC
:104380000ED010290CD00468246824F480640568D9
:104390002C600468246844F4006405682C6005E01F
:1043A0000468246844F4806405682C6004686468C8
:1043B00004F40064B4F5006F10D111F5803F07D00C
:1043C000012905D0082903D0102901D0202905D1C1
:1043D0000468646844F4805405686C6000BF00247D
:1043E00000940468646900940468A469009400BFA0
:1043F00028E00468246844F4806405682C6004683C
:10440000646804F40064B4F5006F10D111F5803FC6
:1044100007D0012905D0082903D0102901D020296F
:1044200005D10468646844F4805405686C6000BF7A
:10443000002400940468646900940468A4690094EA
:1044400000BF00BF002404650AE000BF0024009400
:104450000468646900940468A469009400BF00BF04
:1044600038BD90F83E1040290ED1016D29B9416C3C
:1044700001F0FE010268116141E0416CC9B241F0F6
:104480000101026811613AE00169B1F5804F20D164
:1044900090F83D10212905D1416C01F0FE01026820
:1044A000116105E0416CC9B241F00101026811617E
:1044B000416B09B9816B11B3416BC96B11B9816B48
:1044C000C96BE1B10168496841F40061026851605B
:1044D00015E0016D41B9416C01F44071F02242EAEE
:1044E000E111026811610AE0016D012907D1416CF7
:1044F00001F44071F12242EAE11102681161704752
:10450000418D49B101680969426A1170416A491CCB
:104510004162418D491E4185704770B5044694F84B
:104520003D50608DD8B120680069616A0870606A8A
:10453000401C6062608D401E6085608D78B92A2DB8
:104540000DD12068406820F48060216848602220F6
:104550002063282084F83D002046FDF73BFF70BD16
:10456000418D49B1416A097802681161416A491C6B
:104570004162418D491E4185704770B5044694F8EB
:104580003D50608DD8B1606A007821680861606A2A
:10459000401C6062608D401E6085608D78B9292D59
:1045A0000DD12068406820F4806021684860212097
:1045B0002063282084F83D002046FDF70CFF70BDE5
:1045C0002DE9F04104460D46002794F83D0000F027
:1045D000280028281CD12068406820F480602168C9
:1045E0004860C5F3800000B90127C5F3C01010B9B9
:1045F000A08986B201E0208B86B200BF002084F83B
:104600003C0000BF324639462046FDF70EF908E06F
:104610006FF002002168486100BF002084F83C0070
:1046200000BFBDE8F081000070B5044694F83D502D
:10463000E66A082E01D0202E1FD1282D1DD1214839
:10464000E0622068406820F4E060216848606FF410
:104650008060216848612068006820F480602168DB
:10466000086000202063202084F83D00002084F8AA
:104670003E002046FDF700FB23E0212D1DD111480F
:10468000E06221202063202084F83D00002084F88F
:104690003E002068406820F4E060216848606FF4C4
:1046A0008060216848612068006820F4806021688B
:1046B00008602046FDF78FFE03E06FF480602168FC
:1046C000486170BD0000FFFF38B5044694F83D50C6
:1046D0002068406820F4E0602168486000BF002046
:1046E00000902068406900902068006840F0010058
:1046F0002168086000BF00BF2068006820F4806067
:10470000216808602068406800F40060B0F5006F20
:1047100042D1222D01D02A2D1FD1A06B0068406804
:104720006085608D18B1206C40F004002064206822
:10473000406820F4006021684860A06BFCF792FD9F
:10474000012829D04148A16B0865A06BFCF776FDD4
:1047500010B3A06B016D88471EE0606B0068406875
:104760006085608D18B1206C40F0040020642068E2
:10477000406820F4006021684860606BFCF772FDBF
:10478000012809D03148616B0865606BFCF756FD64
:1047900010B1606B016D8847608D18B32068406967
:1047A000C0F3800048B120680069616A0870606ADF
:1047B000401C6062608D401E608520684069C0F3C7
:1047C000801048B120680069616A0870606A401C06
:1047D0006062608D401E6085608D18B1206C40F075
:1047E00004002064206C18B12046FFF757F92BE035
:1047F0002A2D07D100202063282084F83D00204680
:10480000FDF7E8FD94F83D0028280DD11048E0623E
:1048100000202063202084F83D00002084F83E0022
:104820002046FDF729FA0FE0206B222801D0222D27
:104830000AD100202063202084F83D00002084F865
:104840003E002046FDF7C6FD38BD0000053A0008D1
:104850000000FFFF70B504460D46164620E02046D6
:10486000FFF7DEF908B1012070BD681CC0B1FCF78C
:10487000D5FF801BA84200D895B9002020632020D6
:1048800084F83D00002084F83E00206C40F02000B9
:10489000206400BF002084F83C0000BF0120E3E753
:1048A00020684069C0F380000028D8D00020DBE7F2
:1048B0002DE9F04104460D4617461E46DDF81880E6
:1048C0001CE0701CD0B1FCF7A9FFA0EB0800B042BF
:1048D00000D89EB900202063202084F83D000020ED
:1048E00084F83E00206C40F02000206400BF0020CF
:1048F00084F83C0000BF0120BDE8F081C5F307400B
:1049000001280AD120684069A9B20840A9B28842AA
:1049100001D101200BE0002009E020688069A9B2E4
:104920000840A9B2884201D1012000E00020B8422D
:10493000C7D00020E0E72DE9F04104460D461646B9
:104940001F463DE020684069C0F38020E8B1206840
:10495000006840F40070216808606FF4806021688E
:10496000486100202063202084F83D00002084F866
:104970003E00206C40F00400206400BF002084F85A
:104980003C0000BF0120BDE8F081701CC0B1FCF705
:1049900045FFC01BB04200D896B9002020632020FC
:1049A00084F83D00002084F83E00206C40F0200098
:1049B000206400BF002084F83C0000BF0120E2E733
:1049C000C5F3074001280AD120684069A9B2084010
:1049D000A9B2884201D101200BE0002009E0206843
:1049E0008069A9B20840A9B2884201D1012000E043
:1049F00000200028A6D00020C5E770B504460D466B
:104A0000164632E020684069C0F30010A0B16FF094
:104A100010002168486100202063202084F83D00B8
:104A2000002084F83E00206C206400BF002084F841
:104A30003C0000BF012070BDFCF7F0FE801BA842C7
:104A400000D895B900202063202084F83D00002084
:104A500084F83E00206C40F02000206400BF00205D
:104A600084F83C0000BF0120E5E720684069C0F3FE
:104A700080100028C6D00020DDE770B504460D4642
:104A8000164620E02046FFF7CBF808B1012070BDA4
:104A9000681CC0B1FCF7C2FE801BA84200D895B9C3
:104AA00000202063202084F83D00002084F83E0090
:104AB000206C40F02000206400BF002084F83C00FF
:104AC00000BF0120E3E720684069C0F3C010002860
:104AD000D8D00020DBE70000F0B500230A24302501
:104AE00037261F4611E000BFB4EB107F02D905EB5B
:104AF000107C01E006EB107C01F813C001EB430CC5
:104B000000015B1C8CF80170DBB29342ECD3F0BD6A
:104B100070B5094DFF22134605F5807606E000BF0B
:104B200010F8014B54402A5D5A40335D491EC9B20A
:104B3000F6D242EA032070BD910100207FB5002526
:104B40003848009501950295354903950160012487
:104B50004FF480310461C0E90115047680F82050DB
:104B60003149C0E90A150826C661C56080F83040A1
:104B70004461FBF752FF08B1FBF7A4FECDE90054F6
:104B80000325694627480295FBF79EFE08B1FBF70F
:104B900099FE00940224694622480194FBF794FE92
:104BA00008B1FBF78FFE69461E48CDE90045FBF7CB
:104BB0008BFE08B1FBF786FE0424CDE9005469465C
:104BC0001848FBF781FE08B1FBF77CFE0094052432
:104BD000694614480194FBF777FE08B1FBF772FEB3
:104BE0000094062469460F480194FBF76DFE08B156
:104BF000FBF768FE0094072469460A480194FBF716
:104C000063FE08B1FBF75EFECDE900466946054844
:104C1000FBF75AFE002801D0FBF754FE7FBD0000D1
:104C200000220140100F01200100000F0D4810B5B7
:104C30000B4901601021416000218160C160016168
:104C40004161017641768176C17601774177FCF743
:104C500037F8002803D0BDE81040FBF733BE10BD85
:104C600000640040B80F01200D4810B50B490160E9
:104C70001021416000218160C160016141610176C4
:104C800041768176C17601774177FCF719F80028E3
:104C900003D0BDE81040FBF715BE10BD0068004012
:104CA000E00F01201CB50024104900940E48019427
:104CB00008600846FCF733F908B1FBF703FE04204F
:104CC000CDE90004002269460848FCF7F8F808B16D
:104CD000FBF7F8FD102269460448FCF7F0F80028BD
:104CE00001D0FBF7EFFD1CBD00740040081001204F
:104CF000154808B5016841F480010160016801F4BC
:104D000080010091016841F40011016000680022F7
:104D100000F40010009011461020FDF7D3FB102086
:104D2000FDF7C2FB002211461120FDF7CBFB11203D
:104D3000FDF7BAFB002211463820FDF7C3FBBDE8A2
:104D400008403820FDF7B0BB3038024070B586B05F
:104D500014216846FBF77EFA29480024016841F0D7
:104D600020010160016801F020010591016841F016
:104D700080010160016801F080010591016841F046
:104D800001010160016801F001010591016841F034
:104D900002010160016801F002010591016841F022
:104DA000080101600068174E00F00800059000221D
:104DB00018213046FCF72CFD4FF440400225CDE988
:104DC00000050320CDE902400520049069460E4805
:104DD000FCF746FCE8010090CDE9015403946946D4
:104DE0000A480494FCF73CFC182000900120CDE90F
:104DF0000104694630460394FCF732FC06B070BDEE
:104E000030380240000C0240000402400000024022
:104E100010B50B480B4908600B4848600021094851
:104E20008160C1604FF48041016100214161816175
:104E3000C1610162FCF744FE08B1FBF743FD10BD00
:104E400000540040DC100120801A060000B587B035
:104E50000020039004900590069001900290154860
:104E600015490860542048600021134881604FF6BE
:104E7000FE71C1600021016141618161FEF7FDFAAF
:104E800008B1FBF71FFD4FF48050039003A90A48B7
:104E9000FEF7CAFB08B1FBF715FD00200190029058
:104EA00001A90548FEF7C8FA08B1FBF70BFD07B0EA
:104EB00000BD0000000001403011012000B587B0A6
:104EC00000200390049005900690019002901548F0
:104ED0001549086041F61F40486000211248816072
:104EE0000921C1600021016180218161FEF7C5FABD
:104EF00008B1FBF7E7FC4FF48050039003A90A4880
:104F0000FEF792FB08B1FBF7DDFC202001900020AA
:104F1000029001A90448FEF78FFA08B1FBF7D2FC12
:104F200007B000BD000400407011012000B587B03B
:104F30000020039004900590069001900290144880
:104F400014490860472048600021124881603121DF
:104F5000C160002101618161FEF78FFA08B1FBF7A2
:104F6000B1FC4FF48050039003A90A48FEF75CFBA4
:104F700008B1FBF7A7FC00200190029001A90548A9
:104F8000FEF75AFA08B1FBF79DFC07B000BD000020
:104F900000080040B011012000B587B00020039048
:104FA00004900590069001900290144814490860FE
:104FB0005320486000211248816041F27071C16045
:104FC000002101618161FEF758FA08B1FBF77AFC14
:104FD0004FF48050039003A90948FEF725FB08B160
:104FE000FBF770FC00200190029001A90448FEF735
:104FF00023FA08B1FBF766FC07B000BD000C0040C7
:10500000F01101201CB50020009001900E480F49BE
:1050100008600920486000210C4881600121C160BE
:1050200080218161FEF729FA08B1FBF74BFC2020B3
:1050300000900020019069460448FEF7FDF908B190
:10504000FBF740FC1CBD00000010004030120120A6
:105050000C4810B50A4901604FF4E131416000216C
:1050600081600C22C160C0E904128161C161FEF758
:10507000FEFB002803D0BDE81040FBF723BC10BDA9
:1050800000440040701201200C4810B50A4901602C
:105090004FF4E1314160002181600C22C160C0E920
:1050A00004128161C161FEF7E2FB002803D0BDE874
:1050B0001040FBF707BC10BD00480040B0120120B3
:1050C00010B500220F49104800F04EFE08B1FBF762
:1050D000F9FB0E490C4801F027F808B1FBF7F2FB89
:1050E0000B49094800F058FC08B1FBF7EBFB0648F8
:1050F00001F070F8002803D0BDE81040FBF7E2BBD8
:1051000010BD00000C000020F0120120580100200A
:105110005C00002000BFFEE77047000010B50248A9
:10512000FDF750FB10BD00008C1501202DE9F0416A
:10513000044600680E46016C00EB4615D5F8080BD6
:10514000276920234FF40042012F08D02C4FB94289
:105150004FD1010449D500BFC5F8082B4DE0DFF859
:10516000A4C05FEA007E04F5717711D5614503D9CB
:10517000000401D5C5F8082B2046FDF743FE3A464A
:105180000121206801F0E4FB0820C5F8080B34E099
:105190005FEA806E02D5C5F8083B2EE010F0280FBC
:1051A0002BD1614501D90004D6D4C6EBC60004EB6F
:1051B0008000D5F8102BD0F80412C2F312028A1A1C
:1051C000C0F81422D0F808221144C0F80812F1B235
:1051D0002046FDF7DDF986B9D4F8100268B93A46E1
:1051E0000121206801F0B4FB07E0800601D5C5F875
:1051F000083BF1B22046FDF7CBF90020BDE8F08175
:105200000A31544F0A30544F2DE9F84F0E46C1EB86
:10521000C60100EB810481460568D4E914103C34D2
:10522000884202D90120BDE8F88F081AA16881429E
:1052300000D20846C01C870805EB46181BE000BFDB
:10524000A0EB010AA068504500D282460AF1030093
:10525000870899F8100000901FFA8AF3F2B22846E6
:10526000E16801F0FDFDE16801EB0A00E060A16981
:1052700001EB0A00A061D8F8180980B2B84205D342
:10528000D4E90501814201D20028D9D1D4E9050130
:10529000884208D806F00F0101208840D5F834185C
:1052A0008143C5F834180020BDE77047704710B53A
:1052B000FDF792F810BD000000B593B0302107A8AB
:1052C000FAF7C8FF142102A8FAF7C4FF00BF0020B4
:1052D00001902748006840F0805025490860084642
:1052E000006800F08050019000BF00BF00BF0020A8
:1052F00001902048006840F480401E49086008463C
:10530000006800F48040019000BF00BF01200790BA
:105310000004089002200D9041050E9105210F9187
:10532000A8211091022111910721129107A8FDF7E0
:10533000DFFE08B1FBF7C6FA0F20029002200390AF
:10534000002004904FF4A05005904FF48050069038
:10535000052102A8FDF796FD08B1FBF7B3FA00227C
:105360004FF480011046FDF77DFE13B000BD000034
:1053700040380240007000401448006840F470005B
:10538000124908601248006840F0010010490860A6
:1053900000200F49083108600D4800680D49084099
:1053A0000B4908600C48091D0860081F006820F4BC
:1053B0008020091F0860002005490C3108604FF06B
:1053C00000600249803908607047000088ED00E005
:1053D00000380240FFFFF6FE1030002410B50248EE
:1053E000FEF78EF910BD0000B0110120F0B5026883
:1053F000254C264D264E274F274B4FF0804CA04280
:1054000009D0604507D0A84205D0B04203D0B842C9
:1054100001D0984204D122F0700E4A6842EA0E028E
:10542000A0421BD0604519D0A84217D0B04215D079
:10543000B84213D0984211D0184DA8420ED0184D42
:10544000A8420BD0174DA84208D0174DA84205D04E
:10545000164DA84202D0164DA84203D122F4407541
:10546000CA682A434D6922F080022A4302608A6892
:10547000C2620A688262A04201D0984201D10969E1
:10548000016301214161F0BD0000014000040040C2
:1054900000080040000C00400004014000400140B2
:1054A000004401400048014000180040001C00403A
:1054B0000020004010B5846842EA032224F47F44AF
:1054C0000A432243826010BD826822F070020A43C0
:1054D00042F007018160704710B5036A046A24F046
:1054E00001040462846924F0F00444EA021423F005
:1054F0000A020A438461026210BD10B5036A23F0F8
:10550000100303628369046A23F4704343EA02329E
:1055100024F0A00343EA01118261016210BD000082
:105520002DE9F041044600680169E26821F4405128
:10553000114301612169A068E2690843616911436F
:1055400022680843D16849F20C6399430143D16052
:1055500020684169A26921F4407111434161E26907
:105560006425B2F5004F9748974922684FF03208FA
:105570003FD08A4201D082427CD1FDF731FD00EB61
:10558000C00101EB001061688900B0FBF1F6FDF786
:1055900027FD00EBC00101EB001061688900B0FB42
:1055A000F1F0B0FBF5F06FF01801484306EB800115
:1055B00008EB0110B0FBF5F000F0F006FDF710FD70
:1055C00000EBC00101EB001061688900B0FBF1F055
:1055D000B0FBF5F006EB0016FDF702FD00EBC00195
:1055E00001EB001061688900B0FBF1F7FDF7F8FCF2
:1055F000D2E08A4201D082423DD1FDF7F1FC00EBBE
:10560000C00101EB001061684900B0FBF1F0B0FB94
:10561000F5F00601FDF7E4FC00EBC00101EB001022
:1056200061684900B0FBF1F7FDF7DAFC00EBC0015F
:1056300001EB001061684900B0FBF1F0B0FBF5F040
:105640006FF01801484307EB800108EBC100B0FB85
:10565000F5F000F0F80006EB4006FDF7C1FC00EBAA
:10566000C00101EB001061684900B0FBF1F7FDF7E4
:10567000B7FC3CE055E0FDF7A3FC00EBC00101EBFB
:10568000001061684900B0FBF1F0B0FBF5F00601D5
:10569000FDF796FC00EBC00101EB001061684900CA
:1056A000B0FBF1F7FDF78CFC00EBC00101EB001043
:1056B00061684900B0FBF1F0B0FBF5F06FF0180144
:1056C000484307EB800108EBC100B0FBF5F000F0A8
:1056D000F80006EB4006FDF773FC00EBC00101EBA0
:1056E000001061684900B0FBF1F7FDF769FC00EBC1
:1056F000C00101EB001061684900B0FBF1F0B0FBA4
:10570000F5F06FF01801484307EB800108EBC1008A
:10571000B0FBF5F000F00700216830448860BDE878
:10572000F081FDF74DFC00EBC00101EB001061685A
:105730008900B0FBF1F6FDF743FC00EBC00101EB83
:10574000001061688900B0FBF1F0B0FBF5F06FF07C
:105750001801484306EB800108EB0110B0FBF5F09F
:1057600000F0F006FDF72CFC00EBC00101EB00108F
:1057700061688900B0FBF1F0B0FBF5F006EB0016B4
:10578000FDF71EFC00EBC00101EB00106168890011
:10579000B0FBF1F7FDF714FC00EBC00101EB0010CA
:1057A00061688900B0FBF1F0B0FBF5F06FF0180113
:1057B000484307EB800108EB0110B0FBF5F000F067
:1057C0000F00A9E700140140001001402DE9F0414D
:1057D000D0F89832D0F89022DAB101EB810400EBD6
:1057E00084040025E6694EB1C1EBC10703EB8703D2
:1057F0005B6CB6FBF3F703FB176323B1C2F81452DB
:105800000020BDE8F08100231A46E56100F06FFC3E
:10581000F6E70220F5E770B50546D0F8904200F0B3
:105820007BFBC4F80C02D5F8900248B1D5F894126D
:10583000D4F80402CA6804F503719047002070BDD3
:10584000022070BD70B504460026812100F0AAFA3E
:10585000002501212046E56200F0A4FA82212046BD
:10586000C4F8585100F09EFA2564D4F8900248B16B
:10587000D4F8940204F5247440688047206801F04D
:1058800027FB2560304670BD10B5D0E9A44159B161
:1058900094F80002FF2807D08B6894F80122214673
:1058A0009847FF2084F80002002010BD0A210180E3
:1058B0000048704780000020432101800048704765
:1058C000D000002043210180004870478C00002058
:1058D0004321018000487047140100202DE9F04168
:1058E00004460026007C4FF40077012590B3402346
:1058F00002228121204600F057FB4023E56202226C
:105900000121204600F050FB08230322822120467B
:10591000C4F8585100F048FB4FF40770256401F0BB
:105920007BFDC4F89002F8B10546D4F894020068F3
:1059300080470020C5F81402C5F81802207CD5F86D
:10594000042298B140230121204600F039FB304663
:10595000BDE8F081FFE73B4602228121204600F0AE
:1059600023FB3B46E562CAE70126F0E73B46EAE750
:1059700010B5D0F8901269B1027C002AD1F8042247
:1059800005D04023012100F01BFB002010BD4FF487
:105990000073F7E7022010BD02460220002902D062
:1059A0000020C2F894127047D0F89002C0F8041298
:1059B00000207047D0F89002C0F81022C0F80812FA
:1059C000002070472DE9FC410546D0F89072002078
:1059D0008DF80000ADF80400064608780C4610F07B
:1059E000600121D020293BD1E288AAB1000660786D
:1059F00007D5D5F894128B6839469847E28839461E
:105A000026E087F80002A07987F80102E28839468B
:105A1000284600F06AF828E0D5F894126078002251
:105A20008B682146984720E0607820B10A2809D089
:105A30000B2815D110E095F87402032810D102222A
:105A400001A905E095F87402032809D101226946ED
:105A5000284600F064F808E095F87402032804D0A2
:105A60002146284600F036F802263046BDE8FC8183
:105A700010B5D0F89012A1B1D1F814220AB10120CA
:105A800010BD0122C1F81422D1F810220263B1F82E
:105A9000102293B2D1F80822812100F028FB0020C7
:105AA00010BD022010BD10B5D0F88C22526890476E
:105AB000002010BD134610B50A46002100F080FA00
:105AC000002010BD134610B50A46002100F00FFB60
:105AD000002010BD10B50446802100F0EDFA2046EC
