:020000040800F2
:10000000D02401209D01000821560008A13F0008CE
:100010001F560008DD060008B1730008000000004C
:10002000000000000000000000000000BD570008B4
:10003000D1070008000000009F570008C9570008BA
:10004000B7010008B7010008B7010008B7010008B0
:10005000B7010008B7010008D3070008B70100087E
:10006000B7010008B7010008B7010008B701000890
:10007000B7010008B7010008B7010008B701000880
:10008000B7010008B7010008B7010008B701000870
:10009000B7010008B7010008B7010008B701000860
:1000A000B1580008B7010008B7010008B7010008FF
:1000B000B7010008B7010008B7010008B13F000808
:1000C000A53F0008BD3F0008B7010008B7010008C0
:1000D000A1570008415C00084D5C0008B70100080A
:1000E000B7010008B7010008B7010008B701000810
:1000F000B7010008B7010008B7010008B701000800
:10010000B7010008B7010008B7010008B7010008EF
:10011000B7010008B7010008B7010008BD58000882
:1001200021070008B7010008B7010008B70100085F
:10013000B70100080000000000000000B70100083F
:10014000B7010008B7010008B701000825560008EC
:10015000B7010008B7010008B7010008B70100089F
:10016000B7010008B7010008B7010008B70100088F
:10017000B7010008B70100080000000000000000FF
:10018000B7010008B7010008DFF80CD000F08EF9C5
:1001900000480047B9770008D0240120064880476E
:1001A00006480047FEE7FEE7FEE7FEE7FEE7FEE75C
:1001B000FEE7FEE7FEE7FEE75D580008890100085C
:1001C0002DE9F05F0546002092469B46884606468C
:1001D000814640241BE0284641464746224600F01F
:1001E000F8F853465A46C01A914110D311461846A2
:1001F000224600F0DFF82D1A67EB01084F46224631
:100200000120002100F0D6F817EB00094E41201E16
:10021000A4F10104DFDC484631462A464346BDE8E6
:10022000F09F40EA01039B0703D009E008C9121FB1
:1002300008C0042AFAD203E011F8013B00F8013BA0
:10024000521EF9D27047D2B201E000F8012B491ECC
:10025000FBD270470022F6E710B513460A46044663
:100260001946FFF7F0FF204610BD30B504460020C8
:10027000034600E05B1C934203D2E05CCD5C401B74
:10028000F8D030BD2DE9FE4F81EA030404F00044AC
:1002900021F0004100944FF0000B23F0004350EA9E
:1002A00001045ED052EA03045BD0C3F30A54C1F3E5
:1002B0000A552C44A4F2F3340194A0FB0254C1F378
:1002C000130141F48011C3F3130343F4801301FBC2
:1002D000024400FB034E840A970A44EA815447EA29
:1002E0008357A4FB076802958D0A05FB07854FEA33
:1002F000932C04FB0C542705029D4FEA065847EA4D
:100300001637B5EB08056EEB070C870E920E47EA21
:10031000811742EA8312A7FB0201B6EB0B0164EBE3
:1003200000042B0D43EA0C335E1844EB1C50DA46F4
:100330005146E7FB0201C5F313044FEA0B3343EACE
:1003400014534FEA0432019C43EA0603A4F10C045F
:100350000294009CCDE900B400F05AF803B0BDE867
:10036000F08F00200146F9E70EB540F233410291CB
:100370000021CDE900110A460B4600F049F803B010
:1003800000BDC1F30A5210B5C1F3130140F2FF33AF
:1003900041F480119A4201DA002010BD40F233434B
:1003A0009A42A2F2334203DC524200F012F810BD2E
:1003B000904010BD202A04DB203A00FA02F1002010
:1003C00070479140C2F1200320FA03F31943904093
:1003D0007047202A04DB203A21FA02F000217047FE
:1003E00021FA02F3D040C2F120029140084319469D
:1003F000704710B5141E73F1000408DA401C41F177
:10040000000192185B411A4301D120F0010010BD98
:100410002DE9F04D92469B4611B1B1FA81F202E00E
:10042000B0FA80F220329046FFF7C4FF04460F4630
:1004300040EA0A0041EA0B0153465A46084313D0EA
:10044000114653EA010019D0C8F140025046FFF7A7
:10045000C0FF05460E46504659464246FFF7AAFFE2
:10046000084305D0012004E020463946BDE8F08D60
:100470000020054346EAE0762C4337430A9863059B
:10048000E40AA0EB08000022FD0A44EA47540A30BF
:1004900002D500200146E9E7010510196941DDE9AF
:1004A000084500196941BDE8F04DA2E7064C074D2B
:1004B00006E0E06840F0010394E807009847103434
:1004C000AC42F6D3FFF764FE748100089481000803
:1004D00070B58C1810F8015B15F0070301D110F806
:1004E000013B2A1106D110F8012B03E010F8016B33
:1004F00001F8016B5B1EF9D12B0705D40023521EB6
:100500000DD401F8013BFAE710F8013BCB1A921C1D
:1005100003E013F8015B01F8015B521EF9D5A1421B
:10052000D8D3002070BD10B50146806B026C12F06C
:10053000500F05D0026CD20626D500F0F7F910BD99
:10054000016C41F40071016401688A6812F0405F37
:1005500017D1027EAAB9CA6A12F4700F02D08A6853
:1005600052050ED44A6822F020024A60016C21F440
:1005700080710164016CC90403D4016C41F0010174
:10058000016400F0D1F910BD806BC26CBDE8104071
:100590000846104710B5806B40210164416C41F062
:1005A0000401416400F0C2F910BD10B5806B00F089
:1005B000BCF910BD464910B54A6822F440324A6081
:1005C0004A6843681A434A6001684A6822F48072A4
:1005D0004A6001684A68036942EA03224A60016886
:1005E0004A6822F040724A6001684A6883681A4388
:1005F0004A6001688A6822F400628A6001688A6839
:10060000C3681A438A60816A6FF07062D1420168E0
:100610008A6822F070628A6001688A680CD0836AF6
:100620001A438A6001688A6822F040528A60016831
:100630008A68C36A1A4301E022F040528A60016866
:100640008A6822F002028A6001688A68037E42EAB0
:1006500043028A6090F82010002901684A680FD090
:1006600042F400624A6001684A6822F460424A60CB
:1006700001684A68174C436A04EB43331A4301E0AC
:1006800022F400624A600168CA6A22F47002CA62F7
:100690000168CA6A838B104C04EB03531A43CA6285
:1006A00001688A6822F400728A6001688A6890F89A
:1006B000303042EA43228A6001688A6822F480620C
:1006C0008A6001688A68406942EA8020886010BDBB
:1006D0000023014000E0FFFF0000F0FFFEE70020E4
:1006E000704700207047000010B5044B044A4FF4D7
:1006F0007A71044807F008FD002010BD5015012054
:1007000038140120AC01002010B50A6801460248E7
:1007100007F0C8FC002010BDAC010020002070478D
:10072000014800F047BC00000C11012001681823AB
:10073000CAB2103AB2FBF3F2054B6FF30901032A78
:100740009B5CC36500D9091D8165084670470000A0
:100750005281000810B5014600208B698A6A4FF06B
:10076000C07453B1B3F5005F15D072B1012A0CD03B
:10077000022A0AD0032A09D104E01AB1012A06D0BC
:10078000022A03D1C96AC90100D5012010BDC96A76
:10079000A142FAD010BD002AF7D0012AF2D0022AD5
:1007A000F3D0032AF3D010BD30B50468256825F4D2
:1007B00080252560046863608368402B036803D04C
:1007C00099600068C26030BD9A600068C16030BD49
:1007D0007047012000F06EBE7047000078B500241D
:1007E000009490F83C20012A19D0012280F83C2086
:1007F0000A6807230568092A13D9EE680A3A02EB4A
:10080000420293409E43EE600B788A680A3B03EBFA
:1008100043039A400368DD682A43DA6010E002204F
:1008200078BD2E6902EB420293409E432E610B7805
:100830008A6803EB43039A4003681D692A431A61DF
:100840004A681F23072A13D205686E6B521E02EBFB
:10085000820293409E436E630B790A885B1E92B2BC
:1008600003EB83039A4003685D6B2A435A6327E0D6
:1008700005680D2A12D22E6BD21F02EB8202934022
:100880009E432E630B790A88DB1F92B203EB83032E
:100890009A4003681D6B2A431A6311E0EE6A0D3A11
:1008A00002EB820293409E43EE620B790A880D3B75
:1008B00092B203EB83039A400368DD6A2A43DA624B
:1008C000164B0568144A9D4206D10D68122D03D1BE
:1008D000556845F48005556005689D4218D10B6840
:1008E000102B01D0112B13D1536843F40003536034
:1008F000096810290CD10A490A4A0968B1FBF2F1CA
:1009000001EB8101490000E0491E00910029FBD163
:1009100080F83C40002078BD0023014000200140C9
:100920009400002040420F0070477047704770B538
:1009300004004FF0000503D0206C002610B107E042
:10094000012070BD204600F01DF8666484F83C600C
:10095000206CC00610D4206C20F4885040F00200B7
:1009600020642046FFF726FE6664206C20F002001B
:1009700040F00100206400E0012584F83C60284636
:1009800070BD000070B586B0064614216846FFF7BA
:1009900061FC2E4A316800252D48914209D1016839
:1009A00041F480710160006800F48070059006B029
:1009B00070BD284A9142FAD1016841F4806101601A
:1009C0000068234900F4806014390590086840F0FD
:1009D00020000860086800F020000590086840F0DA
:1009E000010008600868032400F0010005904FF43E
:1009F00070708DE831006946174800F067FD0F20E0
:100A00008DE831006946154800F060FD154C14482A
:100A100020608005C4E901050014C4E903504000CA
:100A200060618000A0614011E0610002206204204A
:100A300060620120C4E90A052046256300F08AFBB4
:100A400008B1FFF7C9FEB463A663B0E70020014018
:100A500044380240002201400014024000000240DD
:100A6000106402400C110120F8B5044600200E4627
:100A7000009094F83C10012907D0012184F83C1023
:100A800021688B68DB0702D011E00220F8BD8B687B
:100A900043F001038B604049404B0968B1FBF3F11F
:100AA00001EB410100E0491E00910029FBD12168C2
:100AB0008B68DB0503D58B6823F480738B6021681A
:100AC0008B68DB075DD0236C40F20165AB4343F4D8
:100AD000807323644968490505D5216C21F40051D0
:100AE00041F480512164216CC90404D5616C21F06A
:100AF0000601616400E0606484F83C00A16B294851
:100B0000274DC863A16B28480864A16B2748C864B7
:100B100021686FF0220008602068416841F0806120
:100B200041602068816841F48071816021681346CA
:100B300032464C31A06B00F077FB68681C49C00658
:100B4000206806D0884224D1816811F0405F13D01C
:100B50001FE08842F8D0174A904203D1D1F804230D
:100B6000D206F1D0144A904213D1D1F8041301F007
:100B70001F011029E8D30CE0816841F080418160B9
:100B800007E0206C40F010002064606C40F0010031
:100B900060640020F8BD00009400002040420F0077
:100BA0000023014027050008AB0500089505000853
:100BB00000200140002101400022014070B50400E6
:100BC00003D094F8200010B104E0012070BD20464D
:100BD00000F082F82068016821F00201016000F055
:100BE00075FD0546052604E000F070FD401B0A284F
:100BF00011D8206840688007F6D42068016841F069
:100C00000101016000F062FD05460BE000F05EFDB1
:100C1000401B0A2806D9606A40F40030606284F8FC
:100C20002060D2E720684068C007EFD0207E01280E
:100C3000206801683DD021F080010160607E0128BC
:100C40002068016838D021F040010160A07E0128B1
:100C50002068016833D021F020010160E07E012886
:100C6000206801682ED041F010010160207F01282A
:100C70002068016829D021F008010160607F012807
:100C80002068016824D021F004010160D4E9020148
:100C90000843D4E90412114308436168491E08431C
:100CA0002168C86100206062012084F820000020D3
:100CB00070BD41F08001C0E741F04001C5E741F05F
:100CC0002001CAE721F01001CFE741F00801D4E785
:100CD00041F00401D9E70000F0B587B004461421C3
:100CE0006846FFF7B7FA2E4B2E48DFF8B0E01968D8
:100CF000D4F800C02B4A032502260927103000240F
:100D0000491CF4451AD11960012907D1016841F045
:100D100000710160006800F000700590106840F0FC
:100D2000080010601068CDE9005600F00800CDE919
:100D3000047069461C48CDE902452BE0DFF86CE001
:100D4000F44529D1D0F800C04CF0806CC0F800C048
:100D5000D0F800C001290CF0806CCDF814C01960E7
:100D600007D1016841F000710160006800F0007077
:100D70000590106840F002001060106802AB00F0AF
:100D8000020005904FF44050CDE9000683E8B00022
:100D90006946074800F09AFB07B0F0BD00640040C8
:100DA0002000002030380240000C02400068004063
:100DB0000004024070B54379012B1CD00126467116
:100DC0000223037105682B6802F0100440F6FE72DE
:100DD000A2409343D1E900210A43A2401A432A606A
:100DE00001680A68C023A3409A430A600671002183
:100DF0004171084670BD022070BD70B5040003D07B
:100E00002079002510B105E0012070BD65712046F4
:100E100000F008F8022020712561012020710020D7
:100E200070BD000010B586B0044614216846FFF777
:100E300011FA1149206888421CD11048002102682B
:100E400042F000520260006800F0005005900B482C
:100E50001038026842F001020260006800F00100F0
:100E60000590302000900320CDE901016946044837
:100E700000F02CFB06B010BD00740040403802406A
:100E80000000024018B5046800940068104421B1C5
:100E9000143000900360002018BD0830F9E770B5E9
:100EA0004279012A1ED00122427102230371046893
:100EB000266801F0100302FA03F52E43266000298C
:100EC000016811D00C6804F470153C249C40A542C4
:100ED00003D14B6843F002034B6002710021417162
:100EE000084670BD022070BD0B68C3F383030F2B4F
:100EF000F3D14B6843F00103EEE72DE9F0410446DE
:100F0000876D00F0E3FB064694F8350000250228C3
:100F100006D08020606584F834500120BDE8F0815F
:100F20002068016821F0160101602068416921F004
:100F300080014161206C08B9A06C20B12068016873
:100F400021F0080101602068016821F001010160C1
:100F50000BE000F0BBFB801B052806D92020606554
:100F600004F8345F03206070D8E720680068C00789
:100F7000EFD194F85C103F208840B86004F8345FEB
:100F8000012060700020C9E790F83510022903D0D5
:100F90008021416501207047052180F835100068E7
:100FA000016821F0010101600020704790F83500D0
:100FB000704700002DE9F84304464FF00009CDF8D2
:100FC000009063484FF41651A56D0068B0FBF1F72F
:100FD0002E6894F85C10082000FA01F131420FD01D
:100FE00021680A6852070BD50A6822F004020A60D9
:100FF00094F85C108840A860606D40F00100606566
:1010000094F85C104FF0010808FA01F0304208D063
:1010100021684969090604D5A860606D40F00200A6
:10102000606594F85C1004208840304208D0216844
:101030000968890704D5A860606D40F00400606508
:1010400094F85C1010208840304218D0216809685C
:10105000090714D5A86020680168490304D5006811
:10106000000308D5A16C07E00168C90503D4016835
:1010700021F008010160216C09B12046884794F8ED
:101080005C1020208840304231D021680968C906B0
:101090002DD5A86094F8350005282068016806D091
:1010A000490347D5006800031DD4616C1CE021F0A2
:1010B000160101602068416921F080014161206CC6
:1010C00008B9A06C20B12068016821F00801016016
:1010D00094F85C103F208840A86084F8349084F82D
:1010E0003580216D1FE0E16B09B120468847606DB6
:1010F00000282BD0606DC00714D0052084F835007F
:101100002068016821F0010101600098401C0090F6
:10111000B84203D820680068C007F6D184F834903C
:1011200084F83580E16C002910D001B02046BDE87C
:10113000F04308470168C905D5D4016821F01001C2
:10114000016084F8349084F83580CCE7BDE8F883FA
:10115000940000202DE9F041044600F0B7FA06465D
:101160005CB1002584F83450022084F835002068F2
:10117000016821F0010101600DE00120BDE8F0816E
:1011800000F0A4FA801B052805D920206065032003
:1011900084F83500F2E720680068C007F0D12268C3
:1011A000116820480140D4E901031843D4E903360B
:1011B0003343184363691843A3691843E369184329
:1011C000236A18430843616A042903D1D4E90B1345
:1011D00019430843106020684069666A20F00701DF
:1011E00030460E43012704280CD1A06A0643E06A6A
:1011F00040B12046FFF7AEFA20B14020606584F888
:101200003570BAE7206846612046FFF78FFA94F8F8
:101210005C203F2191408160656584F83570002035
:10122000ACE700003F8010F02DE9F0410446866DE8
:1012300090F83400002501280DD0012084F83400F6
:1012400094F835700020012F07D084F8340002256F
:101250002846BDE8F0810220FBE7022784F83570BC
:1012600060652046FFF7A0FA94F85C103F208840A4
:10127000B0602068016841F016010160206C20B167
:101280002068016841F0080101602068016841F0B0
:1012900001010160DCE7000070B5044600F016FAB9
:1012A0000546601C02D004480078044400F00EFAA1
:1012B000401BA042FAD370BD880000202DE9F04FFA
:1012C0000022DFF838B101264FF00F0906FA02F4C8
:1012D00001EA0403A3427DD122F003075F44D7F85B
:1012E000088895074FEA157C09FA0CFA0AEA0805FE
:1012F000DFF80C81404502D14FF0000832E0DFF802
:101300000481404502D14FF001082BE0DFF8F8805E
:10131000404502D14FF0020824E0DFF8F08040455C
:1013200002D14FF003081DE0DFF8E480404502D110
:101330004FF0040816E0DFF8DC80404502D14FF0A2
:1013400005080FE0DFF8D080404502D14FF00608D5
:1013500008E0DFF8C880404502D14FF0070801E0FF
:101360004FF0080808FA0CF8A84522D12C4DD5F802
:1013700000C02CEA030CC5F800C005F1040CDCF831
:1013800000509D43CCF800500CF10405D5F800C086
:101390002CEA030CC5F800C02D1DD5F800C02CEABE
:1013A000030CC5F800C0D7F8085825EA0A05C7F8A5
:1013B0000858056857000323BB409D430560D508C6
:1013C00000EB8505D5F820C057074FEAD76809FA22
:1013D00008F700E00CE02CEA070CC5F820C0C5684F
:1013E0009D43C5604568A543456084689C4384600F
:1013F000521C102AFFF46AAFBDE8F08F00300140A4
:10140000000002400004024000080240000C0240BC
:10141000001002400014024000180240001C02406C
:10142000003C014038B501211F4800F045F9002873
:101430002DD06946002003F091FC1C48B0F88E1AAC
:1014400049052BD5B0F8D63A194A642103B3A0F563
:10145000804505EB430303F58043BDF80040A3F846
:10146000904AB0F8D63A5B1CA0F8D63AD160B0F8F2
:10147000D81A9AB2491C8A4209D100BFB0F88C1A16
:1014800021F00401A0F88C1A094802F079F938BD5E
:10149000BDF80030A0F8903A0123E5E7BDF8001050
:1014A000A0F8901AEAE7000000180240E04D002082
:1014B000D0120120044910B50A68024202D0086027
:1014C000FFF7B0FF10BD0000143C01402DE9F84FBC
:1014D000DFF8B8A1002201250AF1040B03264FF022
:1014E0000F090BF1040E00BF0B6805FA02F423404C
:1014F000A3426FD10F7907F00307012F01D0022F0C
:1015000016D187684FEA420806FA08FC27EA0C075A
:10151000D1F80CC00CFA08FC4CEA070CC0F808C063
:101520004768A7430C79C4F3001494403C434460DB
:101530000C79E443A4070AD0C4684FEA420C06FAC7
:101540000CF7BC438F6807FA0CF72743C7600C7988
:1015500004F00304022C12D1D40800EB840CDCF854
:1015600020405707FF0E09FA07F824EA0804D1F8CB
:10157000108008FA07F848EA0408CCF820800468CC
:101580004FEA420C06FA0CF7BC430F7907F0030749
:1015900007FA0CF7274307604C68E40070D53C4C11
:1015A000276847F480472760246822F0030704F483
:1015B00080440094374C07EB040CDCF8084897078C
:1015C0004FEA177809FA08F7BC43334FB84202D103
:1015D000002724E054E0314FB84201D101271EE03A
:1015E0002F4FB84201D1022719E02E4FB84201D146
:1015F000032714E02C4FB84201D104270FE02B4FF2
:10160000B84201D105270AE0294FB84201D1062787
:1016100005E0284FB84201D1072700E0082707FA64
:1016200008F72743CCF80878DAF800405746D1F895
:1016300004C09C435FEACC3C00D51C433C60DBF813
:1016400000405F46D1F804C09C435FEA8C3C00D563
:101650001C433C60DEF800407746D1F804C09C4350
:101660005FEACC2C00D51C433C60084F0C373C682B
:10167000D1F804C09C435FEA8C2C00D51C433C602D
:10168000521C102AFFF430AFBDE8F88F003C014037
:101690004438024000300140000002400004024093
:1016A00000080240000C02400010024000140240FA
:1016B00000180240001C02400069084000D00120D0
:1016C00070470AB1816170470904FBE701488068EF
:1016D0007047000088000020704770472DE9F041F6
:1016E000016804464A694E6890F83E000025D743D9
:1016F000FA0506D4F243D20503D46FF480720125B3
:101700004A61B90508D4F143C90505D422686FF4CC
:10171000007145F002055161790525D4F143C905F1
:1017200022D4638D94F83D10226B202808D13BB958
:10173000212910D029290ED0282901D1212A0AD007
:1017400022686FF48061516145F00405102806D0CD
:10175000402804D008E0204603F0B0F804E02068F8
:10176000016841F400710160380508D4F043C005F8
:1017700005D421686FF4006045F008054861002D2C
:1017800007D0206C284320642046BDE8F04102F0D9
:1017900079BCBDE8F0812DE9F04102680024516870
:1017A000C76A90F83E5090F83D60102D1CD0402D37
:1017B0001AD0036C002B7ED053694FF02805DB4311
:1017C0009F0779D4CF43BF0576D4016C01B19469EA
:1017D00090F83D3000219D430B466ED0C91E5161EB
:1017E00080F83C30BDE8F081946953694FF42A0CCD
:1017F000DB435FEAC37E4FF02A4604D06745F1D051
:10180000B742EFD010E0CF43BF050DD4C16A6145A8
:1018100001D1012103E0C16AB14201D10821C162B5
:10182000BDE8F04102F0B4BF1E0715D4CE43B605A3
:1018300012D4416CC9B21161416B09B1C96B29B9AC
:10184000816B0029CED0C96B0029CBD000684168DC
:1018500041F400614160C5E79E0706D4CE43B6055A
:1018600003D4BDE8F04102F007BFE44352686407C7
:101870004FEA02521BD4002AB4DB1A0608D4CA432A
:10188000520505D45A0705D5BDE8F04102F098BECF
:101890005A07A7D4C9438905A4D4102D03D0BDE8A5
:1018A000F04102F0BBBFBDE8F04102F04FBE002A9C
:1018B00098DB5A0602E014E028E014E008D4CA439A
:1018C000520505D45A0705D5BDE8F04102F006BD22
:1018D0005A0787D4C943890584D4BDE8F04102F092
:1018E00094BC946968E7556825F480655560E243C7
:1018F000540700D50121120601D5828900E0028B30
:1019000080F83C3092B2FFF7E8FE6BE7DC0606D4C5
:10191000CC43A40503D4BDE8F04103F011B8212E57
:1019200027D0292E25D05C0655D4CC43640552D44B
:101930005B0752D590F83D10438D002B8BD0126978
:10194000436A1A70426A521C4262428D521E42859C
:10195000428D002AD9D12A29D7D101684A6822F4B8
:1019600080624A602221016380F83D5000F010FC43
:1019700038E71C0623D4CC43640520D45B0720D56C
:1019800090F83D10438D002BBFD0436A1B78136144
:10199000426A521C4262428D521E4285428D002A8A
:1019A000B3D12929B1D101684A6822F480624A6022
:1019B0002121016380F83D5000F0EBFB12E75B074B
:1019C000A3D4C9438905A0D4418D00299DD0416A83
:1019D000097811610AE05B0797D4C943890594D45B
:1019E000418D002991D01169426A1170416A491CE8
:1019F0004162418D491E4185F4E6704770B504008F
:101A000025D094F83D00002520B984F83C502046AC
:101A100000F04CFB242084F83D002068016821F090
:101A2000010101602068016841F400410160206803
:101A3000016821F40041016001F08CF94D4A6168B0
:101A4000914201D84C4900E04C49884201D2012022
:101A500070BD4B492368B0FBF1F15E6826F03F068C
:101A60000E435E606368934206D94FF49673594300
:101A70004FF47A73B1FBF3F12368491C1E6A26F018
:101A80003F06314319626168914210D84900401EF7
:101A9000B0FBF1F2521CC2F30B02042A01D2042063
:101AA00022E0B0FBF1F0401CC0F30B001CE0A26888
:101AB000F2B301EBC10303EB0116431EB3FBF6F3D4
:101AC0005B1C43F480431B0549D092B301EBC10278
:101AD00002EB0111401EB0FBF1F0401CC0F30B0003
:101AE00040F4804040F400402168CA694CF6FF731E
:101AF0009A431043C861D4E9071001432068026883
:101B000022F0C00211430160D4E9030101432068BF
:101B1000826848F2FF339A4311438160D4E905019A
:101B200008432168CA6822F0FF021043C86001E040
:101B30000EE016E02068016841F0010101602564B3
:101B4000202084F83D00256384F83E50002070BDBD
:101B500001EB4106431EB3FBF6F35B1CB3E7012028
:101B6000C2E701EB4101401EB0FBF1F0401CC0F3A5
:101B70000B00B7E7A086010080841E0000093D002D
:101B800040420F007047000010B504460D488442E3
:101B900008D10D48018801EB810100EBC100001D57
:101BA00005F02BFC094884420BD107487C300188A2
:101BB000BDE8104001EB810100EBC100001D05F004
:101BC0001CBC10BDD0110120A00C0020241201204B
:101BD00010B504460D48844208D10D48018801EB38
:101BE000810100EBC100001D05F007FC094884429B
:101BF0000BD107487C300188BDE8104001EB810122
:101C000000EBC100001D05F0F8BB10BDD011012094
:101C1000A00C0020241201202DE9F84F1F46904609
:101C20008A460446DDF82890FFF750FD054694F8F3
:101C30003D00202875D1192301226C4920460095CA
:101C400002F052FF0028F5D194F83C00012868D03A
:101C5000012084F83C0020680168C90703D10168AD
:101C600041F0010101602068016821F40061016018
:101C7000222084F83D00102084F83E0000262664CF
:101C8000C4F824806785608D20855948E0622B4622
:101C90004A465146204602F095FB002878D1208D17
:101CA000544F68B1012814D002282068016816D06A
:101CB00041F480610160206841698069009087E09B
:101CC0002068416981690091016841F400710160F7
:101CD0007EE02068016821F480610160F0E721F472
:101CE000806101602068016841F40061E2E7032837
:101CF00048D801280AD0022814D04B460022394681
:101D00002046009502F0F0FED8BB27E02A4649465F
:101D1000204602F068FFA0BB20680069616A087075
:101D20004DE061E04B46002239462046009502F026
:101D3000DBFE30BB2068016841F40071016020685F
:101D40000069616A0870606A401C6062218D491EEA
:101D50002185618D491E618521682EE0206801681A
:101D600021F48061016020680069616A0870606A1E
:101D7000401C6062208D401E2085608D401E608565
:101D8000D0E705E02A464946204602F02CFF10B174
:101D90000120BDE8F88F20680069616A0870606AF8
:101DA000401C6062218D491E2185618D491E61851F
:101DB00021684A69D24352070AD409690170606AEE
:101DC000401C6062208D401E2085608D401E608515
:101DD000208D00288BD1202084F83D0084F83E60BF
:101DE00084F83C600020D4E70220D2E70200100013
:101DF0000000FFFF0400010078B50024009490F873
:101E00003D50202D55D12C4D46F2A8162D68B5FB1E
:101E1000F6F505EBC50606EB051500956D1E00955C
:101E200006D00568AD69ED43AD070DD4009DF5E71B
:101E300040F8304F202141738473016941F0200143
:101E400001610473012078BD90F83C50012D30D021
:101E5000012580F83C5005682E68F60703D12E68EE
:101E600046F001062E6005682E6826F400662E6096
:101E7000222580F83D50102580F83E5004644262CF
:101E80004385428D02850D4AC262416401680A6839
:101E900042F480620A6001680A6842F480720A6053
:101EA00080F83C400068416841F4E06141600020F6
:101EB00078BD022078BD0000940000200000FFFFE4
:101EC0002DE9F84F1F4690468A460446DDF82890D3
:101ED000FFF7FCFB054694F83D0020287FD119232D
:101EE000012240492046009502F0FEFD002876D1EF
:101EF00094F83C00012872D0012084F83C0020684E
:101F00000168C90703D1016841F00101016020683F
:101F1000016821F400610160212084F83D00102057
:101F200084F83E0000262664C4F824806785608D0E
:101F300020852D48E0622B464A465146204602F055
:101F4000B7FA90B9206841698069009036E02A4666
:101F50004946204602F07AFE50B1206C042804D194
:101F60002068016841F4007101600120BDE8F88F2C
:101F7000606A216800780861606A401C6062618D57
:101F8000491E6185218D491E89B2218522685369C8
:101F9000DB435B070BD451B100781061606A401CD1
:101FA0006062608D401E6085208D401E20852A461F
:101FB0004946204602F072FD0028CED1208D00282F
:101FC000C5D154F83D0B016841F400710160202037
:101FD00004F81E09E67766770020C7E7FFE70220CE
:101FE000C4E70000020010000000FFFF78B50024E5
:101FF000009490F83D50202D50D1294D46F2A8165E
:102000002D68B5FBF6F505EBC50606EB0515009545
:102010006D1E009506D00568AD69ED43AD070DD482
:10202000009DF5E740F8304F20214173847301692A
:1020300041F0200101610473012078BD90F83C500B
:10204000012D2BD0012580F83C5005682E68F6073D
:1020500003D12E6846F001062E6005682E6826F42E
:1020600000662E60212580F83D50102580F83E50F6
:10207000046442624385428D02850A4AC262416419
:1020800001680A6842F480720A6080F83C40006887
:10209000416841F4E0614160002078BD022078BDD4
:1020A000940000200000FFFF70477047F0B587B034
:1020B000044614216846FEF7CDF831482F4F2668B4
:1020C0002F4C10381222012303210425BE4230D1A7
:1020D000266846F400162660266806F40016059663
:1020E000066846F0020606600068CDE9023100F09D
:1020F00002000590C020CDE9000204956946214800
:10210000FFF7E4F9206840F4001020602068002206
:1021100000F40010059011461F2000F0B3F81F20B6
:1021200000F0A3F800221146202000F0ABF8202098
:1021300020E0154FBE421FD1066846F0200606601B
:10214000006800F0200005908DE80E00CDE9031531
:1021500069460E48FFF7BAF9206840F48000206015
:102160002068002200F4800005901146212000F034
:1021700089F8212000F079F807B0F0BD0054004044
:102180004038024000040240005800400014024061
:102190007047704702488168027811448160704737
:1021A000880000200B4810B5016841F400710160FF
:1021B000016841F480610160016841F4807101604F
:1021C000032000F07FF8002000F006F800F024F86B
:1021D000002010BD003C024070B50D4D04464FF488
:1021E0007A712878B1FBF0F00A490968B1FBF0F088
:1021F00001F04CF948B9102C07D200222146501E9C
:1022000000F040F800206C6070BD012070BD00003F
:1022100088000020940000200A4808B5016841F4B5
:1022200080410160006800F4804000900548001F74
:10223000016841F080510160006800F0805000901A
:1022400008BD00004438024000280DDB00F01F02EA
:10225000012191404009800000F1E020C0F8801188
:10226000BFF34F8FBFF36F8F7047002809DB00F07B
:102270001F02012191404009800000F1E020C0F8D8
:1022800000117047F0B40E4B1B680C46C3F30223D9
:10229000C3F10705042D00D90425191D072901D212
:1022A000002300E0DB1E012606FA05F1491E21404D
:1022B00099409E40761E16403143F0BC05F079B837
:1022C0000CED00E0064900F0070208684FF6FF0336
:1022D000184040EA0220034A10430860704700009B
:1022E0000CED00E00000FA05704700684162002034
:1022F0007047F0B50368586A39B19C6A4FF482762A
:1023000000EB144400204D1E0AE040EA02409862AF
:102310000FE006EB8007DF59401C04EB1744C0B206
:10232000A842F6D344EA02404FF4807202EB8101E6
:1023300058500020F0BDD0F8040404F015B8C1EBEB
:10234000C10200EB8202D0F80404926C03F082BF59
:10235000C1EBC10200EB8202D0F80404D2F80822DB
:1023600003F0CCBFD0F8040404F000B870B5044604
:102370000B0601F00F00C0EBC00104EB81014FF030
:1023800001024FF0000503D581F83D203C3103E008
:1023900081F8FD5101F5FE71087094F8BC03012825
:1023A00008D084F8BC23206804F09AFB84F8BC535E
:1023B000002070BD022070BD70B5044601F00F0012
:1023C0006268904201D9012070BD0B0601F00F0137
:1023D000C1EBC10104EB81014FF001024FF0000598
:1023E00003D581F83D203C3103E081F8FD5101F532
:1023F000FE718D70087094F8BC03012808D084F831
:10240000BC23206804F066FD84F8BC53002070BD36
:10241000022070BD01F00F01C1EBC10100EB810092
:10242000D0F8140270472DE9F04104460F0601F080
:102430000F00C0EBC00104EB81014FF001064FF02B
:10244000000503D581F83D603C3103E081F8FD5182
:1024500001F5FE7108708A60CB704A7802B1C880BD
:10246000022B00D10D7194F8BC03012809D084F827
:10247000BC63206804F090FA284684F8BC53BDE899
:10248000F0810220FBE770B50C4601F00F05C5EBAB
:10249000C50100EB8101C1F81032C1F80822002308
:1024A000C1F8143281F8FD3181F8FC51036901F55E
:1024B000FE71012B00D10A612207027C006803D063
:1024C00004F060FD002070BD04F04CFCFAE770B52C
:1024D00004460D4601F00F006168884201D90120D1
:1024E00070BD29064FF000064FF0010207D5C0EB82
:1024F000C00104EB810181F83D203C3107E0C5EBD0
:10250000C50104EB810181F8FD6101F5FE718A705E
:10251000087094F8BC03012807D084F8BC23206815
:1025200004F004FD280702D007E0022070BD217CE2
:1025300004F57172206804F0A1FC84F8BC630020EB
:1025400070BD70B50C4601F00F05C5EBC50100EB81
:1025500081010B658A6400234B65012381F83D30BE
:1025600001F83C5F0369012B00D10A612207027C5C
:10257000006803D004F006FD002070BD04F0F2FBFB
:10258000FAE700002DE9FC5F05680446284604F0E0
:1025900022FE00287ED1206804F049FE002879D070
:1025A000206804F044FE800704D52168486900F0E3
:1025B00002004861206804F03AFEC10604F571701B
:1025C000009034D52068816921F0100181612F6A63
:1025D00007F00F00C0EBC00004EB8006C7F34340D8
:1025E00006F5FE76022802D0062811D01AE047F63A
:1025F000F070074216D0C7F30A1217462846F16852
:1026000004F019FEF0683844F060B069384408E01E
:1026100008222846009904F00EFEB069C7F30A119B
:102620000844B0612068816941F01001816120682F
:1026300004F0FDFD00034FF0010A4FF0080B5BD5DD
:102640000026206804F0D2FD0746DFF8689351E0C9
:10265000F8074DD0F1B2206804F0E1FD8046C007D4
:1026600007D005EB4611C1F808AB3146204602F011
:10267000DFFF5FEA087022D505EB4611C1F808BB01
:102680002068016C00EB46100191D0F8082B4945F9
:1026900007D900E08BE1110403D54FF40041C0F8E5
:1026A000081B204600F076FA0198484507D92069B2
:1026B000012804D120680121009A04F0DFFB5FEAC1
:1026C000C86004D505EB46111020C1F8080B5FEA7D
:1026D000886004D505EB46112020C1F8080B5FEA9D
:1026E000884005D505EB46104FF40051C0F8081B93
:1026F0007F08761C002FABD1206804F098FD4003C2
:102700004FF000095CD5206804F069FD07460026FB
:1027100054E0F80750D0F1B2206804F06EFD804616
:10272000C00723D006F00F020AFA02F0D5F83428C9
:102730008243C5F8342805EB4610C0F808A9206983
:1027400001280FD1C6EBC60004EB8000D0E91121AF
:102750001144816436B9206D20B920680121009AA6
:1027600004F08CFBF1B22046FFF7E9FD5FEA087048
:1027700003D505EB4611C1F808B95FEAC86004D576
:1027800005EB46111020C1F808095FEA486004D53E
:1027900005EB46114020C1F808095FEA887004D5AE
:1027A00005EB46110220C1F808095FEA086003D56D
:1027B0003146204602F0A2FF7F08761C002FA8D1E8
:1027C000206804F034FD002811DAD5F8040820F060
:1027D0000100C5F8040894F8F403012829D0204624
:1027E00000F0BCF92068416901F0004141612068B6
:1027F00004F01DFD00050BD5D5F80808C00702D070
:10280000204600F0EFF92068416901F40061416160
:10281000206804F00CFDC00468D5D5F8040820F049
:102820000100C5F804081021206804F0B5FC00215F
:1028300027E084F8F49300212046FFF755FDD1E707
:1028400005EB41104FF67F32C0F80829D0F8003967
:1028500023F40013C0F80039D0F8003943F00063C6
:10286000C0F80039C0F8082BD0F8002B22F4001271
:10287000C0F8002BD0F8002B42F00062C0F8002B0B
:10288000491C60688842DBD8D5F81C0840F001106C
:10289000C5F81C08206B60B1D5F8840840F00B0027
:1028A000C5F88408D5F8440840F00B00C5F8440882
:1028B0000CE0D5F8141842F22B000143C5F81418A7
:1028C000D5F8100840F00B00C5F81008D5F800083E
:1028D00020F4FE60C5F80008217C2068009A04F00E
:1028E000CDFA2068416901F480514161206804F00B
:1028F0009EFC800415D5206804F08EF8206804F052
:102900005DFCE06000F020FA0146227B206804F0C4
:10291000C9FC204600F00CF92068416901F400511F
:102920004161206804F083FC000707D5204600F0D1
:1029300019F92068416901F008014161206804F03B
:1029400076FCC00208D50021204600F035F820684A
:10295000416901F480114161206804F068FC800243
:1029600008D50021204600F02BF82068416901F4C9
:1029700000114161206804F05AFC400007D5204650
:10298000FFF7D9FC2068416901F08041416120686E
:1029900004F04DFC40070AD520684568680702D559
:1029A0002046FFF7DFFC2068416829434160BDE80D
:1029B000FC9F00000A30544FD0F8040403F026BDF9
:1029C000D0F8040403F032BD2DE9F0418AB00400D0
:1029D00005D094F8BD032668002520B108E0012049
:1029E0000AB0BDE8F08184F8BC53204600F05EF8E0
:1029F000032084F8BD03F06BC00500D42561206876
:102A000004F0AAF904F11001282288466846FDF76F
:102A100008FC94E80F0004F00DF80226C8BB002162
:102A2000206804F016FC002001270EE0C0EBC00176
:102A300004EB810181F83D7001F83C0FC880CD7036
:102A40008D60CD60401CC0B24D6161688142EDD89F
:102A5000002011E0C0EBC00104EB810181F8FD51C1
:102A600081F8FC0181F8FF51C1F80452C1F8085205
:102A7000401CC0B2C1F8105261688142EAD82822D5
:102A800041466846FDF7CDFB94E80F0004F0AAF834
:102A900010B184F8BD63A2E784F8385084F8BD73A0
:102AA000206804F091F800209AE7000010B586B085
:102AB000044614216846FDF7CDFB2068B0F1A04F15
:102AC0002FD119480021026842F00102026000681B
:102AD00000F0010005904FF4C05000900220CDE9B5
:102AE0000101032003900A20049069460F48FEF775
:102AF000EDFC0D48001D016841F0800101600A48AD
:102B00001430016841F4804101600068002200F443
:102B10008040059011464320FFF7B4FB4320FFF7A8
:102B2000A4FB06B010BD0000303802400000024097
:102B300070B50446C068012570B1022801D0FDF7C8
:102B40004BFE2946D4F8040403F0DCFCD4F804045A
:102B5000BDE8704003F08FBC0025F2E7D0F8040414
:102B600003F0B6BCD0F8040403F0BCBC10B50446B6
:102B700090F8BC0301280BD0012084F8BC0384F832
:102B80003810206804F07CFB002084F8BC0310BDE2
:102B9000022010BDD0F8042400F57171104603F036
:102BA000BDBC10B50446006894F8BC13012906D0DA
:102BB000012184F8BC13A16A012902D008E0022097
:102BC00010BDA169012903D0816B41F4803181637B
:102BD000206804F0CBFA206803F0E8FF002084F8B6
:102BE000BC0310BD10B50446D0F8040403F0D8FCB3
:102BF0002068D0F8001E41F00101C0F8001E206AD4
:102C0000002804D00248016841F00601016010BDAF
:102C100010ED00E02DE9F0470E46050065D0DFF825
:102C20001481D8F80000F7B200F00700B04207D2D4
:102C300088F80070D8F8000000F00700B04254D1C6
:102C400028683D4C810712D5400703D5206840F421
:102C5000E05020602878000703D5206840F46040E9
:102C600020602068A96820F0F000084320602878E0
:102C7000C0072DD0304968680839012812D00228D1
:102C800013D0032811D00968890700292DDA21689B
:102C900021F0030101432160FEF718FD814641F256
:102CA000883A0EE009688903EFE709688901ECE7D3
:102CB000FEF70CFDA0EB0901514502D90320BDE848
:102CC000F0872068696800F00C00B0EB810FEFD14D
:102CD000D8F80010404601F00701B14207D907704B
:102CE000006800F00700B04201D00120E7E7287833
:102CF000400705D52068E96820F4E05008432060CB
:102D00002878000706D52068296920F4604040EA49
:102D1000C100206000F03EF82168084AC1F30311A9
:102D2000515CC8400649086006480068FFF754FA3D
:102D30000020C4E7003C0240083802405A810008E5
:102D4000940000208C0000200148006870470000BB
:102D5000940000200448054900680968044AC1F34A
:102D60008221515CC840704794000020083802401E
:102D70006A8100080448054900680968044AC1F3EB
:102D80004231515CC840704794000020083802402E
:102D90006A810008154810B5006810F00C0214484C
:102DA00013D01449042A0FD0082A0ED10F4C241F27
:102DB0002268236802F03F025B0207D52068C0F357
:102DC0008810A0FB010106E0084610BD2168C1F390
:102DD0008811A1FB00010023FDF7F2F92168C1F37E
:102DE0000141491C4900B0FBF1F010BD0838024018
:102DF0000024F40080969800F0B51F4C16460D464E
:102E00001D4B002102220327283C0028186887B0A8
:102E100019D040F004001860186800F00400059014
:102E200010020090CDE90121CDE9037169461348F4
:102E3000FEF74CFB206845EAC60120F078400843C5
:102E4000206007B0F0BD40F001001860186800F085
:102E5000010005904FF480700090CDE90121CDE98B
:102E6000037169460648FEF731FB2068354320F0C0
:102E7000EC602843E4E700003038024000080240DC
:102E8000000002402DE9F84F04006ED02078DFF8F2
:102E90004C93C007A9F104054AD009F10400016868
:102EA000C1F38101012908D00068C0F38100022824
:102EB0000AD1D9F80000400206D52868800337D52A
:102EC00060680028E1D033E06068B0F5803F10D042
:102ED000B0F5A02F286810D020F480302860286832
:102EE00020F4802028606068A8B1FEF7EFFB06465A
:102EF0000DE0286840F48030F4E740F4802028603A
:102F0000F7E700BFFEF7E2FB801B642873D8286850
:102F10008003F7D50CE0FEF7D9FB064605E000BFBD
:102F2000FEF7D4FB801B6428F0D828688003F7D410
:102F30002078DFF8AC8280074FF0000A3ED5A74822
:102F4000001D016811F00C0F08D00068C0F381006B
:102F500002280BD1D9F80000400207D42868800766
:102F600016D5E068012800D112E033E1E068B8B17D
:102F70000120C8F80000FEF7A9FB064605E000BFE7
:102F8000FEF7A4FB801B0228C0D828688007F7D56D
:102F90002868216920F0F80040EAC10028600DE0AF
:102FA000C8F800A0FEF792FB064604E0FEF78EFB91
:102FB000801B02281FD828688007F7D420780007D4
:102FC00022D5864F87486169703771B10121016050
:102FD000FEF77CFB064604E0FEF778FB801B022828
:102FE00009D838688007F7D50EE0C0F800A0FEF7D2
:102FF0006DFB064605E082E0FEF768FB801B0228B9
:103000007DD838688007F7D42078400768D5DFF886
:10301000CCB100270BF13C0BDBF80000C0000BD457
:10302000DBF8001041F08051CBF80010DBF8000015
:10303000012700F0805000906B4E3068C00510D41E
:10304000306840F480703060FEF740FB009005E08F
:10305000FEF73CFB0099401A022850D83068C005A2
:10306000F6D55E4EA0686C3601280FD00528306872
:1030700010D020F001003060306820F00400306093
:10308000A068B8B1FEF722FB00900FE0306840F076
:103090000100F4E740F004003060F7E7FEF716FBAC
:1030A0000099411A41F28830814266D83068800721
:1030B000F4D50EE0FEF70AFB009007E0FEF706FBF2
:1030C0000099411A41F28830814256D83068800711
:1030D000F4D42FB1DBF8001021F08051CBF80010B0
:1030E000A069C8B33D49091D0968C1F381010229DE
:1030F0004AD00228504607D0C8F8600000E03CE003
:10310000FEF7E4FA04463BE04746C8F86000FEF7E5
:10311000DDFA064605E000BFFEF7D8FA801B02285C
:103120002BD828688001F7D4D4E907010843A16AA5
:103130002E4A490802EB0141626A41EA82110843C2
:1031400094F82C1040EA0161C9F80010012038669B
:10315000FEF7BCFA044606E03EE000BFFEF7B6FA12
:10316000001B022809D828688001F7D534E000BF89
:10317000FEF7ACFA001B022802D90320BDE8F88F45
:1031800028688001F4D427E00128F7D0D9F800009E
:10319000E26900F4800191421CD1226A00F03F01F3
:1031A000914217D147F6C071626A0140B1EB821FAC
:1031B00010D1A26A4FF0FF3300F4403103EB52020A
:1031C000B1EB024F06D194F82C1000F07060B0EB18
:1031D000016F01D00120D1E70020CFE70438024081
:1031E00000004742800E4742007000400000FFFF91
:1031F00010B5040011D0022084F851002068016845
:1032000021F040010160204600F0E6F800206065F2
:1032100084F8510084F8500010BD012010BD7047A3
:1032200038B5016804464A688868C043430606D535
:10323000C30704D1D3435B0601D4216C05E08307A7
:1032400008D4D3431B0605D4616C01B02046BDE809
:1032500030400847830603D5430601D5C30551D442
:10326000D3439B064ED443060AD494F85130032B23
:1032700049D0636D43F004036365CB688B680093AA
:10328000830609D4636D43F0010363658B68009383
:103290000B6823F040030B60C00506D4606D40F05E
:1032A00008006065206880680090606D002829D063
:1032B0002068416821F0E0014160012084F851005C
:1032C000900701D4D00722D02068416821F0030183
:1032D0004160114DE06C40B10565E06CFDF754FEB6
:1032E00018B1606D40F040006065A06C002809D006
:1032F0000565A06CFDF748FE002803D0606D40F026
:103300004000606538BDC8688868009038BD2046B8
:10331000FFF785FF38BD0000AD57000870B5040009
:1033200009D0606A002540B125616561A56294F805
:10333000510040B10CE0012070BD6068B0F5827FA3
:10334000F4D0E561F2E784F85050204600F060F8D0
:10335000022084F851002068016821F040010160DA
:10336000A088218900F4827001F404410843A189F6
:1033700001F400610843217C01F002010843217D32
:1033800001F001010843218B01F400710843217F02
:1033900001F03801084394F8201001F0800108433F
:1033A000218D01F40051084321680860A0690421BF
:1033B00001EA104094F8241001F01001084321683C
:1033C00048602068C16921F40061C1616565012020
:1033D00084F85100002070BD10B50068094988428A
:1033E0000ED10948016821F4804101604FF4444145
:1033F0000648FDF763FFBDE810402420FEF724BF18
:1034000010BD000000380040403802400004024077
:1034100010B586B0044614216846FCF71BFF184916
:103420002068884229D117480021026842F480426E
:103430000260006800F4804005901248103802686D
:1034400042F002020260006800F0020005904FF4B2
:10345000444000900220CDE90101032003900520A3
:10346000049069460848FEF731F8002211462420EE
:10347000FEF708FF2420FEF7F8FE06B010BD00009E
:1034800000380040403802400004024010B5401EA1
:10349000B0F1807F01D3012010BD4FF0E0246061C6
:1034A0000F21601703F085FF0020A0610720206135
:1034B000002010BD7047704770B590F83C20012A7D
:1034C00032D0012480F83C40022280F83D2003687D
:1034D0005A689D6822F070060A6832435A60134B9E
:1034E00002689A4214D0B2F1804F11D0104B9A4228
:1034F0000ED0104B9A420BD00F4B9A4208D00F4B74
:103500009A4205D00E4B9A4202D00E4B9A4204D1F9
:10351000496825F080031943916080F83D400021FF
:1035200080F83C10084670BD022070BD00000140CC
:103530000004004000080040000C0040000401406E
:10354000004001400018004010B5040003D094F87A
:103550003D0010B107E0012010BD002084F83C00C0
:10356000204600F01FF8022084F83D00211D20684D
:1035700002F0AAF9012084F8460084F83E0084F89D
:103580003F0084F8400084F8410084F8420084F849
:10359000430084F8440084F8450084F83D0000208E
:1035A00010BD000008B501683048B1F1804F0BD064
:1035B0002F4A914210D1016841F004010160006876
:1035C00000F00400009008BD016841F001010160B5
:1035D000006800F00100F5E7264A914207D1016832
:1035E00041F008010160006800F00800EAE7224AA3
:1035F000914207D1016841F010010160006800F0BC
:103600001000DFE71D4A91420ED1016841F0200110
:1036100001600068002200F0200000901146372071
:10362000FEF730FE37201DE01048154A001D91427C
:1036300007D1016841F002010160006800F002005A
:10364000C0E7104A9142BED1016841F48031016067
:103650000068002200F48030009011461820FEF728
:1036600011FE1820BDE80840FEF7FFBD40380240BB
:1036700000080040000C0040001000400014004012
:10368000000401400040014090F83D10012901D0A4
:1036900001207047022180F83D10006811498842DE
:1036A00014D0B0F1804F11D00F4988420ED00F498D
:1036B00088420BD00E49884208D00E49884205D076
:1036C0000D49884202D00D49884204D1816801F039
:1036D0000701062903D0016841F0010101600020C3
:1036E0007047000000000140000400400008004056
:1036F000000C004000040140004001400018004060
:1037000090F83D10012901D001207047022180F876
:103710003D100168CA6842F00102CA6000681149A0
:10372000884214D0B0F1804F11D00F4988420ED09A
:103730000E4988420BD00E49884208D00D49884274
:1037400005D00D49884202D00C49884204D18168D5
:1037500001F00701062903D0016841F00101016071
:1037600000207047000001400004004000080040B5
:10377000000C0040000401400040014000180040DF
:103780000168CA6822F00102CA6001680A6A41F24F
:1037900011131A4207D10A6A9B101A4203D10A6810
:1037A00022F001020A60012180F83D1000207047DC
:1037B00070B5044690F83C00012817D0012584F824
:1037C0003C50022084F83D002068826822F0770295
:1037D00022F47F4282600868502830D00DDC202817
:1037E0004DD005DC98B310283BD148E0022070BDD5
:1037F000302844D0402834D139E0602828D07028BF
:1038000006D0B0F5805F2CD0B0F5005F29D10AE07A
:10381000CB68D1E90121206802F0BAF820688168FC
:1038200041F0770109E0CB68D1E90121206802F07D
:10383000AFF82068816841F48041816011E0CA6876
:103840004968206802F0B6F85021206807E016E0C9
:10385000CA684968206802F0BEF86021206802F05A
:10386000A1F884F83D50002084F83C0070BDCA687F
:103870004968206802F09EF840212068EFE722683E
:1038800001461046EBE7704770B5044600680169D1
:103890004FF00005C943890715D4C168C94389079A
:1038A00011D4E91E0161012020772068806980071A
:1038B000204602D0FFF7E7FF04E000F098F820462A
:1038C00000F096F8257720680169C943490717D4A5
:1038D000C168C943490713D46FF004010161022094
:1038E00020772068806910F4407F204602D0FFF7DF
:1038F000CAFF04E000F07BF8204600F079F8257755
:1039000020680169C943090716D4C168C94309077A
:1039100012D46FF008010161042020772068C0698B
:103920008007204602D0FFF7AEFF04E000F05FF80A
:10393000204600F05DF8257720680169C943C90673
:1039400017D4C168C943C90613D46FF010010161CF
:10395000082020772068C06910F4407F204602D0FC
:10396000FFF791FF04E000F042F8204600F040F835
:10397000257720680169C943C90708D1C168C943CF
:10398000C90704D1891E0161204600F033F8206880
:103990000169C943090609D4C168C943090605D4A8
:1039A0006FF0800101612046FFF784FD2068016906
:1039B000C943490609D4C168C943490605D46FF013
:1039C00040010161204600F0A7F820680169C94361
:1039D00089060BD4C168C943890607D46FF020015A
:1039E00001612046BDE87040FFF765BD70BD7047BE
:1039F000704700002DE9F04105463F48002685420A
:103A000012D13E4C2078401CC0B22070022800D356
:103A1000267005213A4803F077FE39480521143015
:103A200003F072FE05206070364885421ED136488C
:103A3000B0F8DA1A012907D0314C32340127608AF4
:103A400048B1012809D011E0B0F88C1A41F0040106
:103A5000A0F88C1A07E0678208E02848163004F0C6
:103A600023F8E78066802748FFF78AFE27488542CB
:103A70003FD127484388B0F914105C18A0F64811CC
:103A80000A88A2F11905AC4202DA8289521C04E0CC
:103A90001932944202DD8289521E8281B0F91620C9
:103AA00049881A44A1F119039A4202DAC189491CD2
:103AB00004E019318A4202DDC189491EC18183892E
:103AC0004FF4FA52D110934201D9828102E08B4225
:103AD00000D28181C389934201D9C28102E08B4225
:103AE00000D2C1810B4982890B685A630968C08979
:103AF0008863BDE8F0810000F01301200000002081
:103B000024100120D0120120E04D0020801401205B
:103B1000980D0020881E01207047704770470000F4
:103B200010B504460068C16821F0C001C16020687A
:103B300041694FF020020B064FF000010FD5436999
:103B400023F080034361606B48B109490165606BF4
:103B5000FDF71AFA48B1606B016D884705E0E18412
:103B600084F83D202046FFF7D9FF002010BD00005B
:103B70000B5A000870470000F8B502680446106848
:103B8000D168536910F00F0F4FF0000553D003F0C8
:103B9000010601F4907737435FD0C20705D0CA050C
:103BA00003D5226C42F001022264420705D5DA07F0
:103BB00003D0226C42F002022264820705D5DA07A4
:103BC00003D0226C42F004022264020707D501F000
:103BD0002002324303D0226C42F008022264226C9D
:103BE000002A34D0800604D5880602D5204601F08C
:103BF0002EFF20684069216CC0F38010090700D4B3
:103C000030B3204601F00BFF2068416949061BD5FF
:103C1000416921F040014161A06BA8B1594901659A
:103C2000A06BFDF7B1F9002811D0A06B016D01B0B8
:103C3000BDE8F040084783060FD58B060DD520461A
:103C4000BDE8F84001F003BF2046FFF793FFF8BD41
:103C50002046FFF78FFF2564F8BD266B2023012E39
:103C600053D1C60651D5CE064FD510685068009086
:103C7000506940062BD5A16B086840680004000C11
:103C8000EAD0A68D8642E7D9E085C869B0F5807F85
:103C900018D0D06820F48070D0602068416921F08D
:103CA000010141612068416921F04001416184F8CE
:103CB0003E3025632068C16821F01001C160A06B0F
:103CC000FDF71BF9A08DE18D401A81B219E0A08D9E
:103CD000E18D401A81B2E08D0028BDD00029BBD013
:103CE000D06820F49070D0602068426922F0010210
:103CF000426184F83E3025632068C26822F01002D9
:103D0000C2602046FFF709FFF8BD05062BD50D065A
:103D100029D594F83D002128F6D1A068B0F5805F40
:103D200001D12069B0B1206A411C2162216800786C
:103D30004860E08C401E0004000CE084E4D1206860
:103D4000C16821F08001C1602068C16841F0400174
:103D5000C160F8BD206A0088C0F308005060206A86
:103D6000801C2062E5E74006F3D54806F1D5D1680E
:103D7000204621F04001D16084F83D3000F0E8F8A1
:103D8000F8BD0000FB59000870B5040004D094F899
:103D90003D00002510B106E0012070BD84F83C50C4
:103DA000204600F023F8242084F83D002068C168F4
:103DB00021F40051C160204601F0A0FE2068016995
:103DC00021F4904101612068416921F02A0141619B
:103DD0002068C16841F40051C1602564202084F846
:103DE0003D0084F83E00002070BD000070B586B034
:103DF000044614216846FCF72DFA2A4E2268002159
:103E00002948022303240725B24222D1264A14322C
:103E1000166846F010061660126802F0100205924D
:103E2000026842F001020260006802AA00F001008C
:103E3000059082E832006002CDE9000369461B4824
:103E4000FDF744FB002211462520FEF71BFA252032
:103E500024E0174EB24223D1134A1032166846F4BA
:103E600000361660126802F400320592026842F0D1
:103E700008020260006802AA00F00800059082E8CB
:103E800032006020CDE9000369460A48FDF71EFBB9
:103E9000002211462620FEF7F5F92620FEF7E5F967
:103EA00006B070BD001001403038024000000240F2
:103EB00000440040000C024090F83E30202B0ED110
:103EC00059B152B190F83C30012B08D0012380F851
:103ED0003C300023036301F097BE012070470220AD
:103EE0007047000030B4164C002216494FF40063AE
:103EF000A0420DD1488C401C80B24884984200D129
:103F00004A841048498C2430014401220C4812E0B4
:103F10000D4CA04212D1B1F82A08401C80B2A1F881
:103F20002A08984201D1A1F82A28B1F82A1807488E
:103F300001220144044830BCFFF7BEBF30BC7047CB
:103F4000C8140120E00D00200C1501200C160020E3
:103F500030B40F4C002301220E49A04207D10E4875
:103F6000A1F86628A1F86438828020460AE00B4C4C
:103F7000A0420AD10848A1F802299C30A1F80039D2
:103F80008280204630BCFFF7CBBD30BC70470000BC
:103F9000C8140120E04D0020480E01200C1501201E
:103FA000FEE700000148FDF799BB0000D011012099
:103FB0000148FDF7F0BB0000D01101200148FDF7DA
:103FC000EABB00002412012038B5806B002190F874
:103FD0003D202B4B46F2A8141B68B3FBF4F3C3EB54
:103FE000C30303EB830300933BB15B1E00930368A1
:103FF0001B689B0505D5009BF6E7036C43F0200387
:104000000364436B03B1D963836B03B1D963036862
:104010001C6824F480641C604185436B03B11965FE
:10402000836B03B1196503681C6824F001041C60EC
:1040300090F83D402023602C0BD0282434EA020263
:104040000FD080F83D3080F83E1000BFFDF7D5FC62
:1040500038BD80F83D3080F83E100164FDF73CFB30
:1040600038BD0268136843F00103136002681368E7
:1040700043F480631360016380F83D40E6E700008D
:104080009400002070B5044690F83D0094F83E106E
:10409000102901D0402906D1222804D121680A68BC
:1040A00022F400620A60282131EA00024FF0000584
:1040B0004FF0200626D021684968090505D46028FC
:1040C00003D084F83D6084F83E5025632068416841
:1040D000090537D5416821F400614160606B90F8B3
:1040E00035203C49012A11D00165606BFCF74CFF7B
:1040F00038B32068016821F00101016084F83D6057
:10410000606B1CE0256384F83D10DFE7A06B016560
:10411000A06BFCF739FFA0B120684169C94349068B
:1041200005D40069616A0870606A401C606220689A
:10413000016821F00101016084F83D60A06B016D10
:10414000884710E094F83D10602910D04169C943B8
:10415000490605D40069616A0870606A401C6062A3
:104160002046FDF74AFC206CC1071CD115E084F8FD
:104170003D6025644169C943490605D40069616A07
:104180000870606A401C60622068016821F00101CB
:1041900001602046FDF7A0FAE5E7810703D4410757
:1041A00001D4000704D52068416821F4E061416032
:1041B00094F83D00216C49070BD5282809D1064801
:1041C000E062256384F83D6084F83E502046FDF7A8
:1041D000D9FC70BDC93F00080000FFFF01684A69B3
:1041E000D24352050FD46FF480624A61002140F837
:1041F000301F202242738173026942F0040202617F
:104200000173012070470020704710B5C26A438DCA
:104210000168042B06D0438D032B08D0438D022B5D
:104220001DD012E04A6822F480624A600CE04B68BC
:1042300023F480634B60042A06D0022A04D001686C
:104240000A6822F480620A6001680969426A117092
:10425000416A491C4162418D491E418510BD012AB8
:1042600030D0102A2ED0042A30D0022A2ED00A684C
:1042700042F400720A6001680969426A1170416A79
:10428000491C4162428D521E4285026812690A70C1
:10429000416A491C4162418D491E418501684A6855
:1042A00022F440724A60202180F83D1090F83E20B0
:1042B0000021402A80F83E100CD012210163FDF746
:1042C00063FC10BD0A6822F48062D3E70A6842F4F6
:1042D0008062CFE70163FDF7E7FE10BD38B590F8C7
:1042E0003D10222914D1418D032912D90168096991
:1042F000426A1170416A491C4162418D491E4185E3
:10430000418D032904D10068416821F48061416036
:1043100038BDC26A022AFBD0012901D00029F7D199
:10432000274946F2A81300220968B1FBF3F101EB1B
:104330008101009101682023009C641E009422D01A
:104340000C68A405F8D40C6824F480640C6001683F
:104350004C6824F4E0644C6001680969446A217087
:10436000416A491C4162418D491E418580F83D30BA
:1043700090F83E1080F83E2040291DD012210163A4
:10438000FDF702FC38BD046C44F0200404644C6862
:1043900024F4E0644C6001680969446A2170416A50
:1043A000491C4162418D491E418580F83D3080F8AD
:1043B0003E20FDF722FB38BD0263FDF775FE38BDD8
:1043C000940000202DE9F84F0446C06A1E4693462B
:1043D0000D4621680A6842F480620A60082807D006
:1043E000012805D010F5803F02D0206B112804D1A0
:1043F0002068016841F4807101604FF001195B464B
:10440000002249462046009600F06EFB4FF40078EB
:1044100040B120680068C00501D5C4F84080032081
:10442000BDE8F88F2069DFF884A0B0F5804F0FD089
:104430000620216800EAD51747F0F00008613346EE
:104440005A460AF10601204600F082FB58BB03E001
:10445000E8B240F001001CE02168E8B20861334690
:104460005A465146204600F073FBE0B92068416986
:1044700081690091016841F4807101605B4600220E
:1044800049462046009600F02FFB0028C1D147F096
:10449000F1002168086133465A465146204600F033
:1044A00057FB0028BCD00120BAE700000200010041
:1044B000F8B50446C06A1E460D461746082807D0C0
:1044C000012805D010F5803F02D0206B122804D1BE
:1044D0002068016841F480710160134600224FF0AA
:1044E00001112046009600F0FFFA40B120680068F4
:1044F000C00502D54FF4007020640320F8BD206988
:10450000B0F5804F0ED00620216800EAD51040F0AB
:10451000F000086133463A460B49204600F018FB8C
:1045200078B902E005F0FE0000E0E8B22168086119
:10453000054933463A46891F204600F009FB00280A
:10454000DCD00120F8BD00000800010010B5C16AF0
:1045500090F83D20212A0BD1428D52B1416A026868
:1045600009781161416A491C4162418D491E4185AA
:1045700010BD00222023082910D020290ED011F5CB
:10458000803F0BD001684C6824F4E0644C6011213A
:10459000016380F83E2080F83D300EE001684C68F1
:1045A00024F4E0644C6001680C6844F400740C600E
:1045B000026380F83D3080F83E20FDF709FB10BD16
:1045C00010B590F83D1090F83E30C26A048DB4B139
:1045D000212903D0402B11D122290FD1418DE1B3E4
:1045E00090F83E10402942D0416A02680978116172
:1045F000416A491C4162418D491E418510BD2129F6
:10460000E8D120230021082A13D0202A11D012F546
:10461000803F0ED00268546824F4E0645460112294
:10462000026380F83E1080F83D3000BFFDF7D0FAFD
:1046300010BD0268546824F4E06454600268146891
:1046400044F400741460016380F83D3090F83E201B
:1046500080F83E10402AE9D100E002E0FDF725FD98
:1046600010BD0068416821F48061416010BDBDE863
:10467000104000F0D3B8000078B590F83E50C26A00
:10468000036B90F83D6000240168222E7AD1066DFC
:104690000EB9402D76D0056D1DB90569B5F5404FB1
:1046A00009D0458D05B3468D384D012E0ED0438D72
:1046B000022B3AD05DE04A698A6900920A6842F4A6
:1046C00080720A60016D491C016578BDAA4213D150
:1046D0000A6822F480620A6001684A68120503D5FC
:1046E0000A6822F4806216E04A698A6900920A68C0
:1046F00042F400720A6039E0082A10D0202A0ED055
:10470000122B0AD0042A03D0022A01D0102AE7D1A2
:104710000A6842F480620A6024E0012AE0D00A6854
:1047200022F480620A600168DEE7042A21D0022AAE
:104730001FD0102A1DD00B6823F480630B60016822
:104740000B6843F400630B6001684B681B0509D5D7
:10475000AA4212D0012A10D0082A0ED0102A0CD05A
:10476000202A0AD001684A6989690091046578BDE8
:1047700008E00B6843F48063E5E74A6842F480523E
:104780004A60EFE7486988690090F0E70000FFFFA2
:1047900090F83E10402910D00169B1F5804F19D032
:1047A000016DA9B3016D012910D1416C5FF0F102D7
:1047B00001F4407142EAD11106E0016D0029416C1B
:1047C00005D0C9B241F0010100680161704701F0F4
:1047D000FE01F9E790F83D102129416C09D0C9B2DA
:1047E00041F0010102681161416B29B1C96B49B9FE
:1047F00002E001F0FE01F5E7816B0029E6D0C96B0C
:104800000029E3D00068416841F4006141607047CD
:10481000FFE7416CF02201F44071CBE710B590F84E
:104820003D10026D22B3026D012A2FD0026D022AC3
:104830001DD1222931D0428D0AB1212933D0428D98
:10484000002A14D1212912D101684A6822F4E062B9
:104850004A6001680A6842F400720A60002101633C
:10486000202280F83D2080F83E10FDF71EFC10BD90
:10487000C16C0129816C02D0C1F3072108E00268F4
:10488000C9B21161016D891C016510BD816CC9B28D
:1048900002681161016D491CF6E70068016841F486
:1048A0008071016010BD416A026809781161416A36
:1048B000491C4162418D491E418510BD2DE9F041E1
:1048C00090F83D40C26A002320261C4F01686FF417
:1048D0008065082A01D0202A01D1282C04D0212C5F
:1048E00016D04D61BDE8F081C7624A6822F4E062EB
:1048F0004A6001684D6101680A6822F480620A60BA
:10490000036380F83D6080F83E30FDF73BF9E9E74E
:10491000C7622122026380F83D6080F83E304A6819
:1049200022F4E0624A6001684D6101680A6822F47D
:1049300080620A60FDF72DFCD4E700000000FFFF55
:10494000F8B590F83D6004460068416821F4E061E4
:1049500041602068002541690091016841F0010132
:1049600001602068016821F480610160206841686D
:10497000090520D5474F222E48D02A2E46D0616BFC
:10498000096849686185618D19B1216C41F00401A4
:104990002164416821F400614160606BFCF706FB13
:1049A000012808D0606B0765606BFCF7EDFA10B169
:1049B000606B016D8847608D08B320684169C94309
:1049C000490708D40069616A0870606A401C606227
:1049D000608D401E608520684169C943490608D43E
:1049E0000069616A0870606A401C6062608D401EE8
:1049F0006085608D18B1206C40F004002064206C4C
:104A000000B32046BDE8F840FFF73CBBA16B096846
:104A100049686185618D19B1216C41F004012164FF
:104A2000416821F400614160A06BFCF7BFFA0128E6
:104A3000C1D0A06B0765A06BFCF7A6FA0028BAD01E
:104A4000A06BB6E72A2E06D12563282084F83D0006
:104A50002046FDF79DFB94F83D10202028290DD01D
:104A6000216B222901D0222E07D1256384F83D0035
:104A700084F83E502046FDF78BFBF8BD0649E16205
:104A8000256384F83D0084F83E502046FDF77AF80F
:104A9000F8BD0000C93F00080000FFFF70B51646D2
:104AA0000D4604460DE02046FFF798FB08B10120B3
:104AB00070BD681C05D0FCF709FE801BA84207D812
:104AC00035B120684069C0434007ECD4002070BD78
:104AD000002044F8300F20216173A073216941F058
:104AE000200121612073E2E72DE9F0471E46904640
:104AF0000D460446C1F30747DDF8209008E0701C1E
:104B000006D0FCF7E3FDA0EB0900B0420FD876B168
:104B10002068012F18D0806925EA00000004000CED
:104B200014D000214145EAD00020BDE8F0870020E4
:104B300044F8300F20216173A073216941F02001F6
:104B4000216120730120F0E74069E5E70121E9E7F1
:104B50002DE9F0479A4691460E46044600254FF04F
:104B60002008C1F3074725E020684069C04340059D
:104B700014D42068016841F40071016021686FF469
:104B800080604861256384F83D8084F83E50206C45
:104B900040F00400206484F83C501FE0B9F1FF3F6E
:104BA00008D0FCF793FDA0EB0A0149450CD8B9F1F8
:104BB000000F09D02068012F13D0806926EA000079
:104BC0000004000C0BD0CFE744F8305F84F80D8070
:104BD000A573206940F02000206125730120BDE805
:104BE000F0874069EAE72DE9F041002590460E463E
:104BF0000446202717E04069C043C0060CD454F88F
:104C0000301B6FF01000486144F810596777A577A2
:104C1000206A2062257717E0FCF758FDA0EB08001A
:104C2000B04208D83EB120684169C9434906E2D480
:104C30000020BDE8F08144F8305F6773A5732069F8
:104C400040F02000206125730120F2E770B5164680
:104C50000D4604460DE02046FFF7C0FA08B10120DA
:104C600070BD681C05D0FCF731FD801BA84207D839
:104C700035B120684069C0430006ECD4002070BD07
:104C8000002044F8300F20216173A073216941F0A6
:104C9000200121612073E2E7F0B500230A243025CA
:104CA00037261F4611E000BFB4EB107F02D905EB99
:104CB000107C01E006EB107C01F813C001EB430C03
:104CC00000015B1C8CF80170DBB29342ECD3F0BDA9
:104CD000014610B5204808293DD2DFE801F004065E
:104CE0000E171E262E36002230E001220221044635
:104CF000FCF7E7FC00220C2106E001220421044617
:104D0000FCF7DFFC00220A21204620E001220621D8
:104D10000446FCF7D6FC002205E0002206210446EA
:104D2000FCF7CFFC01220821EEE701220A2104460C
:104D3000FCF7C7FC00220421E6E701220C2104460F
:104D4000FCF7BFFC00220221DEE701220E21BDE8B4
:104D50001040FCF7B6BC10BD00180240F8B50D4677
:104D6000C0B2FFF7B5FF124E012250213046FCF7CA
:104D7000A8FC104C00202060024610213046FCF7B1
:104D8000A0FC0B48103001688906FCD4BFF34F8F9C
:104D9000BFF3608F206980B20090BDF800002880CA
:104DA0003046BDE8F84001225021FCF78ABC0000E3
:104DB00000180240001002401FB500211648009163
:104DC00001910291134A039102604FF48032C0E9CD
:104DD000012101240161047680F820100F4AC0E906
:104DE0000A21C461C16080F830104461FBF79FFD67
:104DF00008B1FBF7F1FC1020CDE900040620029079
:104E000069460548FBF7EAFC002801D0FBF7E4FC03
:104E10001FBD0000002001407C1001200100000F98
:104E20007FB50025384800950195029535490395D1
:104E3000016001244FF480310461C0E9011504765A
:104E400080F820503149C0E90A150826C661C560BE
:104E500080F830404461FBF76AFD08B1FBF7BCFC09
:104E6000CDE900540325694627480295FBF7B6FCB7
:104E700008B1FBF7B1FC0094022469462248019472
:104E8000FBF7ACFC08B1FBF7A7FC69461E48CDE96F
:104E90000045FBF7A3FC08B1FBF79EFC0424CDE919
:104EA000005469461848FBF799FC08B1FBF794FCDD
:104EB00000940524694614480194FBF78FFC08B15F
:104EC000FBF78AFC0094062469460F480194FBF71F
:104ED00085FC08B1FBF780FC0094072469460A486A
:104EE0000194FBF77BFC08B1FBF776FCCDE90046AB
:104EF00069460548FBF772FC002801D0FBF76CFC03
:104F00007FBD000000220140C41001200100000FFD
:104F10000D4810B50B4901601021416000218160EE
:104F2000C16001614161017641768176C176017788
:104F30004177FBF743FE002803D0BDE81040FBF7A4
:104F40004BBC10BD006400406C1101200D4810B531
:104F50000B4901601021416000218160C160016145
:104F60004161017641768176C17601774177FBF721
:104F700025FE002803D0BDE81040FBF72DBC10BD76
:104F800000680040941101201CB5002410490094D1
:104F90000E48019408600846FBF72FFF08B1FBF7A5
:104FA0001BFC00940022694609480194FBF702FFAC
:104FB00008B1FBF711FC102269460548FBF7FAFE21
:104FC000002801D0FBF708FC1CBD00000074004065
:104FD000BC110120094808B5016841F48001016055
:104FE0000068002200F48000009011463820FDF790
:104FF00049F9BDE808403820FDF737B9303802409C
:105000002DE9F04186B014216846FBF723F93948B1
:105010000024016841F020010160016801F02001D5
:105020000591016841F080010160016801F0800193
:105030000591016841F004010160016801F004017B
:105040000591016841F001010160016801F0010171
:105050000591016841F002010160016801F002015F
:105060000591016841F0080101600068224F00F0DD
:1050700008000590002206213846FCF722FBDFF8E5
:105080007C80002218214046FCF71BFB0920CDE95B
:105090000004694638460294FCF718FA062000908E
:1050A0000126CDE90164694638460394FCF70EFAFF
:1050B000C02000900225CDE9015469463846CDE96B
:1050C0000345FCF703FAE801CDE90005CDE9024507
:1050D00069460B480494FCF7F9F918200090CDE9D3
:1050E0000164694640460394FCF7F0F906B0BDE858
:1050F000F08100003038024000080240000C0240FD
:10510000000002400D4810B50B4901600C49416098
:1051100000214FF480428160C0E903124161816146
:10512000C1610162FCF76AFC002803D0BDE81040B1
:10513000FBF752BB10BD000000540040D01101200D
:10514000801A06000D4810B50B4901600C494160FA
:1051500000214FF480428160C0E903124161816106
:10516000C1610162FCF74AFC002803D0BDE8104091
:10517000FBF732BB10BD0000005800402412012094
:10518000801A0600104810B50E4901604FF4827174
:10519000416000218160C1604FF400720161C0E98B
:1051A00005123822C0E90721416281620A21C162E9
:1051B000FEF7B4F8002803D0BDE81040FBF70CBBA5
:1051C00010BD0000003800407812012010B586B0F4
:1051D00000241648009401940294039404944FF020
:1051E0008041059401605321C0E90114611EC0E9AA
:1051F00003148461FEF7A8F908B1FBF7EDFA4FF448
:105200008050009069460948FEF7D2FA08B1FBF7D2
:10521000E3FA049404A905480594FEF74DF9002823
:1052200001D0FBF7D9FA06B010BD0000D012012062
:1052300010B586B00024174800940194029403949A
:1052400004941349059401601421C0E9011449F63E
:105250003F41C0E903148461FEF776F908B1FBF71A
:10526000BBFA4FF48050009069460A48FEF7A0FA56
:1052700008B1FBF7B1FA049404A906480594FEF7B7
:105280001BF9002801D0FBF7A7FA06B010BD0000FB
:10529000000800401813012010B586B000241748FC
:1052A00000940194029403940494134905940160BA
:1052B00042F26B01C0E9011441F27071C0E90314BC
:1052C0008461FEF741F908B1FBF786FA4FF480508C
:1052D000009069460948FEF76BFA08B1FBF77CFAC3
:1052E000049404A905480594FEF7E6F8002801D0C7
:1052F000FBF772FA06B010BD000C004060130120ED
:105300001CB500240E4800940C49019401605321FF
:10531000C0E9011449F63F418461C160FEF714F908
:1053200008B1FBF759FA0094694605480194FEF765
:10533000C3F8002801D0FBF74FFA1CBD0010004055
:10534000A81301201CB500240F4800940D490194B6
:10535000016042F2CF01C0E901143221C160802115
:105360008161FEF7F1F808B1FBF736FA009469465F
:1053700005480194FEF7A0F8002801D0FBF72CFAAD
:105380001CBD000000140040F013012010B586B0D1
:10539000002418480094019402940394049414493E
:1053A0000594016053214160102181604FF47A71AE
:1053B000C0E9031444618461FEF7C6F808B1FBF745
:1053C0000BFA4FF48050009069460A48FEF7F0F956
:1053D00008B1FBF701FA049404A906480594FEF706
:1053E0006BF8002801D0FBF7F7F906B010BD0000FC
:1053F00000040140381401201FB50021104800911D
:10540000019102910D4A039102600522C0E9012138
:105410004FF47A72C0E903218161FEF795F808B173
:10542000FBF7DAF94FF48050009069460448FEF724
:10543000BFF9002801D0FBF7CFF91FBD00400140A4
:10544000801401200C4810B50A4901604FF4E13185
:105450004160002181600C22C160C0E904128161B9
:10546000C161FEF791FC002803D0BDE81040FBF7B6
:10547000B3B910BD00100140C81401200C4810B58C
:105480000A4901604FF4E1314160002181600C2242
:10549000C160C0E904128161C161FEF775FC00289A
:1054A00003D0BDE81040FBF797B910BD00440040A1
:1054B0000C15012010B500220F49104800F0A5FE80
:1054C00008B1FBF789F90E490C4801F091F808B1D1
:1054D000FBF782F90B49094800F0BDFC08B1FBF766
:1054E0007BF9064801F0FEF8002803D0BDE8104023
:1054F000FBF772B910BD00002400002050150120F8
:10550000740100207400002070B504463D48FDF78A
:105510006FFE3C493C4808606288002012B1012AB5
:1055200005D103E04FF482724A6000E04860A2882F
:1055300022B1012A04D0022A09D105E0886006E0E0
:105540004FF480628A6002E04FF400424A60E288D1
:1055500012B1012A05D101E0C86002E04FF40062F7
:10556000CA60228912B1012A04D101E0086101E078
:1055700002220A61628912B1012A04D101E0486164
:1055800001E001224A614FF400728A61E38910222E
:10559000082B0DD2DFE803F00406080A11131517D3
:1055A000C86105E0082302E0CA6101E01823CB616D
:1055B000238A53B1012B0CD109E02023F7E72823DC
:1055C000F5E73023F3E73823F1E7086201E08023B1
:1055D0000B62638A13B1012B03D101E0486200E042
:1055E0004A6288620A20C8620648FDF711FF054832
:1055F000FDF794FE002803D0BDE87040FBF7ECB83F
:1056000070BD000078120120003800404FF4E131F5
:10561000C0F8021000214181C18001817047FEE77E
:10562000704700000148FCF7ADBF0000401A0120A0
:105630002DE9F04103680D4604461E6C03EB45114D
:10564000D1F8080BD4F810E04FF400474FF0200CCD
:1056500004F57172BEF1010F09D0DFF898E07645CC
:1056600039D1020432D500BFC1F8087B3FE0224B9C
:105670005FEA007E04D59E4239D90004F4D436E0B6
:105680005FEA806E02D5C1F808CB30E010F0280F39
:105690002DD19E4201D90004E6D4C5EBC50004EB30
:1056A0008000D1F8101BD0F80432C1F31201591A4E
:1056B000C0F81412D0F808121944C0F8081295B9AD
:1056C000D4F8100278B9012120680AE080060AD5D2
:1056D000C1F808CB07E035B9D4F8100218B9002199
:1056E000184601F0CBFBE9B22046FCF731FE002062
:1056F000BDE8F0810A31544F0A30544F2DE9F84F7C
:105700000E46C1EBC60100EB810481460568D4E971
:1057100014103C34884202D90120BDE8F88F081AE1
:10572000A168814200D20846C01C870805EB4618D4
:105730001BE000BFA0EB010AA068504500D28246E2
:105740000AF10300870899F8100000901FFA8AF305
:10575000F2B22846E16801F019FEE16801EB0A00A7
:10576000E060A16901EB0A00A061D8F8180980B2D5
:10577000B84205D3D4E90501814201D20028D9D12C
:10578000D4E90501884208D806F00F0101208840BD
:10579000D5F834188143C5F834180020BDE77047A8
:1057A0000148FDF73DBD00007812012010B5806B67
:1057B0000021C187C186FDF732FD10BD7047017819
:1057C000407841EA00207047FCF7E4BC70B592B025
:1057D00030216846FAF73EFD14210CA8FAF73AFD8D
:1057E0001C480025016841F080510160006800F00C
:1057F000805011901848016841F4804101600068B0
:10580000022400F4804011900120009000040694CE
:10581000860101900520CDE90760A820CDE90904A3
:1058200007200B906846FDF72DFB0CA90F2081E89F
:1058300031004FF4A0500F90E002109005210CA809
:10584000FDF7E8F9002231461046FDF7D5FA12B00F
:1058500070BD0000403802400070004010480168F0
:1058600041F4700101600F48016841F001010160DD
:105870000C4A00210832116002680B4B1A4002608A
:10588000031D0A4A1A60026822F480220260054859
:105890000C300160024958068039086070470000EA
:1058A00088ED00E000380240FFFFF6FE10300024D3
:1058B0000148FDF7E9BF0000801401200148FDF711
:1058C000E3BF0000F0130120F0B50268254C264D1F
:1058D000264E274F274B4FF0804CA04209D0604501
:1058E00007D0A84205D0B04203D0B84201D09842B8
:1058F00004D122F0700E4A6842EA0E02A0421BD088
:10590000604519D0A84217D0B04215D0B84213D084
:10591000984211D0184DA8420ED0184DA8420BD075
:10592000174DA84208D0174DA84205D0164DA842E1
:1059300002D0164DA84203D122F44075CA682A430A
:105940004D6922F080022A4302608A68C2620A68B6
:105950008262A04201D0984201D10969016301210C
:105960004161F0BD0000014000040040000800401B
:10597000000C004000040140004001400044014090
:105980000048014000180040001C0040002000407A
:1059900010B5846842EA032224F47F440A43224378
:1059A000826010BD826822F070020A4342F0070153
:1059B0008160704710B5036A046A24F00104046230
:1059C000846924F0F00444EA021423F00A020A4332
:1059D0008461026210BD10B5036A23F010030362F4
:1059E0008369046A23F4704343EA023224F0A0037B
:1059F00043EA01118261016210BD10B5806B002184
:105A0000C185C184FEF7B6F810BD10B5806B0021CA
:105A1000C184202180F83D10FEF780F810BD016898
:105A2000CA6822F49072CA6001684A6922F00102D1
:105A30004A61016B012904D10168CA6822F0100291
:105A4000CA60202180F83E1000210163704710B524
:105A5000044690F83E00222801D0022010BDA16823
:105A60004FF48052914201D1206920B1A06A914245
:105A70001BD049B10AE02168A06A4968C1F3080156
:105A80000180A06A801C08E0216971B12168496821
:105A900001F07F010170A06A401CA062E08D401EF1
:105AA0000004000CE08503D01CE021684968F1E7A0
:105AB0002068C16821F02001C1602068C16821F41C
:105AC0008071C1602068416921F00101416120209D
:105AD00084F83E00206B012806D02046FEF702FA2B
