:020000040800F2
:10000000382801209D010008CD570008094200084A
:10001000CB570008DD060008117C00080000000036
:10002000000000000000000000000000C55E0008A5
:1000300049080008000000005B590008C75E00087E
:10004000B7010008B7010008B7010008B7010008B0
:10005000B7010008B7010008B7010008B7010008A0
:10006000B7010008B7010008B7010008B701000890
:10007000B7010008B7010008B7010008B701000880
:10008000810700088D070008B7010008B7010008C4
:10009000B7010008B7010008B7010008B701000860
:1000A000B7010008B7010008B7010008B701000850
:1000B000B15F0008B7010008BD5F000819420008E1
:1000C0000D42000825420008B7010008B7010008EA
:1000D00081590008416500084D650008B701000816
:1000E000B7010008B7010008B7010008B701000810
:1000F000B7010008B7010008B7010008B701000800
:10010000B7010008B7010008B7010008B7010008EF
:10011000B7010008B7010008B7010008C95F00086F
:1001200099070008B7010008B7010008B7010008E7
:10013000B70100080000000000000000B70100083F
:10014000B7010008B7010008B7010008D15700083F
:10015000B7010008B7010008B7010008B70100089F
:10016000B7010008B7010008B7010008B70100088F
:10017000B7010008B70100080000000000000000FF
:10018000B7010008B7010008DFF80CD000F08EF9C5
:10019000004800471D820008382801200648804793
:1001A00006480047FEE7FEE7FEE7FEE7FEE7FEE75C
:1001B000FEE7FEE7FEE7FEE75D5F00088901000855
:1001C0002DE9F05F0546002092469B46884606468C
:1001D000814640241BE0284641464746224600F01F
:1001E000F8F853465A46C01A914110D311461846A2
:1001F000224600F0DFF82D1A67EB01084F46224631
:100200000120002100F0D6F817EB00094E41201E16
:10021000A4F10104DFDC484631462A464346BDE8E6
:10022000F09F40EA01039B0703D009E008C9121FB1
:1002300008C0042AFAD203E011F8013B00F8013BA0
:10024000521EF9D27047D2B201E000F8012B491ECC
:10025000FBD270470022F6E710B513460A46044663
:100260001946FFF7F0FF204610BD30B504460020C8
:10027000034600E05B1C934203D2E05CCD5C401B74
:10028000F8D030BD2DE9FE4F81EA030404F00044AC
:1002900021F0004100944FF0000B23F0004350EA9E
:1002A00001045ED052EA03045BD0C3F30A54C1F3E5
:1002B0000A552C44A4F2F3340194A0FB0254C1F378
:1002C000130141F48011C3F3130343F4801301FBC2
:1002D000024400FB034E840A970A44EA815447EA29
:1002E0008357A4FB076802958D0A05FB07854FEA33
:1002F000932C04FB0C542705029D4FEA065847EA4D
:100300001637B5EB08056EEB070C870E920E47EA21
:10031000811742EA8312A7FB0201B6EB0B0164EBE3
:1003200000042B0D43EA0C335E1844EB1C50DA46F4
:100330005146E7FB0201C5F313044FEA0B3343EACE
:1003400014534FEA0432019C43EA0603A4F10C045F
:100350000294009CCDE900B400F05AF803B0BDE867
:10036000F08F00200146F9E70EB540F233410291CB
:100370000021CDE900110A460B4600F049F803B010
:1003800000BDC1F30A5210B5C1F3130140F2FF33AF
:1003900041F480119A4201DA002010BD40F233434B
:1003A0009A42A2F2334203DC524200F012F810BD2E
:1003B000904010BD202A04DB203A00FA02F1002010
:1003C00070479140C2F1200320FA03F31943904093
:1003D0007047202A04DB203A21FA02F000217047FE
:1003E00021FA02F3D040C2F120029140084319469D
:1003F000704710B5141E73F1000408DA401C41F177
:10040000000192185B411A4301D120F0010010BD98
:100410002DE9F04D92469B4611B1B1FA81F202E00E
:10042000B0FA80F220329046FFF7C4FF04460F4630
:1004300040EA0A0041EA0B0153465A46084313D0EA
:10044000114653EA010019D0C8F140025046FFF7A7
:10045000C0FF05460E46504659464246FFF7AAFFE2
:10046000084305D0012004E020463946BDE8F08D60
:100470000020054346EAE0762C4337430A9863059B
:10048000E40AA0EB08000022FD0A44EA47540A30BF
:1004900002D500200146E9E7010510196941DDE9AF
:1004A000084500196941BDE8F04DA2E7064C074D2B
:1004B00006E0E06840F0010394E807009847103434
:1004C000AC42F6D3FFF764FEACA10008CCA1000853
:1004D00070B58C1810F8015B15F0070301D110F806
:1004E000013B2A1106D110F8012B03E010F8016B33
:1004F00001F8016B5B1EF9D12B0705D40023521EB6
:100500000DD401F8013BFAE710F8013BCB1A921C1D
:1005100003E013F8015B01F8015B521EF9D5A1421B
:10052000D8D3002070BD10B50146806B026C12F06C
:10053000500F05D0026CD20626D500F02FFA10BD60
:10054000016C41F40071016401688A6812F0405F37
:1005500017D1027EAAB9CA6A12F4700F02D08A6853
:1005600052050ED44A6822F020024A60016C21F440
:1005700080710164016CC90403D4016C41F0010174
:10058000016400F009FA10BD806BC26CBDE8104038
:100590000846104710B5806B40210164416C41F062
:1005A0000401416400F0FAF910BD10B5806B00F051
:1005B000F4F910BD464910B54A6822F440324A6049
:1005C0004A6843681A434A6001684A6822F48072A4
:1005D0004A6001684A68036942EA03224A60016886
:1005E0004A6822F040724A6001684A6883681A4388
:1005F0004A6001688A6822F400628A6001688A6839
:10060000C3681A438A60816A6FF07062D1420168E0
:100610008A6822F070628A6001688A680CD0836AF6
:100620001A438A6001688A6822F040528A60016831
:100630008A68C36A1A4301E022F040528A60016866
:100640008A6822F002028A6001688A68037E42EAB0
:1006500043028A6090F82010002901684A680FD090
:1006600042F400624A6001684A6822F460424A60CB
:1006700001684A68174C436A04EB43331A4301E0AC
:1006800022F400624A600168CA6A22F47002CA62F7
:100690000168CA6A838B104C04EB03531A43CA6285
:1006A00001688A6822F400728A6001688A6890F89A
:1006B000303042EA43228A6001688A6822F480620C
:1006C0008A6001688A68406942EA8020886010BDBB
:1006D0000023014000E0FFFF0000F0FFFEE70020E4
:1006E000704700207047000010B5044B044A4FF4D7
:1006F0007A71044809F0E4FC002010BD5417012071
:1007000094160120A803002010B50A68014602488B
:1007100009F0A4FC002010BDA803002010B5846BD4
:10072000204600F0AFFB0120207110BD10B5846B96
:10073000204600F083FB0120207110BD10B5846BB2
:10074000206940F004002061204600F09DFB01205C
:10075000207110BD10B5846B206940F00400206149
:10076000204600F06DFB0120207110BD10B5806B9C
:1007700000F089FB10BD10B5806B00F060FB10BD70
:10078000014800F0FFBC000014130120014800F0F4
:10079000F9BC000074130120014800F0F3BC000014
:1007A0005012012001681823CAB2103AB2FBF3F2CA
:1007B000054B6FF30901032A9B5CC36500D9091D32
:1007C00081650846704700008CA1000810B50146FD
:1007D00000208B698A6A4FF0C07453B1B3F5005F93
:1007E00015D072B1012A0CD0022A0AD0032A09D1ED
:1007F00004E01AB1012A06D0022A03D1C96AC9014C
:1008000000D5012010BDC96AA142FAD010BD002A4E
:10081000F7D0012AF2D0022AF3D0032AF3D010BD78
:1008200030B50468256825F4802525600468636078
:100830008368402B036803D099600068C26030BDB4
:100840009A600068C16030BD7047704778B5002479
:10085000009490F83C20012A19D0012280F83C2015
:100860000A6807230568092A13D9EE680A3A02EBD9
:10087000420293409E43EE600B788A680A3B03EB8A
:1008800043039A400368DD682A43DA6010E00220DF
:1008900078BD2E6902EB420293409E432E610B7895
:1008A0008A6803EB43039A4003681D692A431A616F
:1008B0004A681F23072A13D205686E6B521E02EB8B
:1008C000820293409E436E630B790A885B1E92B24C
:1008D00003EB83039A4003685D6B2A435A6327E066
:1008E00005680D2A12D22E6BD21F02EB82029340B2
:1008F0009E432E630B790A88DB1F92B203EB8303BE
:100900009A4003681D6B2A431A6311E0EE6A0D3AA0
:1009100002EB820293409E43EE620B790A880D3B04
:1009200092B203EB83039A400368DD6A2A43DA62DA
:10093000164B0568144A9D4206D10D68122D03D14D
:10094000556845F48005556005689D4218D10B68CF
:10095000102B01D0112B13D1536843F400035360C3
:10096000096810290CD10A490A4A0968B1FBF2F159
:1009700001EB8101490000E0491E00910029FBD1F3
:1009800080F83C40002078BD002301400020014059
:100990008800002040420F0070477047704770B5D4
:1009A00004004FF0000503D0206C002610B107E0D2
:1009B000012070BD204600F01DF8666484F83C609C
:1009C000206CC00610D4206C20F4885040F0020047
:1009D00020642046FFF7EEFD6664206C20F00200E4
:1009E00040F00100206400E0012584F83C602846C6
:1009F00070BD000070B586B0064614216846FFF74A
:100A000029FC2849306888424AD1274800250168D6
:100A100041F4806101600068234900F4806014396A
:100A20000590086840F020000860086800F0200089
:100A30000590086840F0010008600868032400F091
:100A4000010005904FF470708DE831006946174839
:100A500000F0C6FD0F208DE831006946144800F013
:100A6000BFFD154C134820608005C4E90105001442
:100A7000C4E90350400060618000A0614011E06162
:100A800000022062042060620120C4E90A052046B9
:100A9000256300F047FC08B1FFF7D7FEB463A663F7
:100AA00006B070BD002201404438024000140240EC
:100AB000000002401064024050120120F8B50E46BA
:100AC00000210446009190F83C00012807D0012045
:100AD00084F83C0020688368DB0702D011E0022024
:100AE000F8BD836843F0010383603748374B0068E3
:100AF000B0FBF3F000EB400000E0401E0090002847
:100B0000FBD120688368DB075CD0236C40F2016571
:100B1000AB4343F4807323644068400505D5206CE3
:100B200020F4005040F480502064206CC00404D5B0
:100B3000606C20F00600606400E0616484F83C10A2
:100B4000A16B2448224DC863A16B23480864A16BA4
:100B50002248C86421686FF022000860206841685C
:100B600041F0806141602068816841F4807181605A
:100B70002168134632464C31A06B00F03DFC68689A
:100B80001749C006206806D088421BD1816811F041
:100B9000405F13D016E08842F8D0124A904203D149
:100BA000D1F80423D206F1D00F4A90420AD1D1F8ED
:100BB000041301F01F011029E8D303E0816841F01C
:100BC000804181600020F8BD8800002040420F0075
:100BD0000023014027050008AB0500089505000823
:100BE00000200140002101400022014010B50446D0
:100BF000002094F83C1001290CD0012184F83C100D
:100C000021688A6822F001028A6021688A68D20716
:100C100002D013E0022010BD886820F48070886044
:100C2000A06B00F053FA21684A6822F080624A60A3
:100C3000216C21F4885141F001012164002184F8E4
:100C40003C1010BD70B5040003D094F8200010B122
:100C500004E0012070BD204600F082F820680168A1
:100C600021F00201016000F099FD0546052604E02F
:100C700000F094FD401B0A2811D8206840688007C6
:100C8000F6D42068016841F00101016000F086FDA2
:100C900005460BE000F082FD401B0A2806D9606A79
:100CA00040F40030606284F82060D2E72068406839
:100CB000C007EFD0207E0128206801683DD021F0D8
:100CC00080010160607E01282068016838D021F031
:100CD00040010160A07E01282068016833D021F026
:100CE00020010160E07E0128206801682ED041F0DB
:100CF00010010160207F01282068016829D021F0BF
:100D000008010160607F01282068016824D021F07B
:100D100004010160D4E902010843D4E9041211433B
:100D200008436168491E08432168C8610020606269
:100D3000012084F82000002070BD41F08001C0E750
:100D400041F04001C5E741F02001CAE721F0100160
:100D5000CFE741F00801D4E741F00401D9E70000F2
:100D6000F0B587B0044614216846FFF773FA2E4B9E
:100D70002E48DFF8B0E01968D4F800C02B4A0325EC
:100D80000226092710300024491CF4451AD11960A5
:100D9000012907D1016841F000710160006800F08D
:100DA00000700590106840F0080010601068CDE9F0
:100DB000005600F00800CDE9047069461C48CDE9F2
:100DC00002452BE0DFF86CE0F44529D1D0F800C0F3
:100DD0004CF0806CC0F800C0D0F800C001290CF0C5
:100DE000806CCDF814C0196007D1016841F0007122
:100DF0000160006800F000700590106840F002008B
:100E00001060106802AB00F0020005904FF44050F3
:100E1000CDE9000683E8B0006946074800F0E0FB32
:100E200007B0F0BD006400401800002030380240D8
:100E3000000C024000680040000402407047704708
:100E4000704770B54379012B1AD0012646710223F1
:100E5000037105682C6840F6FE7393409C43D1E90A
:100E600000310B43934023432B6001680B68C0247F
:100E70009440A3430B60067100214171084670BD88
:100E8000022070BD70477047704770B5040003D0F2
:100E90002079002510B105E0012070BD6571204664
:100EA00000F008F802202071256101202071002047
:100EB00070BD00002DE9F04F87B00646142168464A
:100EC000FFF7C8F92E493068884256D12D480025D1
:100ED000016841F000510160006800F00050059089
:100EE00028481038016841F0010101600068694636
:100EF00000F001000590302000900320CDE90105AD
:100F0000214800F06DFB224C20484FF060674FF005
:100F1000400884E881014FF400690015C4F814907A
:100F2000C4E9035004F11801C0004FF4807A4FF473
:100F3000803B656281E8010C204600F0F3F908B1BE
:100F4000FFF783FCB460A663114C1048603418307E
:100F500084E881010015C4F81490C4E9035004F139
:100F60001801C000656281E8010C204600F0DAF942
:100F700008B1FFF76AFCF460A66307B0BDE8F08F24
:100F80000074004040380240000002408860024087
:100F9000141301202DE9F04104460D4617466179EE
:100FA00000220698012920D00126667102212171B4
:100FB000F5B1D4F80CC03149CCF83C10D4F80CC0D1
:100FC0002F49CCF84010D4F80CC02E49CCF84C1066
:100FD0002168D1F800C04CF0805CC1F800C090B32B
:100FE000042834D0082837D134E00220BDE8F0814D
:100FF000D4F808C02449CCF83C10D4F808C02349E0
:10100000CCF84010D4F808C02149CCF84C10216825
:10101000D1F800C04CF4805CC1F800C020B10428B5
:1010200005D0082808D105E02268083204E02268CB
:101030000C3201E0226810322068016841F400514E
:101040000160A0680EE0FFE72268143204E0226825
:10105000183201E022681C322068016841F000511A
:101060000160E068394600F0C7F920680168AE40C9
:101070003143016000206071B8E700002D070008CF
:1010800077070008550700081D0700086D070008CE
:101090003D07000870B50446006802684FF48053AD
:1010A0008B409A43026020680268012505FA01F32B
:1010B0009A43026031B1E06800F008F820B10421E1
:1010C000217170BDA068F7E7257170BD2DE9F04171
:1010D0000446876D00F062FB064694F83500002553
:1010E000022806D08020606584F834500120BDE8D5
:1010F000F0812068016821F01601016020684169D3
:1011000021F080014161206C08B9A06C20B12068F9
:10111000016821F0080101602068016821F00101E7
:1011200001600BE000F03AFB801B052806D9202067
:10113000606504F8345F03206070D8E720680068B9
:10114000C007EFD194F85C103F208840B86004F8E5
:10115000345F012060700020C9E790F83510022943
:1011600003D08021416501207047052180F83510AA
:101170000068016821F0010101600020704790F8CB
:10118000350070472DE9F84304464FF00009CDF8CB
:10119000009063484FF41651A56D0068B0FBF1F75D
:1011A0002E6894F85C10082000FA01F131420FD04B
:1011B00021680A6852070BD50A6822F004020A6007
:1011C00094F85C108840A860606D40F00100606594
:1011D00094F85C104FF0010808FA01F0304208D092
:1011E00021684969090604D5A860606D40F00200D5
:1011F000606594F85C1004208840304208D0216873
:101200000968890704D5A860606D40F00400606536
:1012100094F85C1010208840304218D0216809688A
:10122000090714D5A86020680168490304D500683F
:10123000000308D5A16C07E00168C90503D4016863
:1012400021F008010160216C09B12046884794F81B
:101250005C1020208840304231D021680968C906DE
:101260002DD5A86094F8350005282068016806D0BF
:10127000490347D5006800031DD4616C1CE021F0D0
:10128000160101602068416921F080014161206CF4
:1012900008B9A06C20B12068016821F00801016044
:1012A00094F85C103F208840A86084F8349084F85B
:1012B0003580216D1FE0E16B09B120468847606DE4
:1012C00000282BD0606DC00714D0052084F83500AD
:1012D0002068016821F0010101600098401C009025
:1012E000B84203D820680068C007F6D184F834906B
:1012F00084F83580E16C002910D001B02046BDE8AB
:10130000F04308470168C905D5D4016821F01001F0
:10131000016084F8349084F83580CCE7BDE8F88328
:10132000880000202DE9F041044600F037FA064617
:101330005CB1002584F83450022084F83500206820
:10134000016821F0010101600DE00120BDE8F0819C
:1013500000F024FA801B052805D9202060650320B1
:1013600084F83500F2E720680068C007F0D12268F1
:10137000116820480140D4E901031843D4E9033639
:101380003343184363691843A3691843E369184357
:10139000236A18430843616A042903D1D4E90B1373
:1013A00019430843106020684069666A20F007010D
:1013B00030460E43012704280CD1A06A0643E06A98
:1013C00040B12046FFF702FA20B14020606584F862
:1013D0003570BAE7206846612046FFF7E3F994F8D4
:1013E0005C203F2191408160656584F83570002064
:1013F000ACE700003F8010F02DE9F0410446866D17
:1014000090F83400002501280DD0012084F8340024
:1014100094F835700020012F07D084F8340002259D
:101420002846BDE8F0810220FBE7022784F83570EA
:1014300060652046FFF7F4F994F85C103F2088407F
:10144000B0602068016841F01601016020684169C0
:1014500041F080014161206C20B12068016841F0B9
:10146000080101602068016841F001010160D7E7CF
:1014700070B5044600F092F90546601C02D004489D
:101480000078044400F08AF9401BA042FAD370BDF2
:101490007C0000202DE9F04F0022DFF81CB101266E
:1014A0004FF00F0906FA02F401EA0403A3427CD1CB
:1014B00022F003075F44D7F8088895074FEA157CA8
:1014C00009FA0CFA0AEA0805DFF8F080404502D173
:1014D0004FF0000832E0DFF8E880404502D14FF0DD
:1014E00001082BE0DFF8DC80404502D14FF0020814
:1014F00024E0DFF8D480404502D14FF003081DE01E
:10150000DFF8C880404502D14FF0040816E0DFF84C
:10151000C080404502D14FF005080FE0DFF8B480ED
:10152000404502D14FF0060808E0DFF8AC804045A6
:1015300002D14FF0070801E04FF0080808FA0CF854
:10154000A84515D1D7F808C82CEA0A0CC7F808C86E
:10155000224D2F689F432F602D1D2F689F432F60C2
:101560002D1D2F689F432F602D1D2F689F432F60D7
:10157000056857000323BB409D430560D50800EB79
:101580008505D5F820C057074FEAD76809FA08F74C
:101590002CEA070CC5F820C085689D438560456826
:1015A000A5434560C4689C43C460521C102AFFF4E4
:1015B00079AFBDE8F08F000000300140000002402C
:1015C0000004024000080240000C024000100240EB
:1015D0000014024000180240001C0240003C014080
:1015E0002DE9F84FDFF87CB100224FF001084FF0F1
:1015F000030A4FF00F090BF1040E00BF0B6808FA45
:1016000002F42340A3426ED14D68022D01D0122D69
:101610000ED1D50800EB850CDCF820505607F70EEC
:1016200009FA07F6B5430E69BE402E43CCF8206098
:10163000066855000F790AFA05FC07F0030726EA49
:101640000C06AF40374307604E68012E05D0022ECE
:1016500003D0112E01D0122E0ED18668CF6826EA53
:101660000C06AF40374387604668A6430C79C4F345
:101670000014944034434460C6688C6826EA0C0623
:10168000AC403443C4604C68E40065D5364C2568F2
:1016900045F480452560246822F0030504F4804465
:1016A0000094324C2E19D6F8084895072F0F09FAE6
:1016B00007F5AC432E4DA84201D1002524E02D4D65
:1016C000A84201D101251FE02B4DA84201D10225DE
:1016D0001AE02A4DA84201D1032515E0284DA84261
:1016E00002D1042510E037E0264DA84201D105259E
:1016F0000AE0254DA84201D1062505E0234DA84268
:1017000001D1072500E00825BD402543C6F808584B
:10171000DBF800405D464E689C43F60300D51C4351
:101720002C60DEF8004075464E689C43B60300D539
:101730001C432C600B4D08352C684E689C43F60208
:1017400000D51C432C60074D0C352C684E689C431B
:10175000B60200D51C432C60521C102AFFF44EAF79
:10176000BDE8F88F003C01404438024000300140A1
:10177000000002400004024000080240000C024049
:10178000001002400014024000180240001C0240F9
:101790000AB1816170470904FBE7000001488068D5
:1017A000704700007C000020704770472DE9F04131
:1017B00004460068416946680025CF43F90506D410
:1017C000F143C90503D46FF4807101254161B80567
:1017D00008D4F043C00505D421686FF4007045F0CB
:1017E00002054861780527D4F043C00524D494F855
:1017F0003E30628D94F83D00216B202B08D13AB920
:10180000212810D029280ED0282801D121290AD03A
:1018100021686FF48060486194F83E0045F004054B
:10182000102804D008E0204603F0F2F804E0206815
:10183000016841F400710160380508D4F043C00527
:1018400005D421686FF4006045F008054861002D5B
:1018500007D0206C284320642046BDE8F04102F008
:1018600027BDBDE8F0812DE9F041026800245168F0
:10187000C56A90F83E3090F83D60102B1CD0402B8C
:101880001AD0036C002B7ED053694FF02805DB4340
:101890009F0779D4CF43BF0576D4016C01B1946919
:1018A00090F83D3000219D430B467FD0C91E516109
:1018B00080F83C30BDE8F081946953694FF42A0701
:1018C000DB435FEAC37C4FF02A4604D0BD42F1D02F
:1018D000B542EFD010E0CD43AD050DD4C16AB94299
:1018E00001D1012103E0C16AB14201D10821C162E5
:1018F000BDE8F04103F044B81D0716D4CD43AD0553
:1019000013D4416CC9B21161416B11B9826B002AC9
:10191000D0D0C96B19B9816BC96B0029CAD00068D6
:10192000416841F400614160C4E79D0706D4CD439E
:10193000AD0503D4BDE8F04102F096BFE443526820
:1019400064074FEA025215D4002AB3DB1A0608D402
:10195000CA43520505D45A0705D5BDE8F04102F047
:1019600001BF5A07A6D4C9438905A3D4BDE8F041F5
:1019700002F0B6BE002A9DDB5A060CD4CA435205BB
:1019800009D45A0702E00FE023E00FE005D5BDE8D7
:10199000F04102F0ADBD5A078CD4C943890589D402
:1019A000BDE8F04102F03BBD94696DE7556825F450
:1019B00080655560E243540700D50121120601D528
:1019C000828900E0028B80F83C3092B2FFF7EDFE96
:1019D00070E7DC0606D4CC43A40503D4BDE8F0418F
:1019E00003F058B8212E27D0292E25D05C0655D4D7
:1019F000CC43640552D45B0752D590F83D10438D1B
:101A0000002B91D01269436A1A70426A521C4262DA
:101A1000428D521E4285428D002A85D12A29D7D176
:101A200001684A6822F480624A602221016380F8DA
:101A30003D5000F007FC3DE71C0623D4CC43640571
:101A400020D45B0720D590F83D10438D002BBFD0EC
:101A5000436A1B781361426A521C4262428D521ED5
:101A60004285428D002AB3D12929B1D101684A6843
:101A700022F480624A602121016380F83D5000F029
:101A8000E2FB17E75B07A3D4C9438905A0D4418DC6
:101A900000299DD0416A097811610AE05B0797D45B
:101AA000C943890594D4418D002991D01169426AB6
:101AB0001170416A491C4162418D491E4185F9E618
:101AC0007047000070B504001BD094F83D0000255D
:101AD00020B984F83C50204600F042FB242084F8D2
:101AE0003D002068016821F00101016001F0A2F9C8
:101AF0004D4A6168914201D84C4900E04C49884206
:101B000001D2012070BD4B492368B0FBF1F15E6842
:101B100026F03F060E435E606368934206D94FF499
:101B2000967359434FF47A73B1FBF3F12368491C60
:101B30001E6A26F03F06314319626168914210D84F
:101B40004900401EB0FBF1F2521CC2F30B02042A02
:101B500001D2042022E0B0FBF1F0401CC0F30B00E6
:101B60001CE0A368F3B301EBC10202EB0116421EB5
:101B7000B2FBF6F2521C42F48042120549D093B3F4
:101B800001EBC10202EB0111401EB0FBF1F0401C61
:101B9000C0F30B0040F4804040F400402168CA6963
:101BA0004CF6FF739A431043C861D4E90701084318
:101BB00021680A6822F0C00210430860D4E90301DA
:101BC00001432068826848F2FF339A4311438160E1
:101BD000D4E9050108432168CA6822F0FF021043D6
:101BE000C86001E00EE016E02068016841F00101E4
:101BF00001602564202084F83D00256384F83E5070
:101C0000002070BD01EB4106421EB2FBF6F2521CF1
:101C1000B3E70120C2E701EB4101401EB0FBF1F048
:101C2000401CC0F30B00B7E7A086010080841E00B3
:101C300000093D0040420F007047000010B5044607
:101C40000D48844208D10D48018801EB810100EB69
:101C5000C100001D06F02AF8094884420BD107484C
:101C600054300188BDE8104001EB810100EBC10058
:101C7000001D06F01BB810BDD41301209C0E0020DF
:101C80002814012010B504460D48844208D10D489F
:101C9000018801EB810100EBC100001D06F006F890
:101CA000094884420BD1074854300188BDE81040F0
:101CB00001EB810100EBC100001D05F0F7BF10BD75
:101CC000D41301209C0E0020281401202DE9F84F88
:101CD0001F4690468A460446DDF82890FFF75EFDD1
:101CE000054694F83D00202875D1192301226C493E
:101CF0002046009502F0A2FF0028F5D194F83C00A0
:101D0000012868D0012084F83C0020680168C907D8
:101D100003D1016841F0010101602068016821F4EC
:101D200000610160222084F83D00102084F83E000C
:101D300000262664C4F824806785608D2085594874
:101D4000E0622B464A465146204602F01AFC002823
:101D500078D1208D544F68B1012814D00228206812
:101D6000016816D041F48061016020684169806992
:101D7000009087E02068416981690091016841F421
:101D8000007101607EE02068016821F480610160DB
:101D9000F0E721F4806101602068016841F400618E
:101DA000E2E7032848D801280AD0022814D04B467D
:101DB000002239462046009502F040FFD8BB27E0BC
:101DC0002A464946204602F0B8FFA0BB20680069B9
:101DD000616A08704DE061E04B46002239462046BA
:101DE000009502F02BFF30BB2068016841F40071C0
:101DF000016020680069616A0870606A401C606266
:101E0000218D491E2185618D491E618521682EE045
:101E10002068016821F48061016020680069616ABE
:101E20000870606A401C6062208D401E2085608DB5
:101E3000401E6085D0E705E02A464946204602F06C
:101E40007CFF10B10120BDE8F88F20680069616A4D
:101E50000870606A401C6062218D491E2185618D79
:101E6000491E618521684A69D24352070AD409692B
:101E70000170606A401C6062208D401E2085608D6C
:101E8000401E6085208D00288BD1202084F83D00E5
:101E900084F83E6084F83C600020D4E70220D2E75A
:101EA000020010000000FFFF0400010078B50024CC
:101EB000009490F83D50202D55D12C4D46F2A81697
:101EC0002D68B5FBF6F505EBC50606EB0515009587
:101ED0006D1E009506D00568AD69ED43AD070DD4C4
:101EE000009DF5E740F8304F20214173847301696C
:101EF00041F0200101610473012078BD90F83C504D
:101F0000012D30D0012580F83C5005682E68F60779
:101F100003D12E6846F001062E6005682E6826F46F
:101F200000662E60222580F83D50102580F83E5036
:101F3000046442624385428D02850D4AC262416457
:101F400001680A6842F480620A6001680A6842F423
:101F500080720A6080F83C400068416841F4E061AA
:101F60004160002078BD022078BD0000880000207C
:101F70000000FFFF2DE9F84F1F4690468A460446B1
:101F8000DDF82890FFF70AFC054694F83D0020286C
:101F90007FD11923012240492046009502F04EFED0
:101FA000002876D194F83C00012872D0012084F8F2
:101FB0003C0020680168C90703D1016841F00101B4
:101FC00001602068016821F400610160212084F82B
:101FD0003D00102084F83E0000262664C4F82480CA
:101FE0006785608D20852D48E0622B464A46514624
:101FF000204602F031FB90B9206841698069009069
:1020000036E02A464946204602F0CAFE50B1206C0E
:10201000042804D12068016841F4007101600120A6
:10202000BDE8F88F606A216800780861606A401C2A
:102030006062618D491E6185218D491E89B22185AD
:1020400022685369DB435B070BD451B10078106100
:10205000606A401C6062608D401E6085208D401E5D
:1020600020852A464946204602F0C2FD0028CED1EE
:10207000208D0028C5D154F83D0B016841F4007152
:102080000160202004F81E09E67766770020C7E784
:10209000FFE70220C4E70000020010000000FFFF7D
:1020A00078B50024009490F83D50202D50D1294D52
:1020B00046F2A8162D68B5FBF6F505EBC50606EB4E
:1020C000051500956D1E009506D00568AD69ED43B8
:1020D000AD070DD4009DF5E740F8304F2021417346
:1020E0008473016941F0200101610473012078BD0E
:1020F00090F83C50012D2BD0012580F83C5005680C
:102100002E68F60703D12E6846F001062E6005689A
:102110002E6826F400662E60212580F83D5010259B
:1021200080F83E50046442624385428D02850A4A2B
:10213000C262416401680A6842F480720A6080F8F1
:102140003C400068416841F4E0614160002078BD96
:10215000022078BD880000200000FFFF7047704714
:10216000F0B587B0044614216846FEF773F831488D
:102170002F4F26682F4C10381222012303210425EB
:10218000BE4230D1266846F400162660266806F462
:1021900000160596066846F0020606600068CDE95E
:1021A000023100F002000590C020CDE90002049544
:1021B00069462148FFF714FA206840F400102060B7
:1021C0002068002200F40010059011461F2000F046
:1021D000B3F81F2000F0A3F800221146202000F0E1
:1021E000ABF8202020E0154FBE421FD1066846F014
:1021F00020060660006800F0200005908DE80E00C3
:10220000CDE9031569460E48FFF7EAF9206840F466
:10221000800020602068002200F4800005901146B4
:10222000212000F089F8212000F079F807B0F0BDF6
:102230000054004040380240000402400058004072
:1022400000140240704770470248816802781144C8
:10225000816070477C0000200B4810B5016841F494
:1022600000710160016841F480610160016841F41E
:1022700080710160032000F07FF8002000F006F874
:1022800000F024F8002010BD003C024070B50D4D58
:1022900004464FF47A712878B1FBF0F00A490968D6
:1022A000B1FBF0F001F0FEFA48B9102C07D2002281
:1022B0002146501E00F040F800206C6070BD0120E7
:1022C00070BD00007C000020880000200A4808B58E
:1022D000016841F480410160006800F48040009092
:1022E0000548001F016841F080510160006800F05E
:1022F0008050009008BD00004438024000280DDBEB
:1023000000F01F02012191404009800000F1E0200F
:10231000C0F88011BFF34F8FBFF36F8F7047002855
:1023200009DB00F01F02012191404009800000F10B
:10233000E020C0F800117047F0B40E4B1B680C464B
:10234000C3F30223C3F10705042D00D90425191D89
:10235000072901D2002300E0DB1E012606FA05F161
:10236000491E214099409E40761E16403143F0BCE4
:1023700005F04FBC0CED00E0064900F007020868CC
:102380004FF6FF03184040EA0220034A104308605A
:10239000704700000CED00E00000FA05704700688F
:1023A000416200207047F0B50368586A39B19C6AF1
:1023B0004FF4827600EB144400204D1E0AE040EA00
:1023C000024098620FE006EB8007DF59401C04EBE7
:1023D0001744C0B2A842F6D344EA02404FF48072D8
:1023E00002EB810158500020F0BDD0F8040404F045
:1023F0004CBCC1EBC10200EB8202D0F80404926C29
:1024000004F09FBBC1EBC10200EB8202D0F80404D0
:10241000D2F8082204F0F8BBD0F8040404F037BC6A
:1024200070B504460B0601F00F00C0EBC00104EBD1
:1024300081014FF001024FF0000503D581F83D20E6
:102440003C3103E081F8FD5101F5FE71087094F80C
:10245000BC03012808D084F8BC23206804F08EFF58
:1024600084F8BC53002070BD022070BD70B50446D6
:1024700001F00F006268904201D9012070BD0B0687
:1024800001F00F01C1EBC10104EB81014FF001022A
:102490004FF0000503D581F83D203C3103E081F881
:1024A000FD5101F5FE718D70087094F8BC03012890
:1024B00008D084F8BC23206805F03CF984F8BC53AC
:1024C000002070BD022070BD01F00F01C1EBC10101
:1024D00000EB8100D0F8140270472DE9F04104466A
:1024E0000F0601F00F00C0EBC00104EB81014FF0BB
:1024F00001064FF0000503D581F83D603C3103E053
:1025000081F8FD5101F5FE7108708A60CB704A7840
:1025100002B1C880022B00D10D7194F8BC030128D0
:1025200009D084F8BC63206804F078FE284684F85B
:10253000BC53BDE8F0810220FBE770B50C4601F00A
:102540000F05C5EBC50100EB8101C1F81032C1F8E0
:1025500008220023C1F8143281F8FD3181F8FC51C2
:10256000036901F5FE71012B00D10A612207027C8B
:10257000006803D005F036F9002070BD05F022F8A0
:10258000FAE770B504460D4601F00F006168884215
:1025900001D9012070BD29064FF000064FF001025D
:1025A00007D5C0EBC00104EB810181F83D203C312F
:1025B00007E0C5EBC50104EB810181F8FD6101F580
:1025C000FE718A70087094F8BC03012807D084F863
:1025D000BC23206805F0DAF8280702D007E00220C3
:1025E00070BD217C04F57172206805F077F884F8DD
:1025F000BC63002070BD70B50C4601F00F05C5EB43
:10260000C50100EB81010B658A6400234B65012342
:1026100081F83D3001F83C5F0369012B00D10A616C
:102620002207027C006803D005F0DCF8002070BDB2
:1026300004F0C8FFFAE700002DE9FC5F05680446D6
:10264000284605F0F8F900287ED1206805F01FFA29
:10265000002879D0206805F01AFA800704D5206890
:10266000416901F002014161206805F010FA01039F
:1026700004F571704FF0010A4FF0080B009075D50A
:102680000026206805F0E2F90746DFF808946BE0C1
:10269000F80767D0F1B2206805F0F1F98046C0076D
:1026A00007D005EB4611C1F808AB3146204603F0D0
:1026B00095F85FEA087032D52068016C00EB46108F
:1026C0000191D0F8081B2269012A019A0FD0F24B20
:1026D0009A4214D1090403D54FF40041C0F8081BF5
:1026E000204600F0C9FA206901280FD013E04A45BE
:1026F00005D9090403D54FF40041C0F8081B204652
:1027000000F0BAFA01984845EDD804E020680121AC
:10271000009A04F0E3FF05EB4611C1F808BB5FEA3D
:10272000C86004D505EB46111020C1F8080B5FEA1C
:1027300088600ED52069012804D120680121009A03
:1027400004F0CCFF202100E0A1E105EB4610C0F829
:10275000081B5FEA884005D505EB46104FF4005191
:10276000C0F8081B7F08761C002F91D1206805F067
:102770008EF940034FF000095FD5206805F05FF93E
:102780000746002657E0F80753D0F1B2206805F05D
:1027900064F98046C00726D006F00F020AFA02F05C
:1027A000D5F834288243C5F8342805EB4610C0F824
:1027B00008A92069012807D1C6EBC60004EB8000F8
:1027C000D0E9112111448164F1B22046FFF711FED6
:1027D0002069012807D136B9206D20B92068012170
:1027E000009A04F07BFF5FEA087003D505EB461101
:1027F000C1F808B95FEAC86004D505EB461110209E
:10280000C1F808095FEA486004D505EB461040218D
:10281000C0F808195FEA887004D505EB461002215C
:10282000C0F808195FEA086003D53146204603F076
:1028300043F87F08761C002FA5D1206805F027F902
:10284000002811DAD5F8040820F00100C5F80408C2
:1028500094F8F40301282BD0204600F0F1F9206809
:10286000416901F000414161206805F010F900055F
:102870000BD5D5F80808C00702D0204600F024FA8E
:102880002068416901F400614161206805F0FFF8AA
:10289000C00461D5D5F8040820F00101C5F804187A
:1028A0001021206805F0A8F800214FF67F321AE0C9
:1028B00084F8F49300212046FFF770FDCFE700BFB6
:1028C00005EB4110C0F80829D0F8003923F40013B3
:1028D000C0F80039C0F8082BD0F8003B23F40013EF
:1028E000C0F8003B491C60688842E9D8D5F81C084C
:1028F00040F00111C5F81C18206B002828460DD0A7
:10290000D0F8840840F00B00C5F88408D5F84408D6
:1029100040F00B012846C5F844180DE0D0F8140823
:1029200042F22B010843C5F81408D5F8100840F00E
:102930000B012846C5F81018D0F8000820F4FE61F5
:10294000C5F80018217C2068009A04F0C7FE2068B2
:10295000416901F480514161206805F098F88004D4
:1029600015D5206804F09AFC206805F057F8E0605F
:1029700000F05AFA0146227B206805F0C3F8204691
:1029800000F048F92068416901F400514161206874
:1029900005F07DF8C00634D52068816921F010016A
:1029A00081612F6A07F00F00C0EBC00004EB8006C6
:1029B000C7F3434006F5FE76022802D0062811D060
:1029C0001AE047F6F070074216D0C7F30A1217460E
:1029D0002846F16805F05FF8F0683844F060B069A7
:1029E000384408E008222846009905F054F8B069F8
:1029F000C7F30A110844B0612168886940F01000EB
:102A00008861206805F043F8000707D5204600F0EC
:102A10001BF92168486900F008004861206805F04A
:102A200036F8C00208D50021204600F037F82168AA
:102A3000486900F480104861206805F028F8800299
:102A400008D50021204600F02DF82168486900F4DF
:102A500000104861206805F01AF8400007D52046AC
:102A6000FFF7C3FC2068416901F0804141612068A3
:102A700005F00DF840070AD520684568680702D5BB
:102A80002046FFF7C9FC2068416829434160BDE842
:102A9000FC9F00000A30544F0A31544FD0F8040410
:102AA00004F044B9D0F8040404F042B92DE9F0412F
:102AB0008AB0040005D094F8BD032668002520B133
:102AC00008E001200AB0BDE8F08184F8BC5320463C
:102AD00000F05EF8032084F8BD03F06BC00500D45D
:102AE0002561206804F068FD04F110012822884661
:102AF0006846FDF796FB94E80F0004F0E9FB022618
:102B0000C8BB0021206804F0D4FF002001270EE09C
:102B1000C0EBC00104EB810181F83D7001F83C0F6E
:102B2000C880CD708D60CD60401CC0B24D616168C1
:102B30008142EDD8002011E0C0EBC00104EB81011F
:102B400081F8FD5181F8FC0181F8FF51C1F8045270
:102B5000C1F80852401CC0B2C1F8105261688142ED
:102B6000EAD8282241466846FDF75BFB94E80F004F
:102B700004F05CFC10B184F8BD63A2E784F838501F
:102B800084F8BD73206804F045FC00209AE700003B
:102B900010B586B0044614216846FDF75BFB20683B
:102BA000B0F1A04F2FD119480021026842F0010274
:102BB0000260006800F0010005904FF4C0500090E2
:102BC0000220CDE90101032003900A200490694608
:102BD0000F48FEF705FD0D48001D016841F080011A
:102BE00001600A481430016841F4804101600068C6
:102BF000002200F48040059011464320FFF79CFB23
:102C00004320FFF78CFB06B010BD000030380240B7
:102C10000000024070B50446C068012570B102286A
:102C200001D0FDF712FE2946D4F8040404F0D1F8CF
:102C3000D4F80404BDE8704004F091B80025F2E730
:102C4000D0F8040404F0B3B8D0F8040404F0B5B824
:102C500010B5044690F8BC0301280BD0012084F87D
:102C6000BC0384F83810206804F03AFF002084F890
:102C7000BC0310BD022010BDD0F8042400F5717112
:102C8000104604F0B2B810B50446006894F8BC13BE
:102C9000012906D0012184F8BC13A16A012902D0C0
:102CA00008E0022010BDA169012903D0816B41F425
:102CB00080318163206804F0A1FB206804F086FE67
:102CC000002084F8BC0310BD10B50446D0F80404FD
:102CD00004F0CAF82068D0F8001E41F00101C0F8E5
:102CE000001E206A002804D00248016841F0060155
:102CF000016010BD10ED00E02DE9F0470E46050023
:102D000065D0DFF81481D8F80000F7B200F00F00AA
:102D1000B04207D288F80070D8F8000000F00F0029
:102D2000B04254D128683D4C810712D5400703D5E5
:102D3000206840F4E05020602878000703D5206820
:102D400040F4604020602068A96820F0F00008434B
:102D500020602878C0072DD03049686808390128DC
:102D600012D0022813D0032811D00968890700293E
:102D70002DDA216821F0030101432160FEF70EFDE9
:102D8000814641F2883A0EE009688903EFE7096855
:102D90008901ECE7FEF702FDA0EB0901514502D9DC
:102DA0000320BDE8F0872068696800F00C00B0EBF4
:102DB000810FEFD1D8F80010404601F00F01B14269
:102DC00007D90770006800F00F00B04201D0012061
:102DD000E7E72878400705D52068E96820F4E05047
:102DE000084320602878000706D52068296920F468
:102DF000604040EAC100206000F03CF82168084AC9
:102E0000C1F30311515CC840064908600020FFF778
:102E10003DFA0020C5E70000003C024008380240AF
:102E200094A1000888000020014800687047000055
:102E3000880000200448054900680968044AC1F375
:102E40008221515CC8407047880000200838024049
:102E5000A4A100080448054900680968044AC1F3B0
:102E60004231515CC8407047880000200838024059
:102E7000A4A10008154810B5006810F00C02144811
:102E800013D01449042A0FD0082A0ED10F4C241F46
:102E90002268236802F03F025B0207D52068C0F376
:102EA0008810A0FB010106E0084610BD2168C1F3AF
:102EB0008811A1FB00010023FDF782F92168C1F30D
:102EC0000141491C4900B0FBF1F010BD0838024037
:102ED0000024F40080969800F0B51F4C16460D466D
:102EE0001D4B002102220327283C0028186887B0C8
:102EF00019D040F004001860186800F00400059034
:102F000010020090CDE90121CDE903716946134813
:102F1000FEF766FB206845EAC60120F078400843CA
:102F2000206007B0F0BD40F001001860186800F0A4
:102F3000010005904FF480700090CDE90121CDE9AA
:102F4000037169460648FEF74BFB2068354320F0C5
:102F5000EC602843E4E700003038024000080240FB
:102F6000000002402DE9F84F050076D02878DFF800
:102F7000F8B2BE4CC00749D0DBF800105846C1F388
:102F80008101012908D00068C0F3810002280AD11C
:102F9000201D0068400206D52068800336D5686889
:102FA0000028E2D032E06868B0F5803F10D0B0F57C
:102FB000A02F206810D020F480302060206820F4FA
:102FC000802020606868A0B1FEF7E8FB06460CE0B0
:102FD000206840F48030F4E740F480202060F7E778
:102FE000FEF7DCFB801B642873D820688003F7D5CC
:102FF0000CE0FEF7D3FB064605E000BFFEF7CEFB74
:10300000801B6428F0D820688003F7D42878DFF884
:10301000608280074FF000093ED5DBF8001058466B
:1030200011F00C0F09D00068C0F3810002280BD109
:103030008D48001F0068400206D42068800715D51F
:10304000E868012809D111E0E868B8B10120C8F8A2
:103050000000FEF7A3FB064605E002E1FEF79EFB3B
:10306000801B0228C0D820688007F7D5206829690E
:1030700020F0F80040EAC10020600DE0C8F80090A0
:10308000FEF78CFB064604E0FEF788FB801B022857
:103090001FD820688007F7D42878000722D5724E01
:1030A000744869696C3671B101210160FEF776FBE5
:1030B000074604E0FEF772FBC01B022809D83068FF
:1030C0008007F7D50EE0C0F80090FEF767FB0746D3
:1030D00005E083E0FEF762FBC01B02287ED8306863
:1030E0008007F7D42878400768D5DFF87CA100274F
:1030F0000AF1380ADAF80000C0000BD4DAF8001040
:1031000041F08051CAF80010DAF80000012700F001
:1031100080500090584E3068C00510D4306840F49C
:1031200080703060FEF73AFB009005E0FEF736FB5A
:103130000099401A022851D83068C005F6D54A4E89
:10314000A868683601280FD00528306810D020F014
:1031500001003060306820F004003060A868B8B129
:10316000FEF71CFB00900FE0306840F00100F4E730
:1031700040F004003060F7E7FEF710FB0099411AB9
:1031800041F28830814264D830688007F4D50EE07F
:10319000FEF704FB009007E0FEF700FB0099411AE0
:1031A00041F28830814254D830688007F4D42FB17E
:1031B000DAF8001021F08051CAF80010A869C0B3F5
:1031C000DBF80010C1F3810102294AD002284846E9
:1031D00007D0C8F86000FEF7E1FA00E039E00546E4
:1031E0003AE04746C8F86000FEF7D8FA064604E021
:1031F000FEF7D4FA801B02282BD820688001F7D470
:10320000D5E907010843A96A1C4A490802EB0141B4
:103210006A6A41EA8211084395F82C1040EA01617C
:103220001148001F016001203866FEF7B7FA054615
:1032300005E014E0FEF7B2FA401B022809D8206826
:103240008001F7D50BE000BFFEF7A8FA401B02286B
:1032500002D90320BDE8F88F20688001F4D4002053
:10326000F8E70120F6E70000083802400038024085
:1032700000004742800E4742007000400000FFFF00
:10328000704700002DE9FC410446424845F6C05114
:10329000002700680126B0FBF1F06421484301904B
:1032A00000902068416821F0200141602168486851
:1032B00000060BD5384860640098F8B1401E0090B5
:1032C00094F851000728F7D101980090486840060B
:1032D0000BD5324820640098A8B1401E009094F8A5
:1032E00051000728F7D101980090A06C002580B10B
:1032F000496889070CD52A4901650AE0606D40F0EC
:1033000040006065E0E7606D40F040006065EAE71E
:103310000565E06C38B121684968C90702D02149C8
:10332000016500E00565206840684FF040088007AF
:103330000AD5A06C40B1FDF710FF20B1A06C056567
:10334000C4F8548000E0002620684068C00708D018
:10335000E06C30B1FDF701FFB0B1E06C0565C4F879
:1033600054808EB1E587E586606D40280FD0656595
:103370002068C1688168009180680090012084F80D
:1033800051002046FFF77CFF3846BDE8FC8101274D
:10339000EEE70000880000209D5A00084D5A000802
:1033A000895C0008215C000810B5040011D00220DF
:1033B00084F851002068016821F040010160204636
:1033C00000F0C8F80020606584F8510084F85000CF
:1033D00010BD012010BD704738B5016804464A6829
:1033E0008868C043430606D5C30704D1D3435B06B0
:1033F00001D4216C05E0830708D4D3431B0605D410
:10340000616C01B02046BDE830400847830603D513
:10341000430601D5C30551D4D3439B064ED443067E
:103420000AD494F85130032B49D0636D43F0040360
:103430006365CB688B680093830609D4636D43F0A2
:10344000010363658B6800930B6823F040030B60F6
:10345000C00506D4606D40F0080060652068806893
:103460000090606D002829D02068416821F0E001BB
:103470004160012084F85100900701D4D00722D088
:103480002068416821F003014160114DE06C40B1BA
:103490000565E06CFDF761FE18B1606D40F040001D
:1034A0006065A06C002809D00565A06CFDF755FE8D
:1034B000002803D0606D40F04000606538BDC868EA
:1034C0008868009038BD2046FFF785FF38BD0000B2
:1034D000115C000870B5040005D00025A56294F8C1
:1034E000510010B106E0012070BD84F85050204614
:1034F00000F04CF8022084F851002068016821F0A7
:1035000040010160D4E901010843D4E903121143E9
:10351000084361690843218B01F400710843E169A4
:103520000843216A0843A16A084321680860A0692A
:10353000042101EA1040616A08432168486020685C
:10354000C16921F40061C1616565012084F8510001
:10355000002070BD10B50068094988420ED10948A5
:10356000016821F4804101604FF444410648FDF7B1
:1035700091FFBDE810402420FEF7C0BE10BD000042
:1035800000380040403802400004024010B586B0C8
:10359000044614216846FCF75DFE184920688842FD
:1035A00029D117480021026842F480420260006875
:1035B00000F48040059012481038026842F0020280
:1035C0000260006800F0020005904FF44440009053
:1035D0000220CDE9010103200390052004906946F3
:1035E0000848FDF7FDFF002211462420FEF7A4FE47
:1035F0002420FEF794FE06B010BD00000038004005
:103600004038024000040240F0B4002485681346AC
:1036100004261DB94268B2F5827F0DD090F8502083
:10362000012A0FD0012280F8502090F8517000221A
:10363000012F0AD0022431E080F85160F0BC0A4624
:1036400000F04AB80220F0BC704771B16BB180F84D
:103650005160426581638387C38702638286C28625
:103660004264C16819B10F4902E0012416E00E4915
:103670000164B5F5004F04D101680B6823F4804361
:103680000B6001684B6843F060034B6001680B6896
:103690005B0603D40B6843F040030B6080F85020B6
:1036A0002046D0E7B15D0008D15D0008084910B59B
:1036B00088420CD1C88F002809D10846FFF7E2FDE7
:1036C00004480121A0F8401A0021A0F83E1A10BDBC
:1036D0007C140120784F0020F0B590F85050002461
:1036E000012D0CD0012580F8505090F85150002643
:1036F0004768012D0BD0B7F5827F06D101E002208B
:10370000F0BD87680FB9042D01D0022429E0A9B1CA
:10371000A2B19BB190F85150042D02D0052580F83C
:103720005150466501638386C38682638387C3875E
:10373000C16829B10D4901640D4904E0012410E07C
:103740000C4901640C49416401684A6842F0E00296
:103750004A6001680A68520603D40A6842F04002CF
:103760000A6080F850602046F0BD00008D590008C6
:10377000ED590008BD5900081D5A000830B590F8F1
:1037800050300024012B0BD0012380F8503000234F
:1037900041B13AB190F85150012D05D002242AE0F0
:1037A000022030BD012426E0032580F851504365F6
:1037B00001638286C28683638387C3870364C1688B
:1037C00009B10F4900E00F4941648168B1F5004F2C
:1037D00004D101680A6842F480420A6001684A68BC
:1037E00042F0A0024A6001680A68520603D40A68DF
:1037F00042F040020A6080F85030204630BD0000A0
:10380000F15D0008115E00080C4910B5884213D123
:10381000C88E002810D10846FFF734FD0848012162
:10382000084AA0F8EC190021A0F8EA19BDE81040F8
:103830000549064806F058BA10BD00007C14012066
:10384000784F002010000020520F00204811012066
:103850000F4910B588421AD1C88E002817D1C88EDA
:10386000002814D10846FFF70DFD0A480121002267
:10387000A0F8EC19A0F8EA29A0F8401AA0F83E2A0E
:10388000BDE81040044A0549054806F02DBA10BDB0
:103890007C140120784F002010000020520F0020DF
:1038A0004811012010B5401EB0F1807F01D30120E6
:1038B00010BD4FF0E02460610F21601704F0A9F9FA
:1038C0000020A06107202061002010BD70477047D4
:1038D00070B590F83C20012A19D0012400F83C4F23
:1038E0000222427050F83C3C5A689D6822F07006F3
:1038F0000A684968324325F0800529435A6050F828
:103900003C2C9160447000210170084670BD02207B
:1039100070BD10B5040003D094F83D0010B107E06D
:10392000012010BD002084F83C00204600F00CF877
:10393000022084F83D00211D206802F04BFB01208D
:1039400084F83D00002010BD08B5016839483A4AA6
:10395000814207D1106840F001001060106800F04B
:1039600001001CE03448001FB1F1804F08D0334BF8
:10397000994216D1016841F002010160006855E0EA
:10398000016841F0010101600068002200F00100BF
:10399000009011461C20FEF7CFFC1C203AE000905E
:1039A00008BD274B99420ED1016841F00401016026
:1039B0000068002200F00400009011461E20FEF76F
:1039C000BBFC1E2026E01F4B994207D1016841F045
:1039D00008010160006800F00800E0E71A4B994216
:1039E00007D1016841F010010160006800F010008B
:1039F000D5E7164B994211D1016841F020010160D1
:103A00000068002200F02000009011463720FEF7E9
:103A100093FC3720BDE80840FEF781BC0C4881428A
:103A2000BED1106840F002001060106800F0020083
:103A3000B5E70000000001404438024000040040A7
:103A400000080040000C004000100040001400403E
:103A500000040140022180F83D1001688A6802F0EC
:103A60000702062A03D00A6842F001020A60012117
:103A700080F83D10002070470168CA6842F00102DA
:103A8000CA600068816801F00701062903D0016857
:103A900041F001010160002070470168CA6822F00E
:103AA0000102CA600068016A41F21112114207D195
:103AB000016A9210114203D1016821F001010160F5
:103AC0000020704770B5044690F83C00012817D0DC
:103AD000012584F83C50022084F83D00206882686B
:103AE00022F0770222F47F4282600868502830D0AA
:103AF0000DDC20284DD005DC98B310283BD148E0E0
:103B0000022070BD302844D0402834D139E06028EC
:103B100028D0702806D0B0F5805F2CD0B0F5005FBB
:103B200029D10AE0CB68D1E90121206802F0B6FA78
:103B30002068816841F0770109E0CB68D1E9012173
:103B4000206802F0ABFA2068816841F4804181600E
:103B500011E0CA684968206802F0B2FA5021206872
:103B600007E016E0CA684968206802F0BAFA6021E6
:103B7000206802F09DFA84F83D50002084F83C0053
:103B800070BDCA684968206802F09AFA402120682E
:103B9000EFE7226801461046EBE7704770B5044630
:103BA000006801694FF00005C943890715D4C16851
:103BB000C943890711D4E91E0161012020772068DB
:103BC00080698007204602D0FFF7E7FF04E000F09D
:103BD00098F8204600F096F8257720680169C943D7
:103BE000490717D4C168C943490713D46FF00401CA
:103BF0000161022020772068806910F4407F204610
:103C000002D0FFF7CAFF04E000F07BF8204600F086
:103C100079F8257720680169C943090716D4C16876
:103C2000C943090712D46FF008010161042020770D
:103C30002068C0698007204602D0FFF7AEFF04E08D
:103C400000F05FF8204600F05DF8257720680169F4
:103C5000C943C90617D4C168C943C90613D46FF054
:103C600010010161082020772068C06910F4407FAE
:103C7000204602D0FFF791FF04E000F042F8204612
:103C800000F040F8257720680169C943C90708D1C9
:103C9000C168C943C90704D1891E0161204600F0EB
:103CA00033F820680169C943090609D4C168C943CA
:103CB000090605D46FF0800101612046FFF706FE7A
:103CC00020680169C943490609D4C168C943490646
:103CD00005D46FF040010161204600F04DF82068E6
:103CE0000169C94389060BD4C168C943890607D451
:103CF0006FF0200101612046BDE87040FFF7E7BD8D
:103D000070BD70477047000070B506461648002524
:103D1000864212D1154C2078401CC0B22070022877
:103D200000D325700521124804F020FA104805211F
:103D3000143004F01BFA052060700E48864212D140
:103D40000B4C32340126608A60B101280BD1074840
:103D5000103005F0D7FCE6806580BDE8704005486E
:103D6000FFF79BBE668270BD541601200000002044
:103D7000B0110120141501207047704770470000F2
:103D800010B504460068C16821F0C001C160206818
:103D900041694FF020020B064FF000010FD5436937
:103DA00023F080034361206B48B109490165206B12
:103DB000FDF7D3F948B1206B016D884705E0E18438
:103DC00084F839202046FFF7D9FF002010BD0000FD
:103DD0006B61000870B5044600680126C16821F4D3
:103DE000F071C1602068416921F001014161206BDF
:103DF000002538B121684969090602D51E490165C7
:103E000000E00565606B38B121684969490602D553
:103E10001A49016500E005652068416909060CD56D
:103E2000416921F080014161206B30B1FDF795F9C6
:103E300010B1206B056500E0002620684169490645
:103E40000BD5416921F040014161606B28B1FDF75C
:103E500084F970B1606B056500E056B1E584E585D5
:103E6000E563202084F8390084F83A002046FFF703
:103E700084FF002070BD0000416100081761000848
:103E80007047000070B5026804461068D168536935
:103E900010F00F0F50D003F0010501F49076354378
:103EA0005DD0C20705D0CA0503D5E26B42F001021E
:103EB000E263420705D5DA0703D0E26B42F0020263
:103EC000E263820705D5DA0703D0E26B42F0040211
:103ED000E263020705D5DA0703D0E26B42F008027D
:103EE000E263E26B002A33D0800604D5880602D54F
:103EF000204602F052F920684069E16BC0F380105F
:103F0000090700D428B3204602F039F92068416936
:103F100049061AD5416921F040014161606BA0B1A9
:103F20001B490165606BFDF718F9002810D0606B24
:103F3000016DBDE870400847830610D58B060ED58D
:103F40002046BDE8704002F028B92046FFF798FFF0
:103F500070BD2046FFF794FF0020E06370BD0306AC
:103F600006D50B0604D52046BDE8704002F0B6BA6F
:103F70004006F3D54806F1D5D168204621F040012E
:103F8000D160202184F8391000F016F970BD0000CE
:103F90000761000870B5040004D094F839000025CA
:103FA00010B106E0012070BD84F83850204600F0C2
:103FB00023F8242084F839002068C16821F40051D6
:103FC000C160204602F034F92068016921F4904173
:103FD00001612068416921F02A0141612068C168BE
:103FE00041F40051C160E563202084F8390084F871
:103FF0003A00002070BD000070B586B00446142160
:104000006846FCF727F9274E21682748022201233A
:1040100003240725B1421FD1234914310E6846F00D
:1040200010060E60096801F010010591016841F069
:10403000010101600068694600F00100059060021E
:104040008DE83D001948FDF7CBFA002211462520E6
:10405000FEF772F9252021E0154EB14220D1124918
:1040600010310E6846F400360E60096801F4003124
:104070000591016841F0080101600068694600F09F
:104080000800059060208DE83D000A48FDF7A8FA79
:10409000002211462620FEF74FF92620FEF73FF9B1
:1040A00006B070BD001001403038024000000240F0
:1040B00000440040000C024090F83A30202B22D1FE
:1040C000F9B1F2B190F83830012B1CD081628285B1
:1040D000C2850021C163222280F83A2080F838107E
:1040E0000168CA6842F48072CA6001684A6942F095
:1040F00001024A610068C16841F02001C1600020EE
:1041000070470120704702207047000030B4164C01
:10411000002216494FF40063A0420DD1488C401C88
:1041200080B24884984200D14A841048498C243097
:10413000014401220C4812E00D4CA04212D1B1F80A
:104140002A08401C80B2A1F82A08984201D1A1F89F
:104150002A28B1F82A18074801220144044830BC33
:10416000FFF7AABF30BC7047D4160120780F00209B
:1041700014170120A417002090F83930202B18D1F3
:10418000A9B1A2B190F83830012B12D0016282841B
:10419000C2840021C163212280F8392080F83810C0
:1041A0000068C16841F08001C160002070470120B3
:1041B000704702207047000030B40F4C00230122EA
:1041C0000E49A04207D10E48A1F86428A1F8623830
:1041D000828020460AE00B4CA0420AD10848A1F890
:1041E00000299C30A1F8FE388280204630BCFFF7C1
:1041F000C7BD30BC70470000D4160120784F0020A6
:10420000D40F012014170120FEE700000148FDF73C
:10421000CDBA0000D41301200148FDF724BB0000F3
:10422000D41301200148FDF71EBB00002814012013
:1042300010B5806B90F83D30426B0021D163826BEA
:10424000D1630268146824F4806414604185426B71
:104250001165826B11650268146824F00104146012
:1042600090F83D202024602A0BD0282232EA030354
:104270000FD080F83D4080F83E1000BFFDF720FCD5
:1042800010BD80F83D4080F83E100164FDF78CFAC7
:1042900010BD03681C6844F001041C6003681C68BE
:1042A00044F480641C60016380F83D20E6E7000070
:1042B00070B5044690F83D0094F83E10102906D1E0
:1042C000222804D121680A6822F400620A602821A9
:1042D00031EA00024FF000054FF0200626D0216899
:1042E0004968090503D4602801D084F83D6025633E
:1042F00084F83E5020684168090537D5416821F4AB
:1043000000614160606B90F835203749012A11D077
:104310000165606BFCF721FF38B32068016821F06C
:104320000101016084F83D60606B1CE0256384F846
:104330003D10DFE7A06B0165A06BFCF70EFFA0B19D
:1043400020684169C943490605D40069616A08705B
:10435000606A401C60622068016821F00101016010
:1043600084F83D60A06B016D884710E094F83D1023
:10437000602923D04169C943490605D40069616AAF
:104380000870606A401C60622046FDF799FB94F853
:104390003D00216C490710D528280ED120684168BE
:1043A00021F4E06141601148E062256384F83D60DA
:1043B00084F83E502046FDF73FFC70BD84F83D6018
:1043C00025644169C943490605D40069616A0870DA
:1043D000606A401C60622068016821F00101016090
:1043E0002046FDF7E1F9D2E7314200080000FFFF67
:1043F00001684A69D24352050FD46FF480624A6162
:10440000002140F8301F202242738173026942F07C
:10441000040202610173012070470020704710B54B
:10442000C26A438D0168042B06D0438D032B08D04C
:10443000438D022B1DD012E04A6822F480624A604C
:104440000CE04B6823F480634B60042A06D0022AF8
:1044500004D001680A6822F480620A600168096970
:10446000426A1170416A491C4162418D491E418571
:1044700010BD012A30D0102A2ED0042A30D0022AB2
:104480002ED00A6842F400720A6001680969426A23
:104490001170416A491C4162428D521E4285026878
:1044A00012690A70416A491C4162418D491E418569
:1044B00001684A6822F440724A60202180F83D1069
:1044C00090F83E200021402A80F83E100CD01221A6
:1044D0000163FDF7B3FB10BD0A6822F48062D3E7E5
:1044E0000A6842F48062CFE70163FDF737FE10BD32
:1044F00010B590F83D10222914D1418D032912D90D
:1045000001680969426A1170416A491C4162418D22
:10451000491E4185418D032904D10068416821F479
:104520008061416010BDC26A022AFBD0012901D01E
:104530000029F7D101680A6822F480620A600168E4
:104540004A6822F4E0624A6001680969426A1170AF
:10455000416A491C4162418D491E4185202180F8F4
:104560003D1090F83E200021402A80F83E1004D0F3
:1045700012210163FDF762FB10BD0163FDF7EEFD43
:1045800010BD2DE9F84F0446C06A1E4692460D46FE
:1045900021680A6842F480620A60082807D001286E
:1045A00005D010F5803F02D0206B112804D120687F
:1045B000016841F4807101604FF0011853460022F8
:1045C00041462046009600F039FBF0BB206908F117
:1045D0000109B0F5804F0FD00620216800EAD517F9
:1045E00047F0F00008613346524608F107012046C3
:1045F00000F058FB48BB03E0E8B240F001001BE0CC
:104600002168E8B20861334652464946204600F028
:1046100049FBD0B92068416981690091016841F482
:10462000807101605346002241462046009600F00A
:1046300005FB50B947F0F100216808613346524646
:104640004946204600F02EFB00E001E0002800D0A3
:104650000120BDE8F88F0000F8B50446C06A1E4688
:104660000D461746082807D0012805D010F5803FD1
:1046700002D0206B122804D12068016841F48071B7
:104680000160134600224FF001112046009600F011
:10469000D5FA08BB2069B0F5804F0ED006202168FE
:1046A00000EAD51040F0F000086133463A460B4965
:1046B000204600F0F7FA78B902E005F0FE0000E0CD
:1046C000E8B221680861054933463A46891F204609
:1046D00000F0E8FA002800D00120F8BD0800010031
:1046E00010B5C26A90F83D1021290BD1418D51B10E
:1046F000416A026809781161416A491C4162418D31
:10470000491E418510BD20230021082A13D0202AEC
:1047100011D012F5803F0ED00268546824F4E06492
:1047200054601122026380F83E1080F83D3000BFD3
:10473000FDF7A8FA10BD0268546824F4E0645460E0
:104740000268146844F400741460016380F83D301A
:1047500090F83E2080F83E10402AE9D1FDF7FFFC9A
:1047600010BD000010B590F83D1090F83E30C26AC0
:10477000048D64B1212903D0402B21D122291FD1DE
:10478000418DA1B390F83E10402937D046E0212951
:10479000F2D120230021082A13D0202A11D012F5AB
:1047A000803F0ED00268546824F4E0645460112203
:1047B000026380F83E1080F83D3000BFFDF762FADA
:1047C00010BD0268546824F4E06454600268146800
:1047D00044F400741460016380F83D3090F83E208A
:1047E00080F83E10402AE9D1FDF7B9FC10BDFFE783
:1047F0000068416821F480614160F7E7016DC1B153
:10480000016D012922D0016D0229EFD190F83D10F0
:10481000222923D090F83D102129E7D1416A02686E
:1048200009781161416A491C4162418D491E4185E7
:10483000DCE7C16C0129816C02D0C1F3072107E0DC
:104840000268C9B21161016D891C05E0816CC9B2B1
:1048500002681161016D491C0165C7E700680168C4
:1048600041F480710160C1E778B590F83E50C26AAA
:10487000036B90F83D6000240168222E7AD1066D0A
:104880000EB9402D76D0056D1DB90569B5F5404FBF
:1048900009D0458D05B3468D384D012E0ED0438D80
:1048A000022B3AD05DE04A698A6900920A6842F4B4
:1048B00080720A60016D491C016578BDAA4213D15E
:1048C0000A6822F480620A6001684A68120503D50A
:1048D0000A6822F4806216E04A698A6900920A68CE
:1048E00042F400720A6039E0082A10D0202A0ED063
:1048F000122B0AD0042A03D0022A01D0102AE7D1B1
:104900000A6842F480620A6024E0012AE0D00A6862
:1049100022F480620A600168DEE7042A21D0022ABC
:104920001FD0102A1DD00B6823F480630B60016830
:104930000B6843F400630B6001684B681B0509D5E5
:10494000AA4212D0012A10D0082A0ED0102A0CD068
:10495000202A0AD001684A6989690091046578BDF6
:1049600008E00B6843F48063E5E74A6842F480524C
:104970004A60EFE7486988690090F0E70000FFFFB0
:1049800090F83E10402910D00169B1F5804F19D040
:10499000016DB1B3016D012910D1416C5FF0F102DD
:1049A00001F4407142EAD11106E0016D0029416C29
:1049B00005D0C9B241F0010100680161704701F002
:1049C000FE01F9E790F83D102129416C07D0C9B2EA
:1049D00041F0010102681161416B31B902E001F05F
:1049E000FE01F7E7826B002AE8D0C96B19B9816B29
:1049F000C96B0029E2D00068416841F40061416060
:104A00007047FFE7416CF02201F44071CAE70000F3
:104A10002DE9F04190F83D40C26A002320261C4F4A
:104A200001686FF48065082A01D0202A01D1282C62
:104A300004D0212C16D04D61BDE8F081C7624A68D0
:104A400022F4E0624A6001684D6101680A6822F45C
:104A500080620A60036380F83D6080F83E30FDF7B5
:104A6000EBF8E9E7C7622122026380F83D6080F835
:104A70003E304A6822F4E0624A6001684D61016894
:104A80000A6822F480620A60FDF7DDFBD4E70000CB
:104A90000000FFFFF8B590F83D60044600684168EB
:104AA00021F4E061416020680025416900910168BE
:104AB00041F0010101602068016821F4806101601A
:104AC00020684168090520D5474F222E48D02A2E5C
:104AD00046D0616B096849686185618D19B1216CA7
:104AE00041F004012164416821F400614160606B80
:104AF000FCF745FB012808D0606B0765606BFCF78D
:104B00002CFB10B1606B016D8847608D08B3206885
:104B10004169C943490708D40069616A0870606A3D
:104B2000401C6062608D401E608520684169C943F9
:104B3000490608D40069616A0870606A401C6062B6
:104B4000608D401E6085608D18B1206C40F00400BF
:104B50002064206C00B32046BDE8F840FFF7A8BBF6
:104B6000A16B096849686185618D19B1216C41F0BB
:104B700004012164416821F400614160A06BFCF7ED
:104B8000FEFA0128C1D0A06B0765A06BFCF7E5FA1F
:104B90000028BAD0A06BB6E72A2E06D125632820BC
:104BA00084F83D002046FDF74DFB94F83D10202091
:104BB00028290DD0216B222901D0222E07D125636F
:104BC00084F83D0084F83E502046FDF73BFBF8BDDD
:104BD0000649E162256384F83D0084F83E50204692
:104BE000FDF72AF8F8BD0000314200080000FFFF81
:104BF00070B516460D4604460DE02046FFF7F8FB5B
:104C000008B1012070BD681C05D0FCF7C7FD801BF2
:104C1000A84207D835B120684069C0434007ECD4AA
:104C2000002070BD002044F8300F20216173A07374
:104C3000216941F0200121612073E2E72DE9F0476D
:104C40001E4690460D460446C1F30747DDF8209006
:104C500008E0701C06D0FCF7A1FDA0EB0900B042F3
:104C60000FD876B12068012F18D0806925EA00009E
:104C70000004000C14D000214145EAD00020BDE81A
:104C8000F087002044F8300F20216173A073216960
:104C900041F02001216120730120F0E74069E5E740
:104CA0000121E9E72DE9F0479A4691460E46044670
:104CB00000254FF02008C1F3074725E02068406930
:104CC000C043400514D42068016841F400710160BC
:104CD00021686FF480604861256384F83D8084F822
:104CE0003E50206C40F00400206484F83C501FE0EB
:104CF000B9F1FF3F08D0FCF751FDA0EB0A0149458F
:104D00000CD8B9F1000F09D02068012F13D08069A9
:104D100026EA00000004000C0BD0CFE744F8305F17
:104D200084F80D80A573206940F020002061257370
:104D30000120BDE8F0874069EAE72DE9F041002550
:104D400090460E460446202717E04069C043C0063F
:104D50000CD454F8301B6FF01000486144F810591F
:104D60006777A577206A2062257717E0FCF716FDA4
:104D7000A0EB0800B04208D83EB120684169C943A1
:104D80004906E2D40020BDE8F08144F8305F677343
:104D9000A573206940F02000206125730120F2E70F
:104DA00070B516460D4604460DE02046FFF720FB81
:104DB00008B1012070BD681C05D0FCF7EFFC801B1A
:104DC000A84207D835B120684069C0430006ECD43A
:104DD000002070BD002044F8300F20216173A073C3
:104DE000216941F0200121612073E2E7F0B5002341
:104DF0000A24302537261F4611E000BFB4EB107F90
:104E000002D905EB107C01E006EB107C01F813C021
:104E100001EB430C00015B1C8CF80170DBB2934288
:104E2000ECD3F0BD70B5094DFF22134605F5807631
:104E300006E000BF10F8014B54402A5D5A40335D34
:104E4000491EC9B2F6D242EA032070BDA00100207B
:104E50007FB50025384800950195029535490395A1
:104E6000016001244FF480310461C0E9011504762A
:104E700080F820503149C0E90A150826C661C5608E
:104E800080F830404461FBF78AFD08B1FBF7DDFC98
:104E9000CDE900540325694627480295FBF7D6FC67
:104EA00008B1FBF7D2FC0094022469462248019421
:104EB000FBF7CCFC08B1FBF7C8FC69461E48CDE9FE
:104EC0000045FBF7C3FC08B1FBF7BFFC0424CDE9A8
:104ED000005469461848FBF7B9FC08B1FBF7B5FC6C
:104EE00000940524694614480194FBF7AFFC08B10F
:104EF000FBF7ABFC0094062469460F480194FBF7CE
:104F0000A5FC08B1FBF7A1FC0094072469460A48F8
:104F10000194FBF79BFC08B1FBF797FCCDE9004639
:104F200069460548FBF792FC002801D0FBF78DFC91
:104F30007FBD000000220140081201200100000F87
:104F40000D4810B50B4901601021416000218160BE
:104F5000C16001614161017641768176C176017758
:104F60004177FBF76FFE002803D0BDE81040FBF748
:104F70006CBC10BD00640040B01201200D4810B59B
:104F80000B4901601021416000218160C160016115
:104F90004161017641768176C17601774177FBF7F1
:104FA00051FE002803D0BDE81040FBF74EBC10BDF9
:104FB00000680040D81201201CB50024104900945C
:104FC0000E48019408600846FBF75FFF08B1FBF745
:104FD0003CFC0420CDE90004002269460848FBF7A8
:104FE00030FF08B1FBF731FC102269460448FBF79B
:104FF00028FF002801D0FBF728FC1CBD00740040EE
:1050000000130120154808B5016841F480010160D2
:10501000016801F480010091016841F40011016010
:105020000068002200F40010009011461020FDF7E7
:1050300083F91020FDF773F9002211461120FDF7C6
:105040007BF91120FDF76BF9002211463820FDF79E
:1050500073F9BDE808403820FDF761B930380240E7
:10506000F0B587B014216846FBF7F4F83248002405
:10507000016841F020010160016801F02001059103
:10508000016841F080010160016801F08001059133
:10509000016841F004010160016801F0040105911B
:1050A000016841F001010160016801F00101059111
:1050B000016841F002010160016801F002010591FF
:1050C000016841F00801016000681C4E00F0080012
:1050D0000590002206213046FCF75AFB184F0022AB
:1050E00018213846FCF754FB0920CDE90004694635
:1050F00030460294FCF774FA062000900125CDE9B1
:105100000154694630460394FCF76AFA280200907D
:105110000220CDE90104039469460A480494FCF78F
:105120005FFA18200090CDE901546946384603948F
:10513000FCF756FA07B0F0BD3038024000080240D4
:10514000000C0240000002400D4810B50B49016000
:105150000C49416000214FF480428160C0E9031294
:1051600041618161C1610162FCF7ACFC002803D0A0
:10517000BDE81040FBF769BB10BD000000540040C3
:10518000D4130120801A06000D4810B50B490160A8
:105190000C49416000214FF480428160C0E9031254
:1051A00041618161C1610162FCF78CFC002803D080
:1051B000BDE81040FBF749BB10BD0000005800409F
:1051C00028140120801A0600104810B50E4901600D
:1051D0004FF48271416000218160C1604FF4007220
:1051E0000161C0E905123822C0E9072141628162EC
:1051F0000A21C162FEF76EF9002803D0BDE8104015
:10520000FBF723BB10BD0000003800407C140120D8
:1052100010B586B0002417480094019402940394BA
:1052200004941349059401605421C0E901144FF618
:10523000FE71C0E9031444618461FEF76AFB08B1A2
:10524000FBF703FB4FF48050009069460948FEF7D6
:1052500039FC08B1FBF7F9FA049404A90548059450
:10526000FEF736FB002801D0FBF7EFFA06B010BDC1
:1052700000000140D414012010B586B00024154868
:10528000009401940294039404944FF08041059497
:1052900001605321C0E90114C46004618461FEF718
:1052A00038FB08B1FBF7D1FA4FF480500090694603
:1052B0000848FEF707FC08B1FBF7C7FA049404A9F5
:1052C00004480594FEF704FB002801D0FBF7BDFA63
:1052D00006B010BD1415012010B586B00024184882
:1052E0000094019402940394049414490594016079
:1052F00041F61F41C0E901140921C0E903148021CE
:105300008161FEF706FB08B1FBF79FFA4FF480506E
:10531000009069460A48FEF7D5FB08B1FBF795FAFD
:105320002020CDE9040404A90548FEF7D1FA00289D
:1053300001D0FBF78AFA06B010BD0000000400405F
:105340005415012010B586B000241648009401942D
:105350000294039404941249059401604721C0E922
:1053600001143121C0E903148461FEF7D2FA08B1B7
:10537000FBF76BFA4FF48050009069460948FEF73E
:10538000A1FB08B1FBF761FA049404A90548059450
:10539000FEF79EFA002801D0FBF757FA06B010BDC1
:1053A000000800409415012010B586B0002417486D
:1053B00000940194029403940494134905940160A9
:1053C0005321C0E901144FF47A71C0E903148461D8
:1053D000FEF79FFA08B1FBF738FA4FF480500090BF
:1053E00069460A48FEF76EFB08B1FBF72EFA0494F3
:1053F00004A906480594FEF76BFA002801D0FBF7D4
:1054000024FA06B010BD0000000C0040D4150120A5
:105410001CB500240F4800940D49019401605421EB
:10542000C0E901144FF47A71C16080218161FEF7F7
:1054300070FA08B1FBF709FA2020CDE900046946AB
:105440000448FEF745FA002801D0FBF7FEF91CBD21
:1054500000100040141601201CB500240F480094D1
:105460000D490194016042F2CF01C0E901143221DB
:10547000C16080218161FEF74CFA08B1FBF7E5F9C4
:105480000094694605480194FEF722FA002801D0ED
:10549000FBF7DBF91CBD000000140040541601208E
:1054A00010B586B000241848009401940294039427
:1054B00004941449059401605321416010218160D6
:1054C0004FF47A71C0E9031444618461FEF721FA54
:1054D00008B1FBF7BAF94FF48050009069460A48CA
:1054E000FEF7F0FA08B1FBF7B0F9049404A90648F6
:1054F0000594FEF7EDF9002801D0FBF7A6F906B0F8
:1055000010BD000000040140941601200C4810B5A5
:105510000A4901604FF4E1314160002181600C22B1
:10552000C160C0E904128161C161FEF733FD00284A
:1055300003D0BDE81040FBF788B910BD0010014052
:10554000D41601200C4810B50A4901604FF4E1312E
:105550004160002181600C22C160C0E904128161B8
:10556000C161FEF717FD002803D0BDE81040FBF72E
:105570006CB910BD004400401417012010B5002282
:105580000F49104801F0B6FA08B1FBF75EF90E4971
:105590000C4801F08FFC08B1FBF757F90B4909489B
:1055A00001F0C0F808B1FBF750F9064801F0D8FC4B
:1055B000002803D0BDE81040FBF747B910BD00003C
:1055C0001C00002054170120680100206C000020FE
:1055D00070B504463D48FDF7E7FE3C493C4808608D
:1055E0006288002012B1012A05D103E04FF48272D3
:1055F0004A6000E04860A28822B1012A04D0022A51
:1056000009D105E0886006E04FF480628A6002E01C
:105610004FF400424A60E28812B1012A05D101E04C
:10562000C86002E04FF40062CA60228912B1012A08
:1056300004D101E0086101E002220A61628912B12D
:10564000012A04D101E0486101E001224A614FF4DE
:1056500000728A61E3891022082B0DD2DFE803F083
:105660000406080A11131517C86105E0082302E0B3
:10567000CA6101E01823CB61238A53B1012B0CD1FD
:1056800009E02023F7E72823F5E73023F3E7382361
:10569000F1E7086201E080230B62638A13B1012BFA
:1056A00003D101E0486200E04A6288620A20C862D1
:1056B0000648FDF76BFF0548FDF70CFF002803D0F7
:1056C000BDE87040FBF7C1B870BD00007C1401203C
:1056D000003800401A4910B5184A0A60D0F8022074
:1056E0004A60438900220BB1012B00D18A60C38834
:1056F00013B1012B05D101E0CA6002E04FF4005361
:10570000CB60008920B1012804D0022808D104E030
:105710000A6105E04FF4806001E04FF4C060086169
:105720000C20C1E905020648CA61FEF733FC0028D7
:1057300003D0BDE81040FBF788B810BD0010014051
:10574000D41601201A4910B5184A0A60D0F8022070
:105750004A60438900220BB1012B00D18A60C388C3
:1057600013B1012B05D101E0CA6002E04FF40053F0
:10577000CB60008920B1012804D0022808D104E0C0
:105780000A6105E04FF4806001E04FF4C0600861F9
:105790000C20C1E905020748CA61FEF7FBFB00289F
:1057A00003D0BDE81040FBF750B810BD00440040E6
:1057B00014170120D41601204FF4E131C0F8021073
:1057C00000214181C18001817047FEE770470000E0
:1057D0000148FCF731BF0000F01901202DE9F0412C
:1057E000044600680E46016C00EB4615D5F8080B20
:1057F000276920234FF40042012F08D02C4FB942D3
:105800004FD1010449D500BFC5F8082B4DE0DFF8A2
:10581000A4C05FEA007E04F5717711D5614503D914
:10582000000401D5C5F8082B2046FDF725FA3A46B5
:105830000121206801F052FF0820C5F8080B34E070
:105840005FEA806E02D5C5F8083B2EE010F0280F05
:105850002BD1614501D90004D6D4C6EBC60004EBB8
:105860008000D5F8102BD0F80412C2F312028A1A65
:10587000C0F81422D0F808221144C0F80812F1B27E
:105880002046FCF7BFFD86B9D4F8100268B93A4645
:105890000121206801F022FF07E0800601D5C5F84C
:1058A000083BF1B22046FCF7ADFD0020BDE8F081D9
:1058B0000A31544F0A30544F2DE9F84F0E46C1EBD0
:1058C000C60100EB810481460568D4E914103C341C
:1058D000884202D90120BDE8F88F081AA1688142E8
:1058E00000D20846C01C870805EB46181BE000BF25
:1058F000A0EB010AA068504500D282460AF10300DD
:10590000870899F8100000901FFA8AF3F2B228462F
:10591000E16802F06BF9E16801EB0A00E060A1695F
:1059200001EB0A00A061D8F8180980B2B84205D38B
:10593000D4E90501814201D20028D9D1D4E9050179
:10594000884208D806F00F0101208840D5F83418A5
:105950008143C5F834180020BDE7704708B50188B9
:10596000ADF80010BDF80010BDF80020090241EAB2
:105970001221ADF80010BDF80010018008BD000034
:105980000148FDF729BD00007C1401200168C968A9
:10599000826B1180816B891C8163C18F491EC18715
:1059A000C18F002909D101684A6822F040024A608B
:1059B000C18E002901D100F07FB870470168097BD2
:1059C000826B1170816B491C8163C18F491EC18735
:1059D000C18F002909D101684A6822F060024A603B
:1059E000C18E002901D100F067B87047016B0268D1
:1059F0000988D160016B891C0163C18E491EC18673
:105A0000C18E002909D101684A6822F080024A60EB
:105A1000C18F002901D100F04FB87047016B0268B7
:105A200009781173016B491C0163C18E491EC1863F
:105A3000C18E002909D101684A6822F080024A60BB
:105A4000C18F002901D100F037B87047124908B55D
:105A5000096845F6C052B1FBF2F16422514300914E
:105A60000168009A9AB1521E00928A689207F8D58E
:105A70000A6822F040020A6001684A6822F0E002E7
:105A80004A600168C968072180F8511008BD426D5D
:105A900042F040024265EBE78800002001684A6856
:105AA00022F080024A6001680A6822F040020A601F
:105AB000072180F85110704738B50446214845F653
:105AC000C0510068B0FBF1F0642148430090FBF73F
:105AD00065FE02462068416821F02001416000987F
