:020000040800F2
:10000000C8A600209D010008D747000891350008C8
:10001000D5470008DD060008F56400080000000070
:10002000000000000000000000000000654900081A
:1000300049080008000000006349000867490008FB
:10004000B7010008B7010008B7010008B7010008B0
:10005000B7010008B7010008B7010008B7010008A0
:10006000B7010008B7010008B7010008B701000890
:10007000B7010008B7010008B7010008B701000880
:10008000810700088D070008B7010008B7010008C4
:10009000B7010008B7010008B7010008B701000860
:1000A000B7010008B7010008B7010008B701000850
:1000B000B7010008B7010008514A0008D935000807
:1000C000CD350008B7010008B7010008B7010008E6
:1000D000B7010008B7010008B7010008B701000820
:1000E000B7010008B7010008B7010008B701000810
:1000F000B7010008B7010008B7010008B701000800
:10010000B7010008B7010008B7010008B7010008EF
:10011000B7010008B7010008B7010008B7010008DF
:1001200099070008B7010008B7010008B7010008E7
:10013000B70100080000000000000000B70100083F
:10014000B7010008B7010008B7010008D947000847
:10015000B7010008B7010008B7010008B70100089F
:10016000B7010008B7010008B7010008B70100088F
:10017000B7010008B70100080000000000000000FF
:10018000B7010008B7010008DFF80CD000F08EF9C5
:100190000048004721680008C8A60020064880479C
:1001A00006480047FEE7FEE7FEE7FEE7FEE7FEE75C
:1001B000FEE7FEE7FEE7FEE7FD49000889010008CB
:1001C0002DE9F05F0546002092469B46884606468C
:1001D000814640241BE0284641464746224600F01F
:1001E000F8F853465A46C01A914110D311461846A2
:1001F000224600F0DFF82D1A67EB01084F46224631
:100200000120002100F0D6F817EB00094E41201E16
:10021000A4F10104DFDC484631462A464346BDE8E6
:10022000F09F40EA01039B0703D009E008C9121FB1
:1002300008C0042AFAD203E011F8013B00F8013BA0
:10024000521EF9D27047D2B201E000F8012B491ECC
:10025000FBD270470022F6E710B513460A46044663
:100260001946FFF7F0FF204610BD30B504460020C8
:10027000034600E05B1C934203D2E05CCD5C401B74
:10028000F8D030BD2DE9FE4F81EA030404F00044AC
:1002900021F0004100944FF0000B23F0004350EA9E
:1002A00001045ED052EA03045BD0C3F30A54C1F3E5
:1002B0000A552C44A4F2F3340194A0FB0254C1F378
:1002C000130141F48011C3F3130343F4801301FBC2
:1002D000024400FB034E840A970A44EA815447EA29
:1002E0008357A4FB076802958D0A05FB07854FEA33
:1002F000932C04FB0C542705029D4FEA065847EA4D
:100300001637B5EB08056EEB070C870E920E47EA21
:10031000811742EA8312A7FB0201B6EB0B0164EBE3
:1003200000042B0D43EA0C335E1844EB1C50DA46F4
:100330005146E7FB0201C5F313044FEA0B3343EACE
:1003400014534FEA0432019C43EA0603A4F10C045F
:100350000294009CCDE900B400F05AF803B0BDE867
:10036000F08F00200146F9E70EB540F233410291CB
:100370000021CDE900110A460B4600F049F803B010
:1003800000BDC1F30A5210B5C1F3130140F2FF33AF
:1003900041F480119A4201DA002010BD40F233434B
:1003A0009A42A2F2334203DC524200F012F810BD2E
:1003B000904010BD202A04DB203A00FA02F1002010
:1003C00070479140C2F1200320FA03F31943904093
:1003D0007047202A04DB203A21FA02F000217047FE
:1003E00021FA02F3D040C2F120029140084319469D
:1003F000704710B5141E73F1000408DA401C41F177
:10040000000192185B411A4301D120F0010010BD98
:100410002DE9F04D92469B4611B1B1FA81F202E00E
:10042000B0FA80F220329046FFF7C4FF04460F4630
:1004300040EA0A0041EA0B0153465A46084313D0EA
:10044000114653EA010019D0C8F140025046FFF7A7
:10045000C0FF05460E46504659464246FFF7AAFFE2
:10046000084305D0012004E020463946BDE8F08D60
:100470000020054346EAE0762C4337430A9863059B
:10048000E40AA0EB08000022FD0A44EA47540A30BF
:1004900002D500200146E9E7010510196941DDE9AF
:1004A000084500196941BDE8F04DA2E7064C074D2B
:1004B00006E0E06840F0010394E807009847103434
:1004C000AC42F6D3FFF764FE8C7F0008AC7F0008D7
:1004D00070B58C1810F8015B15F0070301D110F806
:1004E000013B2A1106D110F8012B03E010F8016B33
:1004F00001F8016B5B1EF9D12B0705D40023521EB6
:100500000DD401F8013BFAE710F8013BCB1A921C1D
:1005100003E013F8015B01F8015B521EF9D5A1421B
:10052000D8D3002070BD10B50146806B026C12F06C
:10053000500F05D0026CD20626D500F02FFA10BD60
:10054000016C41F40071016401688A6812F0405F37
:1005500017D1027EAAB9CA6A12F4700F02D08A6853
:1005600052050ED44A6822F020024A60016C21F440
:1005700080710164016CC90403D4016C41F0010174
:10058000016400F009FA10BD806BC26CBDE8104038
:100590000846104710B5806B40210164416C41F062
:1005A0000401416400F0FAF910BD10B5806B00F051
:1005B000F4F910BD464910B54A6822F440324A6049
:1005C0004A6843681A434A6001684A6822F48072A4
:1005D0004A6001684A68036942EA03224A60016886
:1005E0004A6822F040724A6001684A6883681A4388
:1005F0004A6001688A6822F400628A6001688A6839
:10060000C3681A438A60816A6FF07062D1420168E0
:100610008A6822F070628A6001688A680CD0836AF6
:100620001A438A6001688A6822F040528A60016831
:100630008A68C36A1A4301E022F040528A60016866
:100640008A6822F002028A6001688A68037E42EAB0
:1006500043028A6090F82010002901684A680FD090
:1006600042F400624A6001684A6822F460424A60CB
:1006700001684A68174C436A04EB43331A4301E0AC
:1006800022F400624A600168CA6A22F47002CA62F7
:100690000168CA6A838B104C04EB03531A43CA6285
:1006A00001688A6822F400728A6001688A6890F89A
:1006B000303042EA43228A6001688A6822F480620C
:1006C0008A6001688A68406942EA8020886010BDBB
:1006D0000023014000E0FFFF0000F0FFFEE70020E4
:1006E000704700207047000010B5044B044A4FF4D7
:1006F0007A71044807F0CEFB002010BDE092002084
:10070000E0910020AC03002010B50A6801460248C1
:1007100007F08EFB002010BDAC03002010B5846BE9
:10072000204600F0AFFB0120207110BD10B5846B96
:10073000204600F083FB0120207110BD10B5846BB2
:10074000206940F004002061204600F09DFB01205C
:10075000207110BD10B5846B206940F00400206149
:10076000204600F06DFB0120207110BD10B5806B9C
:1007700000F089FB10BD10B5806B00F060FB10BD70
:10078000014800F0FFBC00000C900020014800F080
:10079000F9BC00006C900020014800F0F3BC0000A0
:1007A000488F002001681823CAB2103AB2FBF3F256
:1007B000054B6FF30901032A9B5CC36500D9091D32
:1007C00081650846704700006C7F000810B501463F
:1007D00000208B698A6A4FF0C07453B1B3F5005F93
:1007E00015D072B1012A0CD0022A0AD0032A09D1ED
:1007F00004E01AB1012A06D0022A03D1C96AC9014C
:1008000000D5012010BDC96AA142FAD010BD002A4E
:10081000F7D0012AF2D0022AF3D0032AF3D010BD78
:1008200030B50468256825F4802525600468636078
:100830008368402B036803D099600068C26030BDB4
:100840009A600068C16030BD7047704778B5002479
:10085000009490F83C20012A19D0012280F83C2015
:100860000A6807230568092A13D9EE680A3A02EBD9
:10087000420293409E43EE600B788A680A3B03EB8A
:1008800043039A400368DD682A43DA6010E00220DF
:1008900078BD2E6902EB420293409E432E610B7895
:1008A0008A6803EB43039A4003681D692A431A616F
:1008B0004A681F23072A13D205686E6B521E02EB8B
:1008C000820293409E436E630B790A885B1E92B24C
:1008D00003EB83039A4003685D6B2A435A6327E066
:1008E00005680D2A12D22E6BD21F02EB82029340B2
:1008F0009E432E630B790A88DB1F92B203EB8303BE
:100900009A4003681D6B2A431A6311E0EE6A0D3AA0
:1009100002EB820293409E43EE620B790A880D3B04
:1009200092B203EB83039A400368DD6A2A43DA62DA
:10093000164B0568144A9D4206D10D68122D03D14D
:10094000556845F48005556005689D4218D10B68CF
:10095000102B01D0112B13D1536843F400035360C3
:10096000096810290CD10A490A4A0968B1FBF2F159
:1009700001EB8101490000E0491E00910029FBD1F3
:1009800080F83C40002078BD002301400020014059
:100990008800002040420F0070477047704770B5D4
:1009A00004004FF0000503D0206C002610B107E0D2
:1009B000012070BD204600F01DF8666484F83C609C
:1009C000206CC00610D4206C20F4885040F0020047
:1009D00020642046FFF7EEFD6664206C20F00200E4
:1009E00040F00100206400E0012584F83C602846C6
:1009F00070BD000070B586B0064614216846FFF74A
:100A000029FC2849306888424AD1274800250168D6
:100A100041F4806101600068234900F4806014396A
:100A20000590086840F020000860086800F0200089
:100A30000590086840F0010008600868032400F091
:100A4000010005904FF470708DE831006946174839
:100A500000F020FD0F208DE831006946144800F0B9
:100A600019FD154C134820608005C4E901050014E8
:100A7000C4E90350400060618000A0614011E06162
:100A800000022062042060620120C4E90A052046B9
:100A9000256300F047FC08B1FFF7D7FEB463A663F7
:100AA00006B070BD002201404438024000140240EC
:100AB0000000024010640240488F0020F8B50E4646
:100AC00000210446009190F83C00012807D0012045
:100AD00084F83C0020688368DB0702D011E0022024
:100AE000F8BD836843F0010383603748374B0068E3
:100AF000B0FBF3F000EB400000E0401E0090002847
:100B0000FBD120688368DB075CD0236C40F2016571
:100B1000AB4343F4807323644068400505D5206CE3
:100B200020F4005040F480502064206CC00404D5B0
:100B3000606C20F00600606400E0616484F83C10A2
:100B4000A16B2448224DC863A16B23480864A16BA4
:100B50002248C86421686FF022000860206841685C
:100B600041F0806141602068816841F4807181605A
:100B70002168134632464C31A06B00F03DFC68689A
:100B80001749C006206806D088421BD1816811F041
:100B9000405F13D016E08842F8D0124A904203D149
:100BA000D1F80423D206F1D00F4A90420AD1D1F8ED
:100BB000041301F01F011029E8D303E0816841F01C
:100BC000804181600020F8BD8800002040420F0075
:100BD0000023014027050008AB0500089505000823
:100BE00000200140002101400022014010B50446D0
:100BF000002094F83C1001290CD0012184F83C100D
:100C000021688A6822F001028A6021688A68D20716
:100C100002D013E0022010BD886820F48070886044
:100C2000A06B00F053FA21684A6822F080624A60A3
:100C3000216C21F4885141F001012164002184F8E4
:100C40003C1010BD70B5040003D094F8200010B122
:100C500004E0012070BD204600F082F820680168A1
:100C600021F00201016000F0F3FC0546052604E0D6
:100C700000F0EEFC401B0A2811D82068406880076D
:100C8000F6D42068016841F00101016000F0E0FC49
:100C900005460BE000F0DCFC401B0A2806D9606A20
:100CA00040F40030606284F82060D2E72068406839
:100CB000C007EFD0207E0128206801683DD021F0D8
:100CC00080010160607E01282068016838D021F031
:100CD00040010160A07E01282068016833D021F026
:100CE00020010160E07E0128206801682ED041F0DB
:100CF00010010160207F01282068016829D021F0BF
:100D000008010160607F01282068016824D021F07B
:100D100004010160D4E902010843D4E9041211433B
:100D200008436168491E08432168C8610020606269
:100D3000012084F82000002070BD41F08001C0E750
:100D400041F04001C5E741F02001CAE721F0100160
:100D5000CFE741F00801D4E741F00401D9E70000F2
:100D6000F0B587B0044614216846FFF773FA2E4B9E
:100D70002E48DFF8B0E01968D4F800C02B4A0325EC
:100D80000226092710300024491CF4451AD11960A5
:100D9000012907D1016841F000710160006800F08D
:100DA00000700590106840F0080010601068CDE9F0
:100DB000005600F00800CDE9047069461C48CDE9F2
:100DC00002452BE0DFF86CE0F44529D1D0F800C0F3
:100DD0004CF0806CC0F800C0D0F800C001290CF0C5
:100DE000806CCDF814C0196007D1016841F0007122
:100DF0000160006800F000700590106840F002008B
:100E00001060106802AB00F0020005904FF44050F3
:100E1000CDE9000683E8B0006946074800F03AFBD8
:100E200007B0F0BD006400401800002030380240D8
:100E3000000C024000680040000402407047704708
:100E4000704770B54379012B1AD0012646710223F1
:100E5000037105682C6840F6FE7393409C43D1E90A
:100E600000310B43934023432B6001680B68C0247F
:100E70009440A3430B60067100214171084670BD88
:100E8000022070BD70477047704770B5040003D0F2
:100E90002079002510B105E0012070BD6571204664
:100EA00000F008F802202071256101202071002047
:100EB00070BD00002DE9F04F87B00646142168464A
:100EC000FFF7C8F92E493068884256D12D480025D1
:100ED000016841F000510160006800F00050059089
:100EE00028481038016841F0010101600068694636
:100EF00000F001000590302000900320CDE90105AD
:100F0000214800F0C7FA224C20484FF060674FF0AC
:100F1000400884E881014FF400690015C4F814907A
:100F2000C4E9035004F11801C0004FF4807A4FF473
:100F3000803B656281E8010C204600F0F3F908B1BE
:100F4000FFF783FCB460A663114C1048603418307E
:100F500084E881010015C4F81490C4E9035004F139
:100F60001801C000656281E8010C204600F0DAF942
:100F700008B1FFF76AFCF460A66307B0BDE8F08F24
:100F80000074004040380240000002408860024087
:100F90000C9000202DE9F04104460D46174661797A
:100FA00000220698012920D00126667102212171B4
:100FB000F5B1D4F80CC03149CCF83C10D4F80CC0D1
:100FC0002F49CCF84010D4F80CC02E49CCF84C1066
:100FD0002168D1F800C04CF0805CC1F800C090B32B
:100FE000042834D0082837D134E00220BDE8F0814D
:100FF000D4F808C02449CCF83C10D4F808C02349E0
:10100000CCF84010D4F808C02149CCF84C10216825
:10101000D1F800C04CF4805CC1F800C020B10428B5
:1010200005D0082808D105E02268083204E02268CB
:101030000C3201E0226810322068016841F400514E
:101040000160A0680EE0FFE72268143204E0226825
:10105000183201E022681C322068016841F000511A
:101060000160E068394600F0C7F920680168AE40C9
:101070003143016000206071B8E700002D070008CF
:1010800077070008550700081D0700086D070008CE
:101090003D07000870B50446006802684FF48053AD
:1010A0008B409A43026020680268012505FA01F32B
:1010B0009A43026031B1E06800F008F820B10421E1
:1010C000217170BDA068F7E7257170BD2DE9F04171
:1010D0000446876D00F0BCFA064694F835000025FA
:1010E000022806D08020606584F834500120BDE8D5
:1010F000F0812068016821F01601016020684169D3
:1011000021F080014161206C08B9A06C20B12068F9
:10111000016821F0080101602068016821F00101E7
:1011200001600BE000F094FA801B052806D920200E
:10113000606504F8345F03206070D8E720680068B9
:10114000C007EFD194F85C103F208840B86004F8E5
:10115000345F012060700020C9E790F83510022943
:1011600003D08021416501207047052180F83510AA
:101170000068016821F0010101600020704790F8CB
:10118000350070472DE9F84304464FF00009CDF8CB
:10119000009063484FF41651A56D0068B0FBF1F75D
:1011A0002E6894F85C10082000FA01F131420FD04B
:1011B00021680A6852070BD50A6822F004020A6007
:1011C00094F85C108840A860606D40F00100606594
:1011D00094F85C104FF0010808FA01F0304208D092
:1011E00021684969090604D5A860606D40F00200D5
:1011F000606594F85C1004208840304208D0216873
:101200000968890704D5A860606D40F00400606536
:1012100094F85C1010208840304218D0216809688A
:10122000090714D5A86020680168490304D500683F
:10123000000308D5A16C07E00168C90503D4016863
:1012400021F008010160216C09B12046884794F81B
:101250005C1020208840304231D021680968C906DE
:101260002DD5A86094F8350005282068016806D0BF
:10127000490347D5006800031DD4616C1CE021F0D0
:10128000160101602068416921F080014161206CF4
:1012900008B9A06C20B12068016821F00801016044
:1012A00094F85C103F208840A86084F8349084F85B
:1012B0003580216D1FE0E16B09B120468847606DE4
:1012C00000282BD0606DC00714D0052084F83500AD
:1012D0002068016821F0010101600098401C009025
:1012E000B84203D820680068C007F6D184F834906B
:1012F00084F83580E16C002910D001B02046BDE8AB
:10130000F04308470168C905D5D4016821F01001F0
:10131000016084F8349084F83580CCE7BDE8F88328
:10132000880000202DE9F041044600F091F90646BE
:101330005CB1002584F83450022084F83500206820
:10134000016821F0010101600DE00120BDE8F0819C
:1013500000F07EF9801B052805D920206065032058
:1013600084F83500F2E720680068C007F0D12268F1
:10137000116820480140D4E901031843D4E9033639
:101380003343184363691843A3691843E369184357
:10139000236A18430843616A042903D1D4E90B1373
:1013A00019430843106020684069666A20F007010D
:1013B00030460E43012704280CD1A06A0643E06A98
:1013C00040B12046FFF702FA20B14020606584F862
:1013D0003570BAE7206846612046FFF7E3F994F8D4
:1013E0005C203F2191408160656584F83570002064
:1013F000ACE700003F8010F02DE9F0410446866D17
:1014000090F83400002501280DD0012084F8340024
:1014100094F835700020012F07D084F8340002259D
:101420002846BDE8F0810220FBE7022784F83570EA
:1014300060652046FFF7F4F994F85C103F2088407F
:10144000B0602068016841F01601016020684169C0
:1014500041F080014161206C20B12068016841F0B9
:10146000080101602068016841F001010160D7E7CF
:1014700070B5044600F0ECF80546601C02D0044844
:101480000078044400F0E4F8401BA042FAD370BD99
:101490007C0000202DE9F84FDFF87CB100224FF0EE
:1014A00001084FF0030A4FF00F090BF1040E00BFC3
:1014B0000B6808FA02F42340A3426ED14D68022D56
:1014C00001D0122D0ED1D50800EB850CDCF8205090
:1014D0005607F70E09FA07F6B5430E69BE402E43CC
:1014E000CCF82060066855000F790AFA05FC07F071
:1014F000030726EA0C06AF40374307604E68012E0B
:1015000005D0022E03D0112E01D0122E0ED18668E6
:10151000CF6826EA0C06AF40374387604668A6438B
:101520000C79C4F30014944034434460C6688C685A
:1015300026EA0C06AC403443C4604C68E40065D530
:10154000364C256845F480452560246822F0030563
:1015500004F480440094324C2E19D6F808489507BC
:101560002F0F09FA07F5AC432E4DA84201D10025F3
:1015700024E02D4DA84201D101251FE02B4DA842AA
:1015800001D102251AE02A4DA84201D1032515E018
:10159000284DA84202D1042510E037E0264DA8428C
:1015A00001D105250AE0254DA84201D1062505E017
:1015B000234DA84201D1072500E00825BD40254361
:1015C000C6F80858DBF800405D464E689C43F603B9
:1015D00000D51C432C60DEF8004075464E689C43E5
:1015E000B60300D51C432C600B4D08352C684E68A3
:1015F0009C43F60200D51C432C60074D0C352C682B
:101600004E689C43B60200D51C432C60521C102A25
:10161000FFF44EAFBDE8F88F003C01404438024073
:101620000030014000000240000402400008024077
:10163000000C02400010024000140240001802405A
:10164000001C02400AB1816170470904FBE70000F9
:1016500001488068704700007C0000207047704798
:101660002DE9F04104460068416946680025CF43F2
:10167000F90506D4F143C90503D46FF4807101253F
:101680004161B80508D4F043C00505D421686FF462
:10169000007045F002054861780527D4F043C00585
:1016A00024D494F83E30628D94F83D00216B202BB9
:1016B00008D13AB9212810D029280ED0282801D1E4
:1016C00021290AD021686FF48060486194F83E00B7
:1016D00045F00405102804D008E0204602F072FB13
:1016E00004E02068016841F400710160380508D405
:1016F000F043C00505D421686FF4006045F008058B
:101700004861002D07D0206C284320642046BDE8A6
:10171000F04101F0A7BFBDE8F0812DE9F04102687A
:1017200000245168C56A90F83E3090F83D60102B57
:101730001CD0402B1AD0036C002B7ED053694FF085
:101740002805DB439F0779D4CF43BF0576D4016CCE
:1017500001B1946990F83D3000219D430B467FD044
:10176000C91E516180F83C30BDE8F081946953692D
:101770004FF42A07DB435FEAC37C4FF02A4604D0CC
:10178000BD42F1D0B542EFD010E0CD43AD050DD450
:10179000C16AB94201D1012103E0C16AB14201D15C
:1017A0000821C162BDE8F04102F0C4BA1D0716D499
:1017B000CD43AD0513D4416CC9B21161416B11B970
:1017C000826B002AD0D0C96B19B9816BC96B002913
:1017D000CAD00068416841F400614160C4E79D07D8
:1017E00006D4CD43AD0503D4BDE8F04102F016BAEE
:1017F000E443526864074FEA025215D4002AB3DB6F
:101800001A0608D4CA43520505D45A0705D5BDE8BF
:10181000F04102F081B95A07A6D4C9438905A3D47F
:10182000BDE8F04102F036B9002A9DDB5A060CD41F
:10183000CA43520509D45A0702E00FE023E00FE043
:1018400005D5BDE8F04102F02DB85A078CD4C94344
:10185000890589D4BDE8F04101F0BBBF94696DE70B
:10186000556825F480655560E243540700D5012191
:10187000120601D5828900E0028B80F83C3092B2DA
:10188000FFF7EDFE70E7DC0606D4CC43A40503D4D5
:10189000BDE8F04102F0D8BA212E27D0292E25D05C
:1018A0005C0655D4CC43640552D45B0752D590F8FE
:1018B0003D10438D002B91D01269436A1A70426A21
:1018C000521C4262428D521E4285428D002A85D1B1
:1018D0002A29D7D101684A6822F480624A6022210D
:1018E000016380F83D5000F0B5FB3DE71C0623D4B2
:1018F000CC43640520D45B0720D590F83D10438D80
:10190000002BBFD0436A1B781361426A521C4262AB
:10191000428D521E4285428D002AB3D12929B1D170
:1019200001684A6822F480624A602121016380F8DC
:101930003D5000F090FB17E75B07A3D4C94389052E
:10194000A0D4418D00299DD0416A097811610AE037
:101950005B0797D4C943890594D4418D002991D060
:101960001169426A1170416A491C4162418D491EE8
:101970004185F9E67047000070B504001BD094F86B
:101980003D00002520B984F83C50204600F01EFBA5
:10199000242084F83D002068016821F001010160E5
:1019A00001F040F94D4A6168914201D84C4900E08C
:1019B0004C49884201D2012070BD4B492368B0FBDD
:1019C000F1F15E6826F03F060E435E606368934265
:1019D00006D94FF4967359434FF47A73B1FBF3F180
:1019E0002368491C1E6A26F03F063143196261686C
:1019F000914210D84900401EB0FBF1F2521CC2F3D4
:101A00000B02042A01D2042022E0B0FBF1F0401CBA
:101A1000C0F30B001CE0A368F3B301EBC10202EBBF
:101A20000116421EB2FBF6F2521C42F4804212052D
:101A300049D093B301EBC10202EB0111401EB0FB90
:101A4000F1F0401CC0F30B0040F4804040F4004033
:101A50002168CA694CF6FF739A431043C861D4E900
:101A60000701084321680A6822F0C0021043086099
:101A7000D4E9030101432068826848F2FF339A43A6
:101A800011438160D4E9050108432168CA6822F046
:101A9000FF021043C86001E00EE016E02068016814
:101AA00041F0010101602564202084F83D00256398
:101AB00084F83E50002070BD01EB4106421EB2FB8F
:101AC000F6F2521CB3E70120C2E701EB4101401ED0
:101AD000B0FBF1F0401CC0F30B00B7E7A08601009B
:101AE00080841E0000093D0040420F007047000046
:101AF0000649884208D10648018801EB810100EBC4
:101B0000C100001D04F044BD70470000CC900020CF
:101B1000A00E00200649884208D10648018801EB42
:101B2000810100EBC100001D04F032BD70470000D0
:101B3000CC900020A00E00202DE9F84F1F469046C3
:101B40008A460446DDF82890FFF782FD054694F8A2
:101B50003D00202875D1192301226C4920460095AB
:101B600002F046FA0028F5D194F83C00012868D02C
:101B7000012084F83C0020680168C90703D101688E
:101B800041F0010101602068016821F400610160F9
:101B9000222084F83D00102084F83E0000262664B0
:101BA000C4F824806785608D20855948E0622B4603
:101BB0004A465146204601F0BEFE002878D1208DCD
:101BC000544F68B1012814D002282068016816D04B
:101BD00041F480610160206841698069009087E07C
:101BE0002068416981690091016841F400710160D8
:101BF0007EE02068016821F480610160F0E721F453
:101C0000806101602068016841F40061E2E7032817
:101C100048D801280AD0022814D04B460022394661
:101C20002046009502F0E4F9D8BB27E02A46494651
:101C3000204602F05CFAA0BB20680069616A087067
:101C40004DE061E04B46002239462046009502F007
:101C5000CFF930BB2068016841F400710160206851
:101C60000069616A0870606A401C6062218D491ECB
:101C70002185618D491E618521682EE020680168FB
:101C800021F48061016020680069616A0870606AFF
:101C9000401C6062208D401E2085608D401E608546
:101CA000D0E705E02A464946204602F020FA10B166
:101CB0000120BDE8F88F20680069616A0870606AD9
:101CC000401C6062218D491E2185618D491E618500
:101CD00021684A69D24352070AD409690170606ACF
:101CE000401C6062208D401E2085608D401E6085F6
:101CF000208D00288BD1202084F83D0084F83E60A0
:101D000084F83C600020D4E70220D2E702001000F3
:101D10000000FFFF0400010078B50024009490F853
:101D20003D50202D55D12C4D46F2A8162D68B5FBFF
:101D3000F6F505EBC50606EB051500956D1E00953D
:101D400006D00568AD69ED43AD070DD4009DF5E7FC
:101D500040F8304F202141738473016941F0200124
:101D600001610473012078BD90F83C50012D30D002
:101D7000012580F83C5005682E68F60703D12E68CF
:101D800046F001062E6005682E6826F400662E6077
:101D9000222580F83D50102580F83E5004644262B0
:101DA0004385428D02850D4AC262416401680A681A
:101DB00042F480620A6001680A6842F480720A6034
:101DC00080F83C400068416841F4E06141600020D7
:101DD00078BD022078BD0000880000200000FFFFD1
:101DE0002DE9F84F1F4690468A460446DDF82890B4
:101DF000FFF72EFC054694F83D0020287FD11923DB
:101E0000012240492046009502F0F2F8002876D1E0
:101E100094F83C00012872D0012084F83C0020682E
:101E20000168C90703D1016841F001010160206820
:101E3000016821F400610160212084F83D00102038
:101E400084F83E0000262664C4F824806785608DEF
:101E500020852D48E0622B464A465146204601F037
:101E6000D5FD90B9206841698069009036E02A4626
:101E70004946204602F06EF950B1206C042804D186
:101E80002068016841F4007101600120BDE8F88F0D
:101E9000606A216800780861606A401C6062618D38
:101EA000491E6185218D491E89B2218522685369A9
:101EB000DB435B070BD451B100781061606A401CB2
:101EC0006062608D401E6085208D401E20852A4600
:101ED0004946204602F066F80028CED1208D002821
:101EE000C5D154F83D0B016841F400710160202018
:101EF00004F81E09E67766770020C7E7FFE70220AF
:101F0000C4E70000020010000000FFFF78B50024C5
:101F1000009490F83D50202D50D1294D46F2A8163E
:101F20002D68B5FBF6F505EBC50606EB0515009526
:101F30006D1E009506D00568AD69ED43AD070DD463
:101F4000009DF5E740F8304F20214173847301690B
:101F500041F0200101610473012078BD90F83C50EC
:101F6000012D2BD0012580F83C5005682E68F6071E
:101F700003D12E6846F001062E6005682E6826F40F
:101F800000662E60212580F83D50102580F83E50D7
:101F9000046442624385428D02850A4AC2624164FA
:101FA00001680A6842F480720A6080F83C40006868
:101FB000416841F4E0614160002078BD022078BDB5
:101FC000880000200000FFFF7047704710B586B002
:101FD000044614216846FEF73DF91B4920688842F3
:101FE00030D11A48016841F400110160006800F422
:101FF0000010059015481038016841F00201016099
:102000000068694600F002000590C0200090122090
:1020100001900120029003200390042004900C48BA
:10202000FFF738FA002211461F2000F07DF81F202C
:1020300000F06CF800221146202000F075F82020F6
:1020400000F064F806B010BD005400404038024073
:1020500000040240704770470248816802781144CA
:10206000816070477C0000200B4810B5016841F486
:1020700000710160016841F480610160016841F410
:1020800080710160032000F06FF8002000F006F876
:1020900000F024F8002010BD003C024070B50D4D4A
:1020A00004464FF47A712878B1FBF0F00A490968C8
:1020B000B1FBF0F000F0DCFF48B9102C07D2002291
:1020C0002146501E00F030F800206C6070BD0120E9
:1020D00070BD00007C000020880000200A4808B580
:1020E000016841F480410160006800F48040009084
:1020F0000548001F016841F080510160006800F050
:102100008050009008BD000044380240002809DBE0
:1021100000F01F02012191404009800000F1E02001
:10212000C0F8001170470000F0B40E4B1B680C465D
:10213000C3F30223C3F10705042D00D90425191D9B
:10214000072901D2002300E0DB1E012606FA05F173
:10215000491E214099409E40761E16403143F0BCF6
:1021600004F0C9B90CED00E0064900F00702086868
:102170004FF6FF03184040EA0220034A104308606C
:10218000704700000CED00E00000FA0570470068A1
:10219000416200207047F0B50368586A39B19C6A03
:1021A0004FF4827600EB144400204D1E0AE040EA12
:1021B000024098620FE006EB8007DF59401C04EBF9
:1021C0001744C0B2A842F6D344EA02404FF48072EA
:1021D00002EB810158500020F0BDD0F8040403F058
:1021E000C6B9C1EBC10200EB8202D0F80404926CC4
:1021F00003F019B9C1EBC10200EB8202D0F804046C
:10220000D2F8082203F072B9D0F8040403F0B1B98F
:1022100070B504460B0601F00F00C0EBC00104EBE3
:1022200081014FF001024FF0000503D581F83D20F8
:102230003C3103E081F8FD5101F5FE71087094F81E
:10224000BC03012808D084F8BC23206803F008FDF3
:1022500084F8BC53002070BD022070BD70B50446E8
:1022600001F00F006268904201D9012070BD0B0699
:1022700001F00F01C1EBC10104EB81014FF001023C
:102280004FF0000503D581F83D203C3103E081F893
:10229000FD5101F5FE718D70087094F8BC030128A2
:1022A00008D084F8BC23206803F0B6FE84F8BC5341
:1022B000002070BD022070BD01F00F01C1EBC10113
:1022C00000EB8100D0F8140270472DE9F04104467C
:1022D0000F0601F00F00C0EBC00104EB81014FF0CD
:1022E00001064FF0000503D581F83D603C3103E065
:1022F00081F8FD5101F5FE7108708A60CB704A7853
:1023000002B1C880022B00D10D7194F8BC030128E2
:1023100009D084F8BC63206803F0F2FB284684F8F7
:10232000BC53BDE8F0810220FBE770B50C4601F01C
:102330000F05C5EBC50100EB8101C1F81032C1F8F2
:1023400008220023C1F8143281F8FD3181F8FC51D4
:10235000036901F5FE71012B00D10A612207027C9D
:10236000006803D003F0B0FE002070BD03F09CFDB8
:10237000FAE770B504460D4601F00F006168884227
:1023800001D9012070BD29064FF000064FF001026F
:1023900007D5C0EBC00104EB810181F83D203C3141
:1023A00007E0C5EBC50104EB810181F8FD6101F592
:1023B000FE718A70087094F8BC03012807D084F875
:1023C000BC23206803F054FE280702D007E0022057
:1023D00070BD217C04F57172206803F0F1FD84F872
:1023E000BC63002070BD70B50C4601F00F05C5EB55
:1023F000C50100EB81010B658A6400234B65012355
:1024000081F83D3001F83C5F0369012B00D10A617E
:102410002207027C006803D003F056FE002070BD46
:1024200003F042FDFAE700002DE9FC5F0568044671
:10243000284603F072FF00287ED1206803F099FF40
:10244000002879D0206803F094FF800704D5206825
:10245000416901F002014161206803F08AFF010334
:1024600004F571704FF0010A4FF0080B009075D51C
:102470000026206803F05CFF0746DFF808946BE055
:10248000F80767D0F1B2206803F06BFF8046C00701
:1024900007D005EB4611C1F808AB3146204602F0E3
:1024A000A1F95FEA087032D52068016C00EB461094
:1024B0000191D0F8081B2269012A019A0FD0F24B32
:1024C0009A4214D1090403D54FF40041C0F8081B07
:1024D000204600F0C9FA206901280FD013E04A45D0
:1024E00005D9090403D54FF40041C0F8081B204664
:1024F00000F0BAFA01984845EDD804E020680121BF
:10250000009A03F05DFD05EB4611C1F808BB5FEAD8
:10251000C86004D505EB46111020C1F8080B5FEA2E
:1025200088600ED52069012804D120680121009A15
:1025300003F046FD202100E0A1E105EB4610C0F8C4
:10254000081B5FEA884005D505EB46104FF40051A3
:10255000C0F8081B7F08761C002F91D1206803F07B
:1025600008FF40034FF000095FD5206803F0D9FE53
:102570000746002657E0F80753D0F1B2206803F071
:10258000DEFE8046C00726D006F00F020AFA02F0EF
:10259000D5F834288243C5F8342805EB4610C0F836
:1025A00008A92069012807D1C6EBC60004EB80000A
:1025B000D0E9112111448164F1B22046FFF711FEE8
:1025C0002069012807D136B9206D20B92068012182
:1025D000009A03F0F5FC5FEA087003D505EB46119D
:1025E000C1F808B95FEAC86004D505EB46111020B0
:1025F000C1F808095FEA486004D505EB46104021A0
:10260000C0F808195FEA887004D505EB461002216E
:10261000C0F808195FEA086003D53146204602F089
:102620004FF97F08761C002FA5D1206803F0A1FE8A
:10263000002811DAD5F8040820F00100C5F80408D4
:1026400094F8F40301282BD0204600F0F1F920681B
:10265000416901F000414161206803F08AFE0005F4
:102660000BD5D5F80808C00702D0204600F024FAA0
:102670002068416901F400614161206803F079FE3E
:10268000C00461D5D5F8040820F00101C5F804188C
:102690001021206803F022FE00214FF67F321AE05D
:1026A00084F8F49300212046FFF770FDCFE700BFC8
:1026B00005EB4110C0F80829D0F8003923F40013C5
:1026C000C0F80039C0F8082BD0F8003B23F4001301
:1026D000C0F8003B491C60688842E9D8D5F81C085E
:1026E00040F00111C5F81C18206B002828460DD0B9
:1026F000D0F8840840F00B00C5F88408D5F84408E9
:1027000040F00B012846C5F844180DE0D0F8140835
:1027100042F22B010843C5F81408D5F8100840F020
:102720000B012846C5F81018D0F8000820F4FE6107
:10273000C5F80018217C2068009A03F041FC20684D
:10274000416901F480514161206803F012FE800468
:1027500015D5206803F014FA206803F0D1FDE0607D
:1027600000F05AFA0146227B206803F03DFE204625
:1027700000F048F92068416901F400514161206886
:1027800003F0F7FDC00634D52068816921F01001FF
:1027900081612F6A07F00F00C0EBC00004EB8006D8
:1027A000C7F3434006F5FE76022802D0062811D072
:1027B0001AE047F6F070074216D0C7F30A12174620
:1027C0002846F16803F0D9FDF0683844F060B0693C
:1027D000384408E008222846009903F0CEFDB0698D
:1027E000C7F30A110844B0612168886940F01000FD
:1027F0008861206803F0BDFD000707D5204600F082
:102800001BF92168486900F008004861206803F05E
:10281000B0FDC00208D50021204600F037F821683D
:10282000486900F480104861206803F0A2FD80022E
:1028300008D50021204600F02DF82168486900F4F1
:1028400000104861206803F094FD400007D5204641
:10285000FFF7C3FC2068416901F0804141612068B5
:1028600003F087FD40070AD520684568680702D550
:102870002046FFF7C9FC2068416829434160BDE854
:10288000FC9F00000A30544F0A31544FD0F8040422
:1028900002F0BEBED0F8040402F0BCBE2DE9F04147
:1028A0008AB0040005D094F8BD032668002520B145
:1028B00008E001200AB0BDE8F08184F8BC5320464E
:1028C00000F05EF8032084F8BD03F06BC00500D46F
:1028D0002561206803F0E2FA04F1100128228846FD
:1028E0006846FDF79EFC94E80F0003F063F90226AA
:1028F000C8BB0021206803F04EFD002001270EE038
:10290000C0EBC00104EB810181F83D7001F83C0F80
:10291000C880CD708D60CD60401CC0B24D616168D3
:102920008142EDD8002011E0C0EBC00104EB810131
:1029300081F8FD5181F8FC0181F8FF51C1F8045282
:10294000C1F80852401CC0B2C1F8105261688142FF
:10295000EAD8282241466846FDF763FC94E80F0058
:1029600003F0D6F910B184F8BD63A2E784F83850BB
:1029700084F8BD73206803F0BFF900209AE70000D7
:1029800010B586B0044614216846FDF763FC206844
:10299000B0F1A04F2FD119480021026842F0010286
:1029A0000260006800F0010005904FF4C0500090F4
:1029B0000220CDE90101032003900A20049069461A
:1029C0000F48FEF767FD0D48001D016841F08001CA
:1029D00001600A481430016841F4804101600068D8
:1029E000002200F48040059011464320FFF79CFB35
:1029F0004320FFF78BFB06B010BD000030380240CB
:102A00000000024070B50446C068012570B102287C
:102A100001D0FDF71AFF2946D4F8040402F04BFE5A
:102A2000D4F80404BDE8704002F00BBE0025F2E7C4
:102A3000D0F8040402F02DBED0F8040402F02FBE3A
:102A400010B5044690F8BC0301280BD0012084F88F
:102A5000BC0384F83810206803F0B4FC002084F82C
:102A6000BC0310BD022010BDD0F8042400F5717124
:102A7000104602F02CBE10B50446006894F8BC1352
:102A8000012906D0012184F8BC13A16A012902D0D2
:102A900008E0022010BDA169012903D0816B41F437
:102AA00080318163206803F01BF9206803F000FC8B
:102AB000002084F8BC0310BD10B50446D0F804040F
:102AC00002F044FE2068D0F8001E41F00101C0F879
:102AD000001E206A002804D00248016841F0060167
:102AE000016010BD10ED00E02DE9F0470E46050035
:102AF00065D0DFF81481D8F80000F7B200F00F00BD
:102B0000B04207D288F80070D8F8000000F00F003B
:102B1000B04254D128683D4C810712D5400703D5F7
:102B2000206840F4E05020602878000703D5206832
:102B300040F4604020602068A96820F0F00008435D
:102B400020602878C0072DD03049686808390128EE
:102B500012D0022813D0032811D009688907002950
:102B60002DDA216821F0030101432160FEF770FD99
:102B7000814641F2883A0EE009688903EFE7096867
:102B80008901ECE7FEF764FDA0EB0901514502D98C
:102B90000320BDE8F0872068696800F00C00B0EB06
:102BA000810FEFD1D8F80010404601F00F01B1427B
:102BB00007D90770006800F00F00B04201D0012073
:102BC000E7E72878400705D52068E96820F4E05059
:102BD000084320602878000706D52068296920F47A
:102BE000604040EAC100206000F03CF82168084ADB
:102BF000C1F30311515CC840064908600020FFF78B
:102C00004DFA0020C5E70000003C024008380240B1
:102C1000747F0008880000200148006870470000A9
:102C2000880000200448054900680968044AC1F387
:102C30008221515CC840704788000020083802405B
:102C4000847F00080448054900680968044AC1F304
:102C50004231515CC840704788000020083802406B
:102C6000847F0008154810B5006810F00C02144865
:102C700013D01449042A0FD0082A0ED10F4C241F58
:102C80002268236802F03F025B0207D52068C0F388
:102C90008810A0FB010106E0084610BD2168C1F3C1
:102CA0008811A1FB00010023FDF78AFA2168C1F316
:102CB0000141491C4900B0FBF1F010BD0838024049
:102CC0000024F40080969800F0B51F4C16460D467F
:102CD0001D4B002102220327283C0028186887B0DA
:102CE00019D040F004001860186800F00400059046
:102CF00010020090CDE90121CDE903716946134826
:102D0000FEF7C8FB206845EAC60120F0784008437A
:102D1000206007B0F0BD40F001001860186800F0B6
:102D2000010005904FF480700090CDE90121CDE9BC
:102D3000037169460648FEF7ADFB2068354320F075
:102D4000EC602843E4E7000030380240000802400D
:102D5000000002402DE9F84F050076D02878DFF812
:102D6000F8B2BE4CC00749D0DBF800105846C1F39A
:102D70008101012908D00068C0F3810002280AD12E
:102D8000201D0068400206D52068800336D568689B
:102D90000028E2D032E06868B0F5803F10D0B0F58E
:102DA000A02F206810D020F480302060206820F40C
:102DB000802020606868A0B1FEF74AFC06460CE05F
:102DC000206840F48030F4E740F480202060F7E78A
:102DD000FEF73EFC801B642873D820688003F7D57B
:102DE0000CE0FEF735FC064605E000BFFEF730FCC0
:102DF000801B6428F0D820688003F7D42878DFF897
:102E0000608280074FF000093ED5DBF8001058467D
:102E100011F00C0F09D00068C0F3810002280BD11B
:102E20008D48001F0068400206D42068800715D531
:102E3000E868012809D111E0E868B8B10120C8F8B4
:102E40000000FEF705FC064605E002E1FEF700FC87
:102E5000801B0228C0D820688007F7D52068296920
:102E600020F0F80040EAC10020600DE0C8F80090B2
:102E7000FEF7EEFB064604E0FEF7EAFB801B0228A5
:102E80001FD820688007F7D42878000722D5724E13
:102E9000744869696C3671B101210160FEF7D8FB95
:102EA000074604E0FEF7D4FBC01B022809D83068AF
:102EB0008007F7D50EE0C0F80090FEF7C9FB074683
:102EC00005E083E0FEF7C4FBC01B02287ED8306813
:102ED0008007F7D42878400768D5DFF87CA1002761
:102EE0000AF1380ADAF80000C0000BD4DAF8001052
:102EF00041F08051CAF80010DAF80000012700F014
:102F000080500090584E3068C00510D4306840F4AE
:102F100080703060FEF79CFB009005E0FEF798FBA8
:102F20000099401A022851D83068C005F6D54A4E9B
:102F3000A868683601280FD00528306810D020F026
:102F400001003060306820F004003060A868B8B13B
:102F5000FEF77EFB00900FE0306840F00100F4E7E0
:102F600040F004003060F7E7FEF772FB0099411A69
:102F700041F28830814264D830688007F4D50EE091
:102F8000FEF766FB009007E0FEF762FB0099411A2E
:102F900041F28830814254D830688007F4D42FB190
:102FA000DAF8001021F08051CAF80010A869C0B307
:102FB000DBF80010C1F3810102294AD002284846FB
:102FC00007D0C8F86000FEF743FB00E039E0054693
:102FD0003AE04746C8F86000FEF73AFB064604E0D0
:102FE000FEF736FB801B02282BD820688001F7D41F
:102FF000D5E907010843A96A1C4A490802EB0141C7
:103000006A6A41EA8211084395F82C1040EA01618E
:103010001148001F016001203866FEF719FB0546C4
:1030200005E014E0FEF714FB401B022809D82068D5
:103030008001F7D50BE000BFFEF70AFB401B02281A
:1030400002D90320BDE8F88F20688001F4D4002065
:10305000F8E70120F6E70000083802400038024097
:1030600000004742800E4742007000400000FFFF12
:1030700010B5401EB0F1807F01D3012010BD4FF08C
:10308000E02460610F21601703F035FA0020A06191
:1030900007202061002010BD7047704770B590F880
:1030A0003C20012A19D0012400F83C4F0222427032
:1030B00050F83C3C5A689D6822F070060A684968DE
:1030C000324325F0800529435A6050F83C2C91602A
:1030D000447000210170084670BD022070BD10B51B
:1030E000040003D094F83D0010B107E0012010BDAA
:1030F000002084F83C00204600F00CF8022084F800
:103100003D00211D206801F0A9FC012084F83D004C
:10311000002010BD08B501682248814208D122482C
:10312000016841F001010160006800F001000BE05E
:103130001D481E4A001F914208D1016841F002015A
:103140000160006800F00200009008BD184A91423A
:1031500011D1016841F0040101600068002200F013
:103160000400009011461E20FEF7DEFFBDE8084077
:103170001E20FEF7CBBF0F4A914207D1016841F0F4
:1031800008010160006800F00800DDE70A4A91428A
:10319000DBD1016841F010010160006800F010000F
:1031A000D2E7000000000140443802400004004023
:1031B00000080040000C004000100040022180F890
:1031C0003D1001688A6802F00702062A03D00A68E7
:1031D00042F001020A60012180F83D100020704792
:1031E0000168CA6842F00102CA600068816801F0A3
:1031F0000701062903D0016841F0010101600020A8
:1032000070470168CA6822F00102CA600068016A5A
:1032100041F21112114207D1016A9210114203D1F9
:10322000016821F0010101600020704770B504467B
:1032300090F83C00012817D0012584F83C5002206A
:1032400084F83D002068826822F0770222F47F42F1
:1032500082600868502830D00DDC20284DD005DC75
:1032600098B310283BD148E0022070BD302844D0EC
:10327000402834D139E0602828D0702806D0B0F535
:10328000805F2CD0B0F5005F29D10AE0CB68D1E98E
:103290000121206801F046FC2068816841F0770137
:1032A00009E0CB68D1E90121206801F03BFC2068EE
:1032B000816841F48041816011E0CA6849682068F2
:1032C00001F042FC5021206807E016E0CA68496816
:1032D000206801F04AFC6021206801F02DFC84F890
:1032E0003D50002084F83C0070BDCA6849682068E1
:1032F00001F02AFC40212068EFE7226801461046D1
:10330000EBE7704770B50446006801694FF00005AF
:10331000C943890715D4C168C943890711D4E91E77
:10332000016101202077206880698007204602D053
:10333000FFF7E7FF04E000F098F8204600F096F869
:10334000257720680169C943490717D4C168C94373
:10335000490713D46FF0040101610220207720682F
:10336000806910F4407F204602D0FFF7CAFF04E0D6
:1033700000F07BF8204600F079F825772068016995
:10338000C943090716D4C168C943090712D46FF0AD
:1033900008010161042020772068C0698007204669
:1033A00002D0FFF7AEFF04E000F05FF8204600F027
:1033B0005DF8257720680169C943C90617D4C1683B
:1033C000C943C90613D46FF01001016108202077AA
:1033D0002068C06910F4407F204602D0FFF791FFBB
:1033E00004E000F042F8204600F040F8257720681D
:1033F0000169C943C90708D1C168C943C90704D1D4
:10340000891E0161204600F032F820680169C94335
:10341000090609D4C168C943090605D46FF08001C3
:1034200001612046FFF738FE20680169C94349065B
:1034300009D4C168C943490605D46FF04001016150
:10344000204600F015F820680169C94389060BD4AD
:10345000C168C943890607D46FF020010161204685
:10346000BDE87040FFF719BE70BD704770477047E8
:10347000704770B5040004D094F83900002510B1ED
:1034800006E0012070BD84F83850204600F022F894
:10349000242084F839002068C16821F40051C160FB
:1034A000204601F075FB2068016921F4904101611B
:1034B0002068416921F02A0141612068C16841F416
:1034C0000051C160E563202084F8390084F83A0097
:1034D000002070BD2DE9F04186B0044614216846F5
:1034E000FCF7B8FE2649254B2268254810390224EE
:1034F000012503260727DFF88C809A4211D1026844
:1035000042F400320260006800F400300590086860
:1035100040F008000860086800F00800059060208E
:1035200023E0194B9A4226D1026842F480220260BD
:10353000006800F480200590086840F002000860F0
:10354000086800F002000590086840F00800086074
:103550000868694600F008000590D8148DE8F1006D
:103560000A48FDF797FF4FF480708DE8F100694637
:103570004046FDF78FFF06B0BDE8F08100440040F3
:1035800040380240000C0240004800400004024065
:10359000FEE7000030B585B04FF480540120CDE93E
:1035A00000400220084D0290039069462846FDF72E
:1035B00071FF002221462846FEF744F84FF47A7046
:1035C000FDF756FF05B030BD000002400148FEF790
:1035D00047B80000CC9000200148FEF79EB80000DC
:1035E000CC90002010B5806B90F83D30426B0021EC
:1035F000D163826BD1630268146824F48064146020
:103600004185426B1165826B11650268146824F074
:103610000104146090F83D202024602A0BD0282259
:1036200032EA03030FD080F83D4080F83E1000BF1F
:10363000FEF7A0F910BD80F83D4080F83E1001640F
:10364000FEF70CF810BD03681C6844F001041C6010
:1036500003681C6844F480641C60016380F83D20AA
:10366000E6E7000070B5044690F83D0094F83E107F
:10367000102906D1222804D121680A6822F40062A8
:103680000A60282131EA00024FF000054FF02006C1
:1036900026D021684968090503D4602801D084F840
:1036A0003D60256384F83E5020684168090537D5A0
:1036B000416821F400614160606B90F83520374922
:1036C000012A11D00165606BFDF747FD38B3206812
:1036D000016821F00101016084F83D60606B1CE02D
:1036E000256384F83D10DFE7A06B0165A06BFDF753
:1036F00034FDA0B120684169C943490605D4006979
:10370000616A0870606A401C60622068016821F08C
:103710000101016084F83D60A06B016D884710E0F5
:1037200094F83D10602923D04169C943490605D466
:103730000069616A0870606A401C60622046FEF79A
:1037400019F994F83D00216C490710D528280ED1AD
:103750002068416821F4E06141601148E06225631E
:1037600084F83D6084F83E502046FEF7BFF970BDF6
:1037700084F83D6025644169C943490605D4006960
:10378000616A0870606A401C60622068016821F00C
:10379000010101602046FDF761FFD2E7E535000831
:1037A0000000FFFF01684A69D24352050FD46FF44D
:1037B00080624A61002140F8301F202242738173E9
:1037C000026942F004020261017301207047002087
:1037D000704710B5C26A438D0168042B06D0438D33
:1037E000032B08D0438D022B1DD012E04A6822F42F
:1037F00080624A600CE04B6823F480634B60042ACB
:1038000006D0022A04D001680A6822F480620A60A5
:1038100001680969426A1170416A491C4162418D1F
:10382000491E418510BD012A30D0102A2ED0042A0D
:1038300030D0022A2ED00A6842F400720A60016871
:103840000969426A1170416A491C4162428D521EE7
:103850004285026812690A70416A491C4162418DC1
:10386000491E418501684A6822F440724A6020215D
:1038700080F83D1090F83E200021402A80F83E104C
:103880000CD012210163FEF733F910BD0A6822F44F
:103890008062D3E70A6842F48062CFE70163FEF7F3
:1038A00093FB10BD10B590F83D10222914D1418D25
:1038B000032912D901680969426A1170416A491CD9
:1038C0004162418D491E4185418D032904D1006823
:1038D000416821F48061416010BDC26A022AFBD0B8
:1038E000012901D00029F7D101680A6822F4806219
:1038F0000A6001684A6822F4E0624A600168096966
:10390000426A1170416A491C4162418D491E4185DC
:10391000202180F83D1090F83E200021402A80F8B8
:103920003E1004D012210163FEF7E2F810BD0163DE
:10393000FEF74AFB10BD2DE9F84F0446C06A1E464B
:1039400092460D4621680A6842F480620A6008289F
:1039500007D0012805D010F5803F02D0206B112838
:1039600004D12068016841F4807101604FF00118B2
:103970005346002241462046009600F039FBF0BB3A
:10398000206908F10109B0F5804F0FD006202168A9
:1039900000EAD51747F0F00008613346524608F1B7
:1039A0000701204600F058FB48BB03E0E8B240F0B6
:1039B00001001BE02168E8B20861334652464946DF
:1039C000204600F049FBD0B9206841698169009127
:1039D000016841F48071016053460022414620464F
:1039E000009600F005FB50B947F0F100216808612E
:1039F000334652464946204600F02EFB00E001E0E7
:103A0000002800D00120BDE8F88F0000F8B504467A
:103A1000C06A1E460D461746082807D0012805D063
:103A200010F5803F02D0206B122804D12068016875
:103A300041F480710160134600224FF001112046CD
:103A4000009600F0D5FA08BB2069B0F5804F0ED083
:103A50000620216800EAD51040F0F00008613346E6
:103A60003A460B49204600F0F7FA78B902E005F033
:103A7000FE0000E0E8B221680861054933463A4695
:103A8000891F204600F0E8FA002800D00120F8BD88
:103A90000800010010B5C26A90F83D1021290BD131
:103AA000418D51B1416A026809781161416A491C2E
:103AB0004162418D491E418510BD20230021082A05
:103AC00013D0202A11D012F5803F0ED0026854681E
:103AD00024F4E06454601122026380F83E1080F800
:103AE0003D3000BFFEF716F810BD0268546824F49C
:103AF000E06454600268146844F400741460016364
:103B000080F83D3090F83E2080F83E10402AE9D100
:103B1000FEF75BFA10BD000010B590F83D1090F86C
:103B20003E30C26A048D64B1212903D0402B21D1DB
:103B300022291FD1418DA1B390F83E10402937D0E2
:103B400046E02129F2D120230021082A13D0202A7F
:103B500011D012F5803F0ED00268546824F4E0645E
:103B600054601122026380F83E1080F83D3000BF9F
:103B7000FDF7D0FF10BD0268546824F4E06454607F
:103B80000268146844F400741460016380F83D30E6
:103B900090F83E2080F83E10402AE9D1FEF715FA51
:103BA00010BDFFE70068416821F480614160F7E7DC
:103BB000016DC1B1016D012922D0016D0229EFD142
:103BC00090F83D10222923D090F83D102129E7D10B
:103BD000416A026809781161416A491C4162418D5C
:103BE000491E4185DCE7C16C0129816C02D0C1F31B
:103BF000072107E00268C9B21161016D891C05E067
:103C0000816CC9B202681161016D491C0165C7E789
:103C10000068016841F480710160C1E778B590F8EF
:103C20003E50C26A036B90F83D6000240168222E6A
:103C30007AD1066D0EB9402D76D0056D1DB9056996
:103C4000B5F5404F09D0458D05B3468D384D012E51
:103C50000ED0438D022B3AD05DE04A698A6900920A
:103C60000A6842F480720A60016D491C016578BDE2
:103C7000AA4213D10A6822F480620A6001684A6885
:103C8000120503D50A6822F4806216E04A698A693F
:103C900000920A6842F400720A6039E0082A10D0E3
:103CA000202A0ED0122B0AD0042A03D0022A01D0D7
:103CB000102AE7D10A6842F480620A6024E0012AEF
:103CC000E0D00A6822F480620A600168DEE7042A14
:103CD00021D0022A1FD0102A1DD00B6823F4806344
:103CE0000B6001680B6843F400630B6001684B686C
:103CF0001B0509D5AA4212D0012A10D0082A0ED0DD
:103D0000102A0CD0202A0AD001684A6989690091DA
:103D1000046578BD08E00B6843F48063E5E74A6812
:103D200042F480524A60EFE7486988690090F0E702
:103D30000000FFFF90F83E10402910D00169B1F556
:103D4000804F19D0016DB1B3016D012910D1416CC3
:103D50005FF0F10201F4407142EAD11106E0016D19
:103D60000029416C05D0C9B241F001010068016130
:103D7000704701F0FE01F9E790F83D102129416CF0
:103D800007D0C9B241F0010102681161416B31B93C
:103D900002E001F0FE01F7E7826B002AE8D0C96B70
:103DA00019B9816BC96B0029E2D00068416841F400
:103DB000006141607047FFE7416CF02201F44071FF
:103DC000CAE700002DE9F04190F83D40C26A0023A7
:103DD00020261C4F01686FF48065082A01D0202A34
:103DE00001D1282C04D0212C16D04D61BDE8F081E2
:103DF000C7624A6822F4E0624A6001684D61016866
:103E00000A6822F480620A60036380F83D6080F8EB
:103E10003E30FDF76BFEE9E7C7622122026380F8BE
:103E20003D6080F83E304A6822F4E0624A600168F2
:103E30004D6101680A6822F480620A60FEF70BF99E
:103E4000D4E700000000FFFFF8B590F83D6004469D
:103E50000068416821F4E061416020680025416903
:103E60000091016841F0010101602068016821F4BE
:103E70008061016020684168090520D5474F222EE6
:103E800048D02A2E46D0616B096849686185618DEA
:103E900019B1216C41F004012164416821F40061F1
:103EA0004160606BFDF76BF9012808D0606B076516
:103EB000606BFDF752F910B1606B016D8847608D42
:103EC00008B320684169C943490708D40069616A99
:103ED0000870606A401C6062608D401E60852068CA
:103EE0004169C943490608D40069616A0870606A7B
:103EF000401C6062608D401E6085608D18B1206C32
:103F000040F004002064206C00B32046BDE8F84077
:103F1000FFF7A8BBA16B096849686185618D19B17C
:103F2000216C41F004012164416821F40061416089
:103F3000A06BFDF724F90128C1D0A06B0765A06B29
:103F4000FDF70BF90028BAD0A06BB6E72A2E06D1F0
:103F50002563282084F83D002046FEF77BF894F87E
:103F60003D10202028290DD0216B222901D0222E9E
:103F700007D1256384F83D0084F83E502046FEF7C3
:103F800069F8F8BD0649E162256384F83D0084F8CC
:103F90003E502046FDF7AAFDF8BD0000E5350008BB
:103FA0000000FFFF70B516460D4604460DE02046A2
:103FB000FFF7F8FB08B1012070BD681C05D0FDF7C4
:103FC00047FB801BA84207D835B120684069C04331
:103FD0004007ECD4002070BD002044F8300F2021B1
:103FE0006173A073216941F0200121612073E2E730
:103FF0002DE9F0471E4690460D460446C1F307479B
:10400000DDF8209008E0701C06D0FDF721FBA0EB46
:104010000900B0420FD876B12068012F18D080690E
:1040200025EA00000004000C14D000214145EAD02C
:104030000020BDE8F087002044F8300F2021617394
:10404000A073216941F02001216120730120F0E774
:104050004069E5E70121E9E72DE9F0479A469146F5
:104060000E46044600254FF02008C1F3074725E01F
:1040700020684069C043400514D42068016841F4B9
:104080000071016021686FF480604861256384F8E5
:104090003D8084F83E50206C40F00400206484F899
:1040A0003C501FE0B9F1FF3F08D0FDF7D1FAA0EB7B
:1040B0000A0149450CD8B9F1000F09D02068012F39
:1040C00013D0806926EA00000004000C0BD0CFE773
:1040D00044F8305F84F80D80A573206940F020001B
:1040E000206125730120BDE8F0874069EAE72DE9EA
:1040F000F041002590460E460446202717E040690F
:10410000C043C0060CD454F8301B6FF01000486157
:1041100044F810596777A577206A2062257717E061
:10412000FDF796FAA0EB0800B04208D83EB120682F
:104130004169C9434906E2D40020BDE8F08144F852
:10414000305F6773A573206940F0200020612573FC
:104150000120F2E770B516460D4604460DE02046F4
:10416000FFF720FB08B1012070BD681C05D0FDF7EA
:104170006FFA801BA84207D835B120684069C04358
:104180000006ECD4002070BD002044F8300F202140
:104190006173A073216941F0200121612073E2E77E
:1041A000F0B500230A24302537261F4611E000BF52
:1041B000B4EB107F02D905EB107C01E006EB107C1C
:1041C00001F813C001EB430C00015B1C8CF801707B
:1041D000DBB29342ECD3F0BD70B5094DFF2213461C
:1041E00005F5807606E000BF10F8014B54402A5DCB
:1041F0005A40335D491EC9B2F6D242EA032070BD6F
:10420000A10100207FB50025384800950195029551
:1042100035490395016001244FF480310461C0E900
:104220000115047680F820503149C0E90A150826A6
:10423000C661C56080F830404461FCF7B0FB08B14E
:10424000FCF703FBCDE90054032569462748029596
:10425000FCF7FCFA08B1FCF7F8FA0094022469466E
:1042600022480194FCF7F2FA08B1FCF7EEFA69462D
:104270001E48CDE90045FCF7E9FA08B1FCF7E5FA7C
:104280000424CDE9005469461848FCF7DFFA08B168
:10429000FCF7DBFA00940524694614480194FCF706
:1042A000D5FA08B1FCF7D1FA0094062469460F4804
:1042B0000194FCF7CBFA08B1FCF7C7FA0094072485
:1042C00069460A480194FCF7C1FA08B1FCF7BDFA47
:1042D000CDE9004669460548FCF7B8FA002801D048
:1042E000FCF7B3FA7FBD000000220140008F0020E0
:1042F0000100000F0D4810B50B490160102141600D
:1043000000218160C1600161416101764176817661
:10431000C17601774177FCF795FC002803D0BDE812
:104320001040FCF792BA10BD00640040A88F002036
:104330000D4810B50B4901601021416000218160DA
:10434000C16001614161017641768176C176017774
:104350004177FCF777FC002803D0BDE81040FCF75C
:1043600074BA10BD00680040D08F00201CB5002436
:10437000104900940E48019408600846FCF785FD3A
:1043800008B1FCF762FA0420CDE900040022694676
:104390000848FCF756FD08B1FCF757FA10226946A9
:1043A0000448FCF74EFD002801D0FCF74EFA1CBD76
:1043B00000740040F88F0020154808B5016841F4EA
:1043C00080010160016801F480010091016841F4FD
:1043D000001101600068002200F4001000901146F6
:1043E0001020FDF7A1FE1020FDF790FE00221146DF
:1043F0001120FDF799FE1120FDF788FE00221146DD
:104400003820FDF791FEBDE808403820FDF77EBE5C
:104410003038024070B586B014216846FBF71AFFA9
:104420002D480024016841F020010160016801F07D
:1044300020010591016841F080010160016801F0EF
:1044400080010591016841F001010160016801F0FE
:1044500001010591016841F002010160016801F06C
:1044600002010591016841F008010160016801F055
:1044700008010591016841F0100101600068174EC4
:1044800000F010000590002218213046FDF7DAF800
:104490004FF440400225CDE900050320CDE902405C
:1044A0000520049069460E48FCF7F4FFE8010090EF
:1044B000CDE90154039469460A480494FCF7EAFFE5
:1044C000182000900120CDE901046946304603948C
:1044D000FCF7E0FF06B070BD30380240000C02402F
:1044E00000040240000002400D4810B50B49016075
:1044F0000C49416000214FF480428160C0E9031201
:1045000041618161C1610162FDF736FA002803D083
:10451000BDE81040FCF799B910BD00000054004000
:10452000CC900020801A060010B586B000241748F1
:104530000094019402940394049413490594016037
:104540005421C0E901144FF6FE71C0E9031444611F
:104550008461FEF7C4FD08B1FCF777F94FF4805091
:10456000009069460948FEF761FE08B1FCF76DF955
:10457000049404A905480594FEF790FD002801D095
:10458000FCF763F906B010BD000001402091002047
:1045900010B586B000241848009401940294039446
:1045A000049414490594016041F61F41C0E90114C7
:1045B0000921C0E9031480218161FEF790FD08B153
:1045C000FCF743F94FF48050009069460A48FEF723
:1045D0002DFE08B1FCF739F92020CDE9040404A927
:1045E0000548FEF75BFD002801D0FCF72EF906B068
:1045F00010BD0000000400406091002010B586B09E
:1046000000241648009401940294039404941249DF
:10461000059401604721C0E901143121C0E9031468
:104620008461FEF75CFD08B1FCF70FF94FF4805090
:10463000009069460948FEF7F9FD08B1FCF705F955
:10464000049404A905480594FEF728FD002801D02C
:10465000FCF7FBF806B010BD00080040A091002058
:1046600010B586B000241748009401940294039476
:1046700004941349059401605321C0E9011441F2E7
:104680007071C0E903148461FEF729FD08B1FCF7DD
:10469000DCF84FF48050009069460A48FEF7C6FDEA
:1046A00008B1FCF7D2F8049404A906480594FEF773
:1046B000F5FC002801D0FCF7C8F806B010BD0000DA
:1046C000000C0040E09100201CB500240F4800942D
:1046D0000D49019401600921C0E901140121C16063
:1046E00080218161FEF7FBFC08B1FCF7AEF82020C9
:1046F000CDE9000469460548FEF7D0FC002801D04A
:10470000FCF7A3F81CBD0000001000402092002020
:104710000C4810B50A4901604FF4E13141600021B5
:1047200081600C22C160C0E904128161C161FEF7A1
:10473000A0FE002803D0BDE81040FCF786B810BDED
:1047400000440040609200200C4810B50A49016006
:104750004FF4E1314160002181600C22C160C0E969
:1047600004128161C161FEF784FE002803D0BDE818
:104770001040FCF76AB810BD00480040A09200202D
:1047800010B500220F49104800F026FE08B1FCF7D2
:104790005CF80E490C4800F0FFFF08B1FCF755F833
:1047A0000B49094800F030FC08B1FCF74EF8064808
:1047B00001F048F8002803D0BDE81040FCF745B8E8
:1047C00010BD00001C000020E092002068010020C5
:1047D0006C000020FEE770470148FDF725BE000091
:1047E0007C9500202DE9F041044600680E46016CDE
:1047F00000EB4615D5F8080B276920234FF400423B
:10480000012F08D02C4FB9424FD1010449D500BF28
:10481000C5F8082B4DE0DFF8A4C05FEA007E04F580
:10482000717711D5614503D9000401D5C5F8082B6E
:104830002046FEF719F93A460121206801F0C0FB35
:104840000820C5F8080B34E05FEA806E02D5C5F891
:10485000083B2EE010F0280F2BD1614501D9000450
:10486000D6D4C6EBC60004EB8000D5F8102BD0F8E8
:104870000412C2F312028A1AC0F81422D0F80822D5
:104880001144C0F80812F1B22046FDF7B3FC86B916
:10489000D4F8100268B93A460121206801F090FB73
:1048A00007E0800601D5C5F8083BF1B22046FDF7C8
:1048B000A1FC0020BDE8F0810A31544F0A30544F6A
:1048C0002DE9F84F0E46C1EBC60100EB810481468D
:1048D0000568D4E914103C34884202D90120BDE8AF
:1048E000F88F081AA168814200D20846C01C8708C8
:1048F00005EB46181BE000BFA0EB010AA06850457D
:1049000000D282460AF10300870899F8100000904F
:104910001FFA8AF3F2B22846E16801F0D9FDE16896
:1049200001EB0A00E060A16901EB0A00A061D8F880
:10493000180980B2B84205D3D4E90501814201D2F9
:104940000028D9D1D4E90501884208D806F00F0122
:1049500001208840D5F834188143C5F83418002068
:10496000BDE770477047FDF777BB000070B592B0A8
:1049700030216846FBF76EFC14210CA8FBF76AFC9B
:104980001C480025016841F080510160006800F07A
:10499000805011901848016841F48041016000681E
:1049A000022400F48040119001200090000406943D
:1049B000860101900520CDE90760A820CDE9090412
:1049C00007200B906846FEF7C5F90CA90F2081E877
:1049D00031004FF4A0500F90E002109005210CA878
:1049E000FEF782F8002231461046FEF76DF912B04C
:1049F00070BD00004038024000700040104801685F
:104A000041F4700101600F48016841F0010101604B
:104A10000C4A00210832116002680B4B1A400260F8
:104A2000031D0A4A1A60026822F4802202600548C7
:104A30000C30016002495806803908607047000058
:104A400088ED00E000380240FFFFF6FE1030002441
:104A50000148FEF757BC0000A0910020F0B50268A5
:104A6000254C264D264E274F274B4FF0804CA04219
:104A700009D0604507D0A84205D0B04203D0B84263
:104A800001D0984204D122F0700E4A6842EA0E0228
:104A9000A0421BD0604519D0A84217D0B04215D013
:104AA000B84213D0984211D0184DA8420ED0184DDC
:104AB000A8420BD0174DA84208D0174DA84205D0E8
:104AC000164DA84202D0164DA84203D122F44075DB
:104AD000CA682A434D6922F080022A4302608A682C
:104AE000C2620A688262A04201D0984201D109697B
:104AF000016301214161F0BD00000140000400405C
:104B000000080040000C004000040140004001404B
:104B1000004401400048014000180040001C0040D3
:104B20000020004010B5846842EA032224F47F4448
:104B30000A432243826010BD826822F070020A4359
:104B400042F007018160704710B5036A046A24F0DF
:104B500001040462846924F0F00444EA021423F09E
:104B60000A020A438461026210BD10B5036A23F091
:104B7000100303628369046A23F4704343EA023238
:104B800024F0A00343EA01118261016210BD00001C
:104B90002DE9F041044600680169E26821F44051C2
:104BA000114301612169A068E26908436169114309
:104BB00022680843D16849F20C6399430143D160EC
:104BC00020684169A26921F4407111434161E269A1
:104BD0006425B2F5004F9748974922684FF0320894
:104BE0003FD08A4201D082427CD1FEF72BF800EB05
:104BF000C00101EB001061688900B0FBF1F6FEF71F
:104C000021F800EBC00101EB001061688900B0FBE6
:104C1000F1F0B0FBF5F06FF01801484306EB8001AE
:104C200008EB0110B0FBF5F000F0F006FEF70AF813
:104C300000EBC00101EB001061688900B0FBF1F0EE
:104C4000B0FBF5F006EB0016FDF7FCFF00EBC00132
:104C500001EB001061688900B0FBF1F7FDF7F2FF8E
:104C6000D2E08A4201D082423DD1FDF7EBFF00EB5A
:104C7000C00101EB001061684900B0FBF1F0B0FB2E
:104C8000F5F00601FDF7DEFF00EBC00101EB0010BF
:104C900061684900B0FBF1F7FDF7D4FF00EBC001FC
:104CA00001EB001061684900B0FBF1F0B0FBF5F0DA
:104CB0006FF01801484307EB800108EBC100B0FB1F
:104CC000F5F000F0F80006EB4006FDF7BBFF00EB47
:104CD000C00101EB001061684900B0FBF1F7FDF77E
:104CE000B1FF3CE055E0FDF79DFF00EBC00101EB9B
:104CF000001061684900B0FBF1F0B0FBF5F006016F
:104D0000FDF790FF00EBC00101EB00106168490066
:104D1000B0FBF1F7FDF786FF00EBC00101EB0010DF
:104D200061684900B0FBF1F0B0FBF5F06FF01801DD
:104D3000484307EB800108EBC100B0FBF5F000F041
:104D4000F80006EB4006FDF76DFF00EBC00101EB3C
:104D5000001061684900B0FBF1F7FDF763FF00EB5D
:104D6000C00101EB001061684900B0FBF1F0B0FB3D
:104D7000F5F06FF01801484307EB800108EBC10024
:104D8000B0FBF5F000F00700216830448860BDE812
:104D9000F081FDF747FF00EBC00101EB00106168F7
:104DA0008900B0FBF1F6FDF73DFF00EBC00101EB20
:104DB000001061688900B0FBF1F0B0FBF5F06FF016
:104DC0001801484306EB800108EB0110B0FBF5F039
:104DD00000F0F006FDF726FF00EBC00101EB00102C
:104DE00061688900B0FBF1F0B0FBF5F006EB00164E
:104DF000FDF718FF00EBC00101EB001061688900AE
:104E0000B0FBF1F7FDF70EFF00EBC00101EB001066
:104E100061688900B0FBF1F0B0FBF5F06FF01801AC
:104E2000484307EB800108EB0110B0FBF5F000F000
:104E30000F00A9E700140140001001402DE9F041E6
:104E4000D0F89832D0F89022DAB101EB810400EB6F
:104E500084040025E6694EB1C1EBC10703EB87036B
:104E60005B6CB6FBF3F703FB176323B1C2F8145274
:104E70000020BDE8F08100231A46E56100F06FFCD8
:104E8000F6E70220F5E770B50546D0F8904200F04D
:104E90007BFBC4F80C02D5F8900248B1D5F8941207
:104EA000D4F80402CA6804F503719047002070BD6D
:104EB000022070BD70B504460026812100F0AAFAD8
:104EC000002501212046E56200F0A4FA8221204657
:104ED000C4F8585100F09EFA2564D4F8900248B105
:104EE000D4F8940204F5247440688047206801F0E7
:104EF00027FB2560304670BD10B5D0E9A44159B1FB
:104F000094F80002FF2807D08B6894F8012221460C
:104F10009847FF2084F80002002010BD0A2101807C
:104F200000487047900000204321018000487047EE
:104F3000E000002043210180004870479C000020D1
:104F40004321018000487047240100202DE9F041F1
:104F500004460026007C4FF40077012590B34023DF
:104F600002228121204600F057FB4023E562022205
:104F70000121204600F050FB082303228221204615
:104F8000C4F8585100F048FB4FF40770256401F055
:104F900097FDC4F89002F8B10546D4F89402006871
:104FA00080470020C5F81402C5F81802207CD5F807
:104FB000042298B140230121204600F039FB3046FD
:104FC000BDE8F081FFE73B4602228121204600F048
:104FD00023FB3B46E562CAE70126F0E73B46EAE7EA
:104FE00010B5D0F8901269B1027C002AD1F80422E1
:104FF00005D04023012100F01BFB002010BD4FF421
:105000000073F7E7022010BD02460220002902D0FB
:105010000020C2F894127047D0F89002C0F8041231
:1050200000207047D0F89002C0F81022C0F8081293
:10503000002070472DE9FC410546D0F89072002011
:105040008DF80000ADF80400064608780C4610F014
:10505000600121D020293BD1E288AAB10006607806
:1050600007D5D5F894128B6839469847E2883946B7
:1050700026E087F80002A07987F80102E288394625
:10508000284600F06AF828E0D5F8941260780022EB
:105090008B682146984720E0607820B10A2809D023
:1050A0000B2815D110E095F87402032810D10222C4
:1050B00001A905E095F87402032809D10122694687
:1050C000284600F064F808E095F87402032804D03C
:1050D0002146284600F036F802263046BDE8FC811D
:1050E00010B5D0F89012A1B1D1F814220AB1012064
:1050F00010BD0122C1F81422D1F810220263B1F8C8
:10510000102293B2D1F80822812100F028FB002060
:1051100010BD022010BD10B5D0F88C225268904707
:10512000002010BD134610B50A46002100F080FA99
:10513000002010BD134610B50A46002100F00FFBF9
:10514000002010BD10B50446802100F0EDFA204685
:10515000BDE81040002100F0E7BA10B50323C0F805
:105160004821C0F86C32C0F84C2113460A46002191
:1051700000F05EFA002010BD10B505210023C0F834
:105180006C121A46194600F053FA002010BD10B5F3
:105190000223C261C0F86C32026213460A46002143
:1051A00000F0DDFA002010BD10B504210023C0F886
:1051B0006C121A46194600F0D2FA002010BD000009
:1051C00010B50A46024903A000F0D6F8004810BD09
:1051D0008499002043444320436F6E666967000052
:1051E00012200880004870473C00002010B50A4695
:1051F000024903A000F0C0F8004810BD84990020C7
:1052000043444320496E7465726661636500000023
:1052100004200880004870473800002010B50A4676
:10522000024903A000F0A8F8004810BD84990020AE
:105230004F41495F4E53550010B50A46024903A03D
:1052400000F09AF8004810BD849900204B50415F4F
:105250004D6F64756C65000010B51A2008800A480F
:105260000168001D0468001D0068081809D00822A4
:105270000649FEF795FF0549042210312046FEF746
:105280008FFF0248801E10BD107AFF1F52000020C1
:10529000F8B5044648880D46010A08294BD2DFE8D4
:1052A00001F04A0409174A4A4048D4F88812207C81
:1052B0000A6832E0207C02260028D4F88C0205D04F
:1052C000C16A684688470146467041E0816AF8E74E
:1052D000C0B206282FD2DFE800F003080D12171C19
:1052E000D4F88812207C4A6817E0D4F88812207C11
:1052F0008A6812E0D4F88812207CCA680DE0D4F8DD
:105300008812207C0A6908E0D4F88812207C4A6957
:1053100003E0D4F88812207C8A69694690470146E8
:1053200016E0207C38B9D4F88C02416B6846884777
:10533000F5E7207C20B129462046FFF703FFF8BDA2
:10534000D4F88C02016B68468847014607204870F4
:10535000BDF8000048B1EA8852B1824200D9024645
:10536000ADF800202046FFF712FFE8880028E6D1BC
:105370002046FFF719FFF8BD70B5002300281ED0A6
:105380000446002502E06D1CEDB2641C2678002E58
:10539000F9D1022404EB450414801278CA545B1C32
:1053A0000322CA5400245B1C06E0CA545B1CDAB218
:1053B0008C54521CD3B2401C0278002AF5D170BD27
:1053C00001004FF0000004D0012901D0022901D0D2
:1053D000022070470120704710B580B1D0F88C32A0
:1053E00013B10023C0F88C3209B1C0F88812012132
:1053F00080F87412027000F0CBF8002010BD02207B
:1054000010BD10B5D0F89802FCF728FFBDE8104099
:10541000FFF7D6BF10B5D0F89802FCF7F9FEBDE84B
:105420001040FFF7CDBF2DE9F0411746044651B1BA
:10543000D4F88C0242691AB194F87402032851D04E
:105440000220BDE8F081D4F86C32002504F114008C
:10545000022B03D0042B3AD0C3B33CE0D0E9036362
:105460009E4207D9F11AC1608AB239462046FFF739
:1054700061FE12E08068B0FBF3F103FB110199B902
:10548000984211D3D4F8701288420DD200221146EE
:105490002046FFF74FFEC4F8705200231A46194603
:1054A000204600F0C5F816E0D4F88C02C16829B196
:1054B00094F87402032801D12046884780212046B1
:1054C00000F032F92046FFF757FE04E0FFE78021A5
:1054D000204600F029F994F87802012804D184F8D4
:1054E000785201E0204690470020AAE770B51546A3
:1054F000044649B1D4F88C0282691AB194F8740256
:10550000032830D0022070BDD4F86C1204F5A070CE
:10551000032902D005291ED027E0D0E903218A42C1
:105520000BD9531AC3600846834200D303469AB28C
:1055300029462046FFF7F6FD17E0D4F88C020169F2
:1055400029B194F87402032801D1204688472046E7
:10555000FFF72AFE09E000200146C4F86C0220464D
:1055600000F0E2F801E020469047002070BD0020E6
:10557000704710B5012180F87412D0F88C2201799F
:1055800052689047002010BDD0F89802FCF794BEF6
:1055900010B5017839BB15490222C1F80404C0F8DE
:1055A00098124FF0A0400860042048600020C1E934
:1055B0000320C1E9062008624862C8620863084601
:1055C000FDF76CF908B1FBF740F980210748FCF7BB
:1055D000DEFD402200210548FCF7DDFD802201218F
:1055E0000248FCF7D8FD002010BD00007C9500208B
:1055F0000A0601F07F01D0F89802C1EBC10100EB6F
:10560000810002D590F83E00704790F8FE01704787
:10561000002070470020704710B51C461346D0F894
:1056200098022246FCF751FEBDE81040FFF7C8BEC5
:1056300010B5D0F89802FCF778FEBDE81040FFF7EF
:10564000BFBE70B50022044640231146FFF7E4FFB9
:1056500040260125C4F850613346002280212046AF
:10566000C4F84451FFF7D8FF6662A56184F874520C
:105670000020C4F86C026060C4F87C02D4F8900288
:1056800028B1D4F88C0200214268204690470020BF
:1056900070BD90F8751280F874120020704710B534
:1056A00090F87412032904D1D0F88C12C96901B1A1
:1056B0008847002010BD01740020704710B5D0F855
:1056C0009802FDF7BDF9BDE81040FFF779BE70B54F
:1056D000044600F52070054600F04AF80120C4F8A1
:1056E0006C02B4F88602C4F8700294F8800210F0DC
:1056F0001F010AD001290DD0022910D000F080012D
:10570000204600F011F8002070BD2946204600F028
:105710009EF8F8E72946204600F0CAF9F3E7294643
:10572000204600F01DF9EEE710B5D0F89802FCF71E
:1057300020FEBDE81040FFF743BE10B5D0F8980238
:10574000FDF799F9BDE81040FFF73ABE90F87412E2
:1057500080F87512042180F874120020704710B58B
:10576000D0F89802FCF73FFEBDE81040FFF728BED6
:105770000A7802704A7842708A78CB7802EB03226A
:1057800042800A794B7902EB032282808A79C979B7
:1057900002EB0121C18070470246002011B1C2F81E
:1057A0008C1270470220704710B5D0F88C2202246A
:1057B0001AB11268904700B90024204610BD0000BD
:1057C00070B50E461E4D897804462970012931D8DE
:1057D00094F8740202280BD003280FD031462046DB
:1057E000FFF7B0FC29782046BDE87040FFF793BC76
:1057F000D9B10320616084F8740209E071B1606876
:10580000884212D0C1B22046FFF785FC297861603A
:105810002046FFF7C9FF02280CD006E0022084F8DA
:10582000740220466160FFF776FC2046BDE87040B8
:10583000FFF7BABC31462046BDE87040FFF782BC96
:105840008C00002010B5FFF778FF002010BD2DE977
:10585000F0410A78002612F0600208D0202A01D018
:10586000402A70D1D0F88C22926890476DE04B7836
:10587000002201250A2B66D2DFE803F0405D655760
:10588000650805652C29FFF703FD5EE0044688885E
:10589000D8B9C888C8B94888802816D200F07F07D0
:1058A00094F87402032810D084F8767239462046A2
:1058B000FFF704FF2046FFF777FC1FB1022084F8B2
:1058C000740242E084F874523FE020463BE0FFF768
:1058D00077FF3AE0CB88012B35D190F87432012B59
:1058E00004D0022B02D0032B2DD104E082600122D0
:1058F00000F1080116E00122011D13E090F8742266
:10590000012A03D0022A01D0032A1CD1CA88022A04
:1059100019D1C560D0F87C1209B10321C1600222FF
:1059200000F10C01FFF733FC0FE0498801290CD18D
:10593000C0F87C5211E090F87432012B08D0022B91
:1059400006D0032B04D0FFF7FDFB3046BDE8F08105
:1059500049880129F9D1C0F87C22FFF725FCF4E73A
:105960002DE9F0410A46044610780027097910F025
:1059700060030AD0202B01D0402B50D1D4F88C02E8
:1059800011468368204698478FE0C0F341100128F4
:1059900006D05078D0B301282AD003283FD107E0A1
:1059A000D4F88C02114683682046BDE8F0411847C0
:1059B00094F87402022802D0032872D10AE071B36D
:1059C00080296ED02046FFF7AFFE80212046FFF7EA
:1059D000ABFE6AE0508838B931B1802904D0D08854
:1059E00010B92046FFF7A0FE2046FFF7DDFB5CE084
:1059F00094F874020228E2D0032852D1508898BB50
:105A00004806F1D02046FFF7FCFCEDE7FFE794F8ED
:105A100074020026022803D0032842D112E040E09D
:105A200009B180293DD1080601F07F0000EB80001C
:105A300004EB800101D5143101E001F5A0710222CF
:105A40000E602AE0080601F00F0000EB800004EB76
:105A500080000AD5806920B301F07F0000EB800050
:105A600004EB800514350BE01FE0D0F84401C0B111
:105A700001F07F0000EB800004EB800505F5A075C8
:105A800041B1802906D02046FFF7B2FD10B10120B8
:105A9000286000E02E60022229462046FFF777FBAF
:105AA00003E011462046FFF74DFB3846BDE8F08184
:105AB00070B5054608780C4610F0600003D0202829
:105AC00001D0402816D195F87402012803D002288D
:105AD00001D003280ED1207901280BD8D5F88C02EB
